:020000040800F2
:1000000000000220D11A0008CF1A0008CD1A0008FB
:10001000CD1A0008CD1A0008CD1A00080000000013
:10002000000000000000000000000000CF1A0008DF
:10003000CF1A000800000000CF1A0008D102000803
:10004000CD1A0008CD1A0008CD1A0008CD1A0008F4
:10005000CD1A0008CD1A0008CD1A0008CD1A0008E4
:10006000CD1A0008CD1A0008CD1A0008CD1A0008D4
:10007000CD1A0008CD1A0008CD1A0008CD1A0008C4
:10008000CD1A0008CD1A0008CD1A0008CD1A0008B4
:10009000CD1A0008CD1A0008CD1A0008CD1A0008A4
:1000A000CD1A0008CD1A0008CD1A0008CD1A000894
:1000B000CD1A0008CD1A0008CD1A0008CD1A000884
:1000C000CD1A0008CD1A0008CD1A0008CD1A000874
:1000D000CD1A0008CD1A0008CD1A0008CD1A000864
:1000E000CD1A0008CD1A0008CD1A0008CD1A000854
:1000F000CD1A0008CD1A0008CD1A0008CD1A000844
:10010000CD1A0008CD1A0008CD1A0008CD1A000833
:10011000CD1A0008CD1A0008CD1A0008CD1A000823
:10012000CD1A0008CD1A0008CD1A0008CD1A000813
:10013000CD1A0008CD1A0008CD1A0008CD1A000803
:10014000CD1A0008CD1A0008CD1A0008D107000802
:10015000CD1A0008CD1A0008CD1A0008CD1A0008E3
:10016000CD1A0008CD1A0008CD1A0008CD1A0008D3
:10017000CD1A0008CD1A0008CD1A0008CD1A0008C3
:10018000CD1A0008CD1A0008CD1A0008CD1A0008B3
:10019000CD1A0008CD1A0008CD1A0008CD1A0008A3
:1001A000CD1A0008CD1A0008CD1A0008022901D185
:1001B00000F016BB7047000010B5084C237813F010
:1001C000FD0F02D04FF0FF3010BDC307FAD500F08D
:1001D0007FFB0028F6DB02236370F5E75800002060
:1001E00010B5084C606000F095FBFFF7E5FF0028B4
:1001F00004DB054A53680133536010BD6368002B6C
:10020000F1D1FAE7EC0700205800002008B5FFF70D
:10021000E7FFA0F120035842584108BD034B1B786B
:10022000022B01D100F05EBB704700BF58000020D8
:10023000054B996810B54A1CDC68D2B294421EBFC7
:10024000C9189A60087410BD58000020064AD2E907
:1002500002138B421FBFD1180133DBB2087C14BFDD
:10026000D3604FF0FF3070475800002038B5134C72
:100270002368013320D0124D124B2A689A421BD9B1
:10028000114B9B6803F1006303F500439A4213D2BC
:1002900000F09CFE01F084FC01F092FC00F0F8FA02
:1002A00000F052FB00F038FB084B1C6023682A6802
:1002B00083F308881047FEE738BD00BF00800008C0
:1002C00004800008FF7F00083C00002008ED00E0EB
:1002D0000D4A10B50023144652F8231021B152F8EC
:1002E0002310013942F823100133042BF4D1074BBA
:1002F00093F8103133B9A36823B9022000F010FC41
:100300003223A36010BD00BFEC070020580000207E
:10031000024BD860DA68002AFCD17047EC07002055
:100320002DE9F04FC54DC64FDFF82CA300248FB048
:100330002C7081460420BE6801F01EFCFB684FF45F
:100340007A70584301F010FC01F022FC01F030FCFF
:10035000B9F1000F01D0CAF8009085F81041CAF831
:1003600008404FF0FF38012000F0CCFBB9F1000F3E
:1003700004D0DAF80030002B00F0C3810020FFF732
:100380002FFF0390039B002BF0DB012000F0ACFB60
:10039000039B213B102BE6D801A252F823F000BFAB
:1003A000E5030008FF03000877040008670300085E
:1003B0006703000867030008D50400086703000806
:1003C00069050008FD0500085D060008990600089B
:1003D00067030008B106000867030008D906000893
:1003E0002D0400080220FFF711FFF8B90EA841F212
:1003F000123320F8143D0221FFF710FFB3E74FF44A
:100400007A70FFF7EDFE041EF0DB0220FFF7FEFE20
:100410000028EBD0601E0428E8D8DFE800F00316BF
:10042000191C1F0087480421FFF7F8FE2B780BB931
:100430006B782B700EA841F2120320F8143D0221B4
:10044000FFF7ECFE4FF000098DE704217C48EBE755
:1004500004217D48E8E704217C48E5E71C24204688
:1004600000F0A6FA04340990042109A8FFF7D6FE8B
:100470002C2CF4D1DAE70220FFF7C8FE0028B5D013
:100480000123022085F8103100F02EFB00F08CFDD6
:100490000024204600F07CFA064670B9022085F858
:1004A000100100F02FFB3446BB68A3420AD800239A
:1004B00085F81031CAF80830B8E7204600F082FA13
:1004C0000134E6E7204600F073FA013040F026815F
:1004D0000434E9E73220FFF783FEB0F1000B85DB3F
:1004E0001BF0030482D1B9680BEB06028A423FF687
:1004F0007DAFBBF5807F3FF679AF554A5C4517D19C
:10050000C820FFF783FE00283FF470AF2EB94FF0EC
:10051000FF33D5F81481C5F8143124F0030404EB3B
:10052000060B34464A4E361BA34510D15E467DE786
:100530004FF47A700192FFF753FE0390039900295C
:10054000FFF654AF019A0399A1540134D6E731590B
:10055000204600F027FA204600F02AFA325990424D
:1005600040F0DC800434DFE70220FFF74FFE002874
:100570003FF43CAF0024A14618E0FCB9B8F1FF3FBE
:100580001CD0CDF82480D5F81832ABB3002209A9CD
:10059000535C83EA0903DBB205EB83030132D3F832
:1005A0001432042A83EA1929F2D10434BB68A34225
:1005B000E3D80EA8042140F8289D35E7204600F036
:1005C000F7F90990DFE702F0010C5208BCF1000FC7
:1005D00007D082F06D4282F4380282F4034282F046
:1005E00020020139EFD140F823200133B3F5807F99
:1005F000CCD01A460821E6E71648FAE700240DF1A8
:10060000240B6420FFF7ECFD0028FFF6EFAE04F8A2
:100610000B000134042CF4D10220DDF824B0FFF7E4
:10062000F5FD00283FF4E2AE584600F0EFF90EABBE
:1006300043F8240D04211846F6E600BF58000020B8
:100640003C0000201C230008400000204400002043
:100650006C0100206C020020EC07002000240DF14A
:10066000240B6420FFF7BCFD0028FFF6BFAE04F8A2
:100670000B000134042CF4D1099B01930220FFF7F5
:10068000C5FD019B00283FF4B1AE184600F026FAE4
:100690000EAB43F8200DCDE70220FFF7B7FD002891
:1006A0003FF4A4AE00F0C0F90EAB43F81C0DC1E757
:1006B0000220FFF7ABFD00283FF498AE09A91420F3
:1006C00000F0B8F904460EA8042140F8184DFFF7D1
:1006D000A5FD214609A8A7E64FF47A70FFF796FD1D
:1006E00000283FF483AEB8F1FF3F0DD10EA841F2D0
:1006F000120320F8143D0221FFF790FD6420FFF75C
:1007000007FE0FB0BDE8F08F4146002000F04AF927
:10071000002000F04DF98045E8D034460EA841F2A3
:10072000121320F8143D0221FFF778FD26461AE641
:10073000497821290BD022290BD0202901D0002073
:1007400070471888062894BF002001207047024B8C
:1007500013600120704700BF2023000837B5104BFD
:1007600000930446002540230222012100F0E6FC0C
:100770002046009540230222822100F0DFFC204623
:10078000009510230322832100F0D8FC054B7F2223
:100790002121204603B0BDE8304001F070B800BF11
:1007A000A90700083107000830B591B040236A4618
:1007B000012100F0ECFC00240546AC4201D311B04D
:1007C00030BD1DF80400FFF733FD0134F5E70000EC
:1007D000024B186808B100F0A7BC70476C060020F7
:1007E00030B5012185B01F481F4C204D00F04AFC58
:1007F00080211F4800F046FC4FF4C0530022022124
:100800001C4800F05DFB4FF4C0520A21194800F06B
:1008100094FB2368184A194843F40013236080238B
:1008200002932B1D0193032302F10D010093144B3E
:1008300000F052FC1349286000F0DCFE124B1B68EC
:10084000B3F5005F08D12368104A43F40413236012
:10085000136823F002031360432005B0BDE8304065
:1008600001F0B6B930380240380000506C06002064
:100870003438024000000240272300080025000809
:10088000000000205D0700083C00005004080050F4
:1008900010B50C4C432001F0A9F9206820B10121CA
:1008A00000F046FC002323600022114606484FF466
:1008B000C05300F005FB80210448BDE8104000F063
:1008C000E5BB00BF6C060020000002403438024047
:1008D000034B1B680BB1FFF7B9BC4FF0FF307047FB
:1008E0006C06002070B50A4D2A6806460C4662B9AF
:1008F00070BD402C234628BF402332469BB2822144
:10090000286800F03CFC241A0644002CF1D1EFE7E3
:100910006C06002007207047002208B511463023DE
:10092000064800F0CDFA4FF08051054800F0AEFBCC
:10093000044B4FF480121A6008BD00BF000402404F
:10094000403802403038024010B5042000F0AAF9C7
:10095000042000F09FF90A4B00241C60032000F0E3
:10096000CDF9204600F0CAF900F0F4F9054B064A2B
:100970001A60032000F09CFB044B1C6010BD00BFFC
:100980000838024004380240103000240C3802407D
:100990000A289DBF024B03EBC0004068002070474F
:1009A000EC23000800F1006000F5004000F02ABBD5
:1009B000830703BF00F1006000F5004000680020DD
:1009C00070470000431E092B70B50AD80E4C012257
:1009D0000025D3008242234404D15E680021B14245
:1009E00004D370BD5B6801321D44F2E76818FFF75D
:1009F000DFFF013001D10431F1E714F832000221A8
:100A0000BDE8704000F016BBEC23000810F00303B3
:100A100008D1B0F5007F05D800F10050A0F50840DE
:100A20000068704700207047014B1868704700BF8E
:100A3000002004E0274B2DE9F0411C68264B5E683E
:100A40001A7AC4F30B050027240C4FF00C0E0EFB92
:100A500007FC33F80C80A84529D163445E681A7AF4
:100A600042F201039C4226D0B4F5805F25D041F2CA
:100A700001039C4223D041F203039C4221D041F266
:100A800007039C4208BF3122451E0D44013E0B4620
:100A9000AB421CD216F8010F5C1CA0B92C20AC4252
:100AA000187001D29C1C5A70601ABDE8F0810137A1
:100AB000042FCCD1D4E73322E1E74122DFE75A22E9
:100AC000E2E75922E0E704F8010C2346E0E71C4680
:100AD000EAE700BF002004E00C000020014BC058F2
:100AE000704700BF107AFF1F012802D0022804D0EF
:100AF00070472021024800F0D7B91021FAE700BF63
:100B000000040240012802D0022804D070472021AE
:100B1000024800F0C7B91021FAE700BF0004024004
:100B2000012802D0022804D070472021024800F09A
:100B3000BEB91021FAE700BF00040240344A35482C
:100B400038B5136843F470031360334B6FF07F02C2
:100B5000002483F8392001210F2283F83A2083F8FA
:100B6000384083F83B4000F08DFA0221294800F01C
:100B700089FA302322460121284800F0A1F93023C8
:100B800022462146254800F0BDF93021234800F0D7
:100B90008BF94FF08051224800F074FA214800F0A0
:100BA0002BF9214B21481A6842F480721A60204ABE
:100BB000116841F4004111600568116801F40041B9
:100BC0001160196821F4807119601A498D421BD196
:100BD000196841F480711960116841F40041116095
:100BE0000460116801F4004111601A6822F48072F7
:100BF0001A6002210020FFF7D9FA2046FFF790FB88
:100C00000024FFF733FBF8E741F28834F1E700BF37
:100C100088ED00E0303802400C0000200004024063
:100C200040380240A42400080070004050280040D2
:100C30007038024007B007B0062822D8DFE800F07D
:100C400004171C090E1315000F4B1868C0F3406001
:100C500070470D4B1868C0F3404070470A4B186846
:100C6000C0F340007047094BF9E7094BF7E7064B23
:100C70001868C0F340707047034B1868C0F3C06039
:100C800070470020704700BF0038024070380240B3
:100C90007438024008B502461046FFF7CDFF002821
:100CA000FAD008BD06280AD8DFE800F004181D0AAB
:100CB0000F1416000E4A136843F0807313607047D8
:100CC0000B4A136843F48033F8E7094A136843F08A
:100CD0000103F3E7074AF9E7074AF7E7044A13680D
:100CE00043F08053EAE7024A136843F08063E5E784
:100CF00000380240703802407438024006280AD892
:100D0000DFE800F004181D0A0F1416000E4A1368DD
:100D100023F08073136070470B4A136823F4803309
:100D2000F8E7094A136823F00103F3E7074AF9E7F4
:100D3000074AF7E7044A136823F08053EAE7024AB8
:100D4000136823F08063E5E7003802407038024002
:100D500074380240024A136823F40023136070477A
:100D600000380240034A136823F00303184310605D
:100D7000704700BF08380240034A136823F46043F9
:100D800043EA40301060704708380240034A136855
:100D900023F4E05343EA8020106070470838024093
:100DA000034A136823F0F00343EA00101060704711
:100DB000083802401B0603F0706300F03F0043F464
:100DC0008003034347F6C07000EA81110B435108CA
:100DD000009A0139022A4FEA014138BF022201F488
:100DE0004031120702F0E0420B431343014A136003
:100DF000704700BF0438024037B504460420FFF7AF
:100E000051FF0420FFF746FF0020FFF7ABFF032050
:100E1000FFF748FF0320FFF73DFFE07B002835D1B7
:100E200000F0F2FE207BFFF7BBFF607BFFF7AEFF19
:100E3000A07BFFF7A1FFA5796188637922792078EB
:100E40000095FFF7B7FF124A136843F080731360F1
:100E50000020FFF71FFFA06800F09CF80220FFF7BA
:100E600081FF0C4A1368C3F38103022BFAD10A4BAA
:100E700022691A60094B62691A60A269084B042052
:100E80001A6003B0BDE83040FFF738BF0120C7E764
:100E900000380240083802404C000020500000207A
:100EA00054000020816170470904816170474369E3
:100EB00001EA030221EA030141EA0241816170472C
:100EC0002DE9F0410568C46800264FF0030E43FA8F
:100ED00006F7FF070FD577000EFA07FC6FEA0C0C38
:100EE00001FA07F80CEA05050CEA040402FA07F710
:100EF00048EA05053C430136102EE8D10560C46080
:100F0000BDE8F081012941680CBF19439943F0B550
:100F1000416081680024032643FA04F5ED0707D5F4
:100F2000650006FA05F721EA070102FA05F52943EB
:100F30000134102CF0D18160F0BDF0B5076A466A2B
:100F400000234FF00F0C42FA03F4E50707D59D008C
:100F50000CFA05F427EA040701FA05F52F430133DB
:100F6000082BF0D14FF00F0C42FA03F4E4070AD536
:100F700003F18044083CA4000CFA04F526EA0506B7
:100F800001FA04F426430133102BEDD107624662C7
:100F9000F0BD0000034A136823F0070318431060F4
:100FA000704700BF003C0240054A136843F000430D
:100FB0001360044B044A1A6002F188321A607047C9
:100FC000103C0240043C024023016745024A13687A
:100FD00043F0004313607047103C0240024A13681C
:100FE000DB03FCD4704700BF0C3C0240044B1A6882
:100FF00022F440721A601A6842EA002018607047B2
:10100000103C024070B50A4C0E460546FFF7E6FF5D
:101010000220FFF7EBFF236843F0010323602E60FB
:10102000FFF7DCFF236823F00103236070BD00BFDE
:10103000103C024038B50C460546FFF7CFFF20466E
:101040000F4CFFF7D3FF236823F0F80323602368D6
:10105000ED00EDB21D432560236843F002032360D9
:10106000236843F480332360FFF7B8FF236823F03D
:1010700002032360236823F0F803236038BD00BF18
:10108000103C02400368194301607047036823EA7B
:10109000010101607047430903F1804303F50E33FA
:1010A00000F01F0219680120904008431860704743
:1010B000032802D0052806D07047054A136823F498
:1010C000802313607047034A136823F00403F8E792
:1010D00000380240703802402DE9F0411E46036896
:1010E0000546884617469847069BC360079B0361E1
:1010F000BDF820308382094B0367094BC366094B57
:1011000083660023C0F8DC50C0E900878660C0E930
:101110003233C0E93433BDE8F08100BFA5180008C0
:101120001519000897190008D0F8DC305B6A1847D9
:10113000D0F8DC309B6A03B11847704710B4D0F880
:10114000DC40A468A4465DF8044B604737B50368EB
:1011500000250446C582DB7900952A462946FFF71B
:10116000EDFFD4F8DC3029465B6820469847E369F8
:101170001BB103B0BDE83040184703B030BD10B418
:10118000D0F8DC40E469A4465DF8044B604710B435
:10119000D0F8DC40246AA4465DF8044B6047D0F8E0
:1011A000DC301B691847D0F8DC309B691847D0F851
:1011B000DC305B691847F8B50D464988044679B1BB
:1011C00003680D26587C0023984201D80020F8BD02
:1011D000626806FB032252798A4203D00133F3E7A7
:1011E0004FF0FF330133DBB2E3754BB9D4F8DC3099
:1011F0002046DB689847D4F8C830ABB90120E6E751
:101200000D226FF00C0112FB0312636813440022DD
:10121000104619799142E9D9D3F80910160171588D
:1012200001B108700132F4E70023A3642365A365CC
:10123000236604F1C80604F1D80756F8043B13B13D
:10124000698820469847B742F7D1D7E719881268CE
:10125000012984BF01211980C37D2BB141680D2074
:1012600000FB031313F8083C13700120704770B59E
:10127000C67D40686FF00C050D2414FB0654204415
:101280008D880479A5420CD201241C808B88D0F86B
:1012900009001B011B5803B11B7812680120137051
:1012A00070BD0020FCE71988022984BF0221198043
:1012B000116800230B70126801205370704710B53D
:1012C00014461A88022A84BF02221A808988C9B269
:1012D000FFF769FF2368003018BF012018702368EA
:1012E00000225A70012010BD08B589880122C9B2B8
:1012F000FFF755FF012008BD08B589880022C9B253
:10130000FFF74DFF012008BD10B50B7873B94C886D
:101310007F2C0BD8D0F8DC30847593F830201AB1CC
:1013200049885B68C9B29847012000E0002010BDE1
:1013300070B5C27D0D241D466FF00C0314FB023303
:1013400044688A881C442379934218D9D4F8093018
:101350004C8812019E183679A64210D99A5852B17B
:101360001470D0F8D83013B14A8889889847002380
:101370002B80012070BD002CF3D01046FAE700202E
:10138000F8E72DE9F04F4D881F462B0A022B89B054
:10139000164611D0032B00F0E780012B40F01C8192
:1013A00002683260127839888A4228BF0A463A8039
:1013B000012009B0BDE8F08FEDB205EB45060369E9
:1013C000D0F80480136005EB86063C8818F80650B8
:1013D0000193A54208EB060328BF25462A46194675
:1013E0000198029300F07EFE019B18F80660641BD2
:1013F0002B44A4B200220492029A1179BDF8102065
:10140000914203D8019B5E803D80D1E7049A12018E
:101410000792029A0799D2F809200A44D2F8089054
:10142000B9F1000F14D099F80080A04528BFA0465C
:1014300042461846494600F055FE99F800200346FA
:10144000A4EB0804454416444344A4B2ADB2B6B27A
:1014500000220592029A0799D2F809200A44BDF8A1
:1014600014101079884202D8049A0132C3E7059912
:10147000D2F80CA0152000FB01F90AEB090B1AF8B1
:101480000980A04528BFA04642465946184600F0AC
:1014900029FE1AF80920DBF80D100346A4EB080416
:1014A000454416444344A4B2ADB2B6B2A9B1DBF888
:1014B0001180A045A8BFA0461FFA88F94A461846E1
:1014C00000F010FEDBF811200346A4EB09044D44A4
:1014D00016444B44A4B2ADB2B6B24FF000099BF82B
:1014E00004101FFA89F2914202D8059A0132B0E73E
:1014F000DBF809200692C9EB091A52440392069AB6
:10150000039912F80A80A04528BFA0464246184613
:1015100000F0E8FD069A12F80A201644039AD2F861
:1015200007100346A4EB080445444344A4B2ADB2FB
:10153000B6B2B1B1D2F80B80A045A8BFA0461FFA41
:1015400088FA5246184600F0CDFD039AD2F80B20D7
:101550000346A4EB0A04554416445344A4B2ADB266
:10156000B6B209F10109BAE715F0FF0504690DD11A
:101570000923A3700423E37023703B88042B28BF46
:1015800004233B8003236370346011E783681BB33B
:10159000C268013DAA421FDD898840F2094291429A
:1015A0001AD153F82550284600F04AFE0130400079
:1015B000C0B220703B88984228BF18463880294620
:1015C0003B885B084A1B013B9342DBDD04EB420294
:1015D00011F8013B5380F3E70020EAE6198802295D
:1015E00084BF02211980116800230B70126801204A
:1015F0005370704710B5002300F1C80454F8042B51
:101600002AB10133042BF9D14FF0FF3010BD323332
:1016100040F823101046F9E710B44C78092C13D881
:10162000DFE804F00E12121212100C120A05084C18
:10163000A4465DF8044B6047064CF9E7064CF7E713
:10164000064CF5E7064CF3E700205DF8044B7047C5
:10165000B71100084D12000883130008A7120008F4
:101660000913000810B44C780A2C09D00B2C02D0B6
:1016700044B9064C00E0064CA4465DF8044B6047B4
:10168000044CF9E700205DF8044B7047DD150008B5
:10169000311300086F12000810B44C78012C06D0EA
:1016A00012D3032C08D000205DF8044B70474C88FF
:1016B000002CF8D1054C03E04C88002CF3D1044CED
:1016C000A4465DF8044B6047024CF9E7F9120008A4
:1016D000E9120008BF12000810B40C7814F0600F73
:1016E00006D104F01F04012C0AD005D3022C0BD024
:1016F00000205DF8044B70475DF8044BFFF78CBF8A
:101700005DF8044BFFF7AEBF5DF8044BFFF7C4BFB5
:1017100010B5012204460021FFF741FD002384F8A3
:101720002C3010BD70B50368828FC48EDB79816B5D
:10173000A41A9C42A8BF1C46A6B20A443346002104
:101740000546FFF724FD864205D02846FFF7E0FF57
:101750004FF0FF3070BDAB8F1E44AE87A0B2F9E7EB
:1017600010B50368826BD979838F994204460FD2F2
:101770000B460021FFF703FD022384F82C30236879
:10178000A26BD979A38F0A445B1AA263A38710BD09
:101790000021FFF7F4FC94F84430002B0CBF032326
:1017A000022384F82C30002384F84430A387A363F9
:1017B000EDE72DE9F74F04460E4600F1480500F12C
:1017C000680B00F1380700F13C0800F1400AD5F839
:1017D0000090B9F1000F08D0337869792A790B406D
:1017E0009A420BD008355D45F1D143463A46314621
:1017F000204603B0BDE8F04FFFF76EBFCDF800A064
:1018000043463A4631462046C8470128EAD803B045
:10181000BDE8F08F38B5036983638B79CA7943EAF1
:101820000223838704460D46FFF7C3FF10B3EB88FE
:10183000BBB1A28F21689342C9790ED97AB192FBCC
:10184000F1F301FB1323B3FA83F35B0984F844300B
:101850002046BDE83840FFF783BF0023F6E7134674
:10186000F4E71A4619462046FFF789FC042384F85A
:101870002C3038BD2046BDE83840FFF749BF70B571
:10188000002600EBC605AC6C2CB10136042EF8D155
:101890004FF0FF3070BD85F84C1085F84D20AB64DB
:1018A0002046F7E770B5002500F1300604460564D0
:1018B00001222946FFF77BFC0823324629462046B1
:1018C000FFF765FC082804D02046BDE87040FFF70C
:1018D0001FBFE38E2BB931462046BDE87040FFF7AD
:1018E00099BF94F93020002AF5DBA28A9A42EBD303
:1018F0002269A2632268A587D2799A4234BF052360
:101900000623002284F82C3020461146BDE87040A2
:10191000FFF74DBC90F82C30062B10B5044612D0C2
:10192000072B27D0052B21D1FFF7FCFE002809DB70
:10193000A28FE38E9B1A2268D279934202DC06239F
:1019400084F82C3010BDFFF7EDFE0028FADB04F11F
:1019500030012046FFF72DFF38B100231A46194603
:101960002046FFF70CFC0423EAE72046BDE81040C0
:10197000FFF7CEBE00231A461946FFF708FC0023E6
:1019800084F82C30236C1BB104F1300120469847B9
:1019900000232364D6E790F82C30032B10B50446BF
:1019A00007D0042B0ED0022B23D1BDE81040FFF747
:1019B000D7BE0723002280F82C301146BDE8104026
:1019C000FFF7F5BB036C13B100F13001984794F8B1
:1019D000303053B994F83130052B06D1618ED4F8EC
:1019E000DC30C9B25B6820469847002384F82C306D
:1019F00010BDBDE81040FFF78BBE000008B540F2F7
:101A00008760FFF748FB254A136843F040031360E3
:101A1000234B19461A68002AFCDA1A6842F00102C0
:101A20001A600B68DB07FCD41E4B1F481B68B3F51C
:101A3000005F1E4B1A682CBF42F4041242F41022BD
:101A40001A601B4A136823F002031360A2F5FF62B9
:101A5000136843F0804343F470531360154B022224
:101A60001A60154A136843F003031360134B0022F6
:101A70001A60134A80231360A0F8E03052F81C3C2F
:101A800043F0010342F81C3C0E4B0F4A1A600F2230
:101A9000C3F804280122C3F8F82708BD0C00005041
:101AA000100000503C000050F006002038000050AC
:101AB000040800501400005000080050000E0050B0
:101AC000240000501800005010280480FEE77047E2
:101AD0001A4C1B491B480022531883421AD31A4A36
:101AE000002193421AD3194A194C1368194D43F433
:101AF00000731360536F43F470035367AC4210D309
:101B0000154C164DAC4210D3FFF718F8144C154D78
:101B1000AC420ED3135953500432DDE7196004333D
:101B2000DFE754F8043B9847E8E754F8043B98474C
:101B3000E8E754F8043B9847EAE700BF342500087B
:101B40000000002058000020FC07002014ED00E0F9
:101B50003425000834250008342500083425000801
:101B60003425000834250008024B20F07F4018601F
:101B7000704700BF14E000E0044A136800F004005E
:101B800023F0040303431360704700BF10E000E03C
:101B9000024A136843F002031360704710E000E04C
:101BA000024A136823F002031360704710E000E05C
:101BB000024A136843F001031360704710E000E02D
:101BC000024A136823F001031360704710E000E03D
:101BD000054B420903EB820300F01F00012202FAC9
:101BE00000F01860704700BF00E100E0054B4209BB
:101BF00003EB820300F01F00012202FA00F01860DC
:101C0000704700BF80E100E028B9064A136843F43A
:101C10008043136070470128FCD1024A136803F423
:101C20008043F6E700700040D0F8DC30DA6AD2F882
:101C3000003823F4FE6343EA0111C2F8001870472C
:101C4000D0F8DCC02DE9F04711F07F06089FDCF8E2
:101C50002C5003F07F043ED13F2B31D9C5F80069E9
:101C6000DCF82C20C2F81049DCF82C10D1F800293F
:101C700042F00842C1F80029DCF82C2044F000545E
:101C800044F40024C0F8E840C2F8104BDCF82C10F3
:101C9000D1F8002B42F00842C1F8002B9908BCF89B
:101CA0003230DCF82C2043EA01439362B0F8E03094
:101CB000194489B2A0F8E010A0F8E210BDE8F0875E
:101CC0001F2B03D90122C5F80029C9E70F2B8CBFB0
:101CD00002220322F7E709064FEA46184FEA82423A
:101CE00029D5B0F8E0904FEA930E06F1400149EA99
:101CF0000E4A45F821A0DCF82C5005F51165CE44BC
:101D0000A0F8E0E045F8084042F0184108F51068F6
:101D1000DCF82C4041F4004158F80450194341EAE2
:101D20008651294348F80410002FC7D00C2303FB29
:101D300006008766C2E706F13A0105F5316544F40D
:101D4000002440F8214045F8084008F53061DCF8EF
:101D50002C4042F014420D5942F400421A432A43E7
:101D60000A51002FAAD00C2303FB0600C766A5E783
:101D7000B0F8E230D0F8DC2010B5A0F8E0304FF435
:101D80003263D16A58580028BEBF585840F080408E
:101D90005850A3F50070D16A4458002CB8BF44587D
:101DA00003F12003BCBF44F080444450B3F5386FC6
:101DB000E7D1D36A4FF486621A6110BD10B5D0F82E
:101DC000DC0039B9C36AD3F800498AB144F400147D
:101DD000C3F800490C0646BF01F07F014831583175
:101DE000C36A49013AB1CA5842F40012CA5010BD40
:101DF00024F40014ECE7CA5822F40012CA50C26A54
:101E00008B5843F080538B50F1E70A06D0F8DC3052
:101E100046BF01F07F0148315831DB6A4901C8589B
:101E2000C0F3405070470B060CD44318583183F868
:101E3000E420D0F8DC304901DB6A22B1CA5842F014
:101E40000062CA507047CA5842F08062F9E770B524
:101E5000D0F8DC50E86A01F07F014C0100F5116018
:101E60000659360316D443F40026065104F51064CF
:101E7000EE6AA059013140F00440A0510903D41882
:101E8000A01A002801DC184670BDE86A52F8046BFD
:101E90000E50F5E70023F6E737B501461046B1F8D6
:101EA000F8409C4228BF1C4615191346EA1A032A1B
:101EB0001CDCA3086FF0030202FB034200EB83006B
:101EC0008AB1D1F8DC30DB6A03F580531B680193DB
:101ED000B1F8F830032B94BF0023043BA1F8F8308D
:101EE00001A900F0FFF8204603B030BDD1F8DC2096
:101EF000D26A02F58052126843F8042BB1F8F82038
:101F0000043AA1F8F820D1E72DE9F843D0F8DC3005
:101F1000DA6A556915F40056044609D05B8E4FF411
:101F200000515161A0F8E030BDE8F843FFF70EB969
:101F30004FF00C084FF00109D4F8DC30DB6A770170
:101F400003F60813DB59DA070DD508FB06439B6E31
:101F500013B1F1B220469847D4F8DC30DB6A03F6BF
:101F6000081343F807900136042EE5D1EB0648D557
:101F7000D4F8DC00C36A1A6A02F4F016B6F5C02F72
:101F800002F00F0102D0B6F5002F18D101F13A0589
:101F90004A0103F5316354F825509D50214402F560
:101FA000306391F8E410C06A00291A580CBF4FF052
:101FB00004414FF008410A431A50BDE8F883B6F5D2
:101FC000802F73D0B6F5402FF7D14E0103F511677E
:101FD000BF593F0340D4022001EB410303441A33AD
:101FE000C2F30A1254F82330A4F8F8200BB12046AB
:101FF0009847B4F8F8100023994259DC0023A4F85C
:10200000F8302A0508D5236A03B19847D4F8DC30A4
:10201000DB6A4FF400625A61002D08DA636A03B18B
:102020009847D4F8DC30DB6A4FF000425A612B0746
:1020300007D5A36A03B19847D4F8DC30DB6A0822DD
:102040005A61D4F8DC30A26ADB6A002A38D09A6977
:1020500042F008029A61B0E706F5106C53F80C7074
:1020600047F0006743F80C70C76A07F6081333445B
:10207000D3F800E01EF0400FFAD05CF807309B0D5B
:10208000D7F810E0BEF1000FFADA9B0103F4707389
:1020900043F020033B61C36A03F5116300279F519E
:1020A000C36A103318688006FCD494E7012093E7D4
:1020B000D4F8DC20D26A02F58052043312689BE720
:1020C0009A6922F00802C5E7D0F8DC30DB6AD3F861
:1020D000042821B142F00202C3F80428704722F01C
:1020E0000202F9E7844641EA000313F003036DD1CD
:1020F000403A41D351F8043B40F8043B51F8043BCB
:1021000040F8043B51F8043B40F8043B51F8043BD1
:1021100040F8043B51F8043B40F8043B51F8043BC1
:1021200040F8043B51F8043B40F8043B51F8043BB1
:1021300040F8043B51F8043B40F8043B51F8043BA1
:1021400040F8043B51F8043B40F8043B51F8043B91
:1021500040F8043B51F8043B40F8043B51F8043B81
:1021600040F8043B51F8043B40F8043B51F8043B71
:1021700040F8043B403ABDD2303211D351F8043B11
:1021800040F8043B51F8043B40F8043B51F8043B51
:1021900040F8043B51F8043B40F8043B103AEDD2C0
:1021A0000C3205D351F8043B40F8043B043AF9D211
:1021B000043208D0D2071CBF11F8013B00F8013BE4
:1021C00001D30B8803806046704700BF082A13D3F1
:1021D0008B078DD010F003038AD0C3F10403D21A09
:1021E000DB071CBF11F8013B00F8013B80D331F83D
:1021F000023B20F8023B7BE7043AD9D3013A11F8BD
:10220000013B00F8013BF9D20B7803704B78437027
:102210008B7883706046704700000000000000006B
:1022200000000000000000000000000000000000AE
:10223000000000000000000000000000000000009E
:1022400090F800F06DE9024520F007016FF0000CF6
:1022500010F0070491F820F040F049804FF000049E
:102260006FF00700D1E9002391F840F000F1080079
:1022700082FA4CF2A4FA8CF283FA4CF3A2FA8CF3B1
:102280004BBBD1E9022382FA4CF200F10800A4FA18
:102290008CF283FA4CF3A2FA8CF3E3B9D1E904236C
:1022A00082FA4CF200F10800A4FA8CF283FA4CF3A3
:1022B000A2FA8CF37BB9D1E9062301F1200182FA5D
:1022C0004CF200F10800A4FA8CF283FA4CF3A2FA63
:1022D0008CF3002BC6D0002A04BF04301A4612BA71
:1022E000B2FA82F2FDE8024500EBD2007047D1E974
:1022F000002304F00305C4F100004FEAC50514F003
:10230000040F91F840F00CFA05F562EA05021CBFD3
:1023100063EA050362464FF00004A9E705000000E8
:1023200000C201000000080902000002010080FA5A
:10233000482300081201000202000040AC261600EB
:102340000101010203010000000000000100000083
:10235000000000007D2300080000000001000000D4
:10236000000000006823000809040100020A0000C0
:1023700000A5230008000000000000000009040080
:10238000000102020100C323000892230008130089
:1023900000000524001001052401000104240200AE
:1023A00005240600010705010240000100000000AD
:1023B000000000000705820240000100000000004C
:1023C000000000070583031000FF0000000000006C
:1023D000000056657274696C6500505834204F6D6A
:1023E0006E6962757346345344003000010000008A
:1023F0000040000002000000004000000300000058
:102400000040000004000000000001000500000082
:1024100000000200060000000000020007000000AB
:102420000000020008000000000002000900000097
:10243000000002000A000000000002000B00000083
:102440000000020010000000004000001100000029
:1024500000400000120000000040000013000000D7
:102460000040000014000000000001001500000002
:10247000000002001600000000000200170000002B
:102480000000020018000000000002001900000017
:10249000000002001A000000000002001B00000003
:1024A00000000200080050010207000005060000BD
:1024B000000504000000000080DE800200BD010570
:1024C000012033000010410001105A000310590090
:1024D0000710310053544D3332463F3F3F005354B1
:1024E0004D3332463430780053544D333246343213
:1024F000780053544D333246343436585800000077
:10250000FD190008291C0008411C0008711D000865
:10251000BD1D0008271E00080B1E00084F1E0008E6
:10252000991E0008091F0008C9200008000000507B
:042530000100800026
:10253400D2230008DA230008EA2300080000000080
:10254400D42400083F00000013040000DE24000827
:102554003F00000019040000E82400083F000000C8
:1025640021040000F22400083F0000002A000000BB
:102574000000000000000000A80000000024F40097
:082584000024F4000024F4001F
:0400000508000000EF
:00000001FF
