:020000040800F2
:100000003217002405030008A9020008A90200080D
:10001000A9020008A9020008A9020008A902000814
:10002000A9020008A9020008A9020008A902000804
:10003000A9020008A9020008A9020008A9020008F4
:10004000A9020008A9020008A9020008A9020008E4
:10029000A9020008A90200080000000000000000F8
:1002A000FFECC2925D7D05C5EFF305801EF0040FE3
:1002B00002D0EFF309818D466A4602F16802EFF33E
:1002C00011831EF0100F0CBF2DED108A90B02DE998
:1002D000FC4F6946DFF828D000F07EFAB0E8FC4F0A
:1002E0001EF0100F0CBFB0EC108A40301EF0040F4F
:1002F0000CBF80F3088880F3098883F31188704766
:100300000803002408B51E4B1E48DA1CC11E121A31
:1003100022F00302994288BF0022002100F0B5FCC0
:10032000194B1A48DA1CC11E121A22F00302994214
:1003300088BF0022164900F093FB00F027F900F077
:1003400063FA00F081F9BFF34F8FBFF36F8F4FF067
:10035000E023D3F8902F22F00102C3F8902FD3F8B6
:10036000942F22F00102C3F8942FBFF34F8FBFF3F5
:100370006F8F00F0D2FC00F01BFA00F0E1FC00BF30
:100380004414002408010024040100240000002477
:1003900038A80008764A82B0D2F8003423F48023CB
:1003A00043F48033C2F80034724B0193019B002B5D
:1003B00000F3D580019B002B40F3CF806C4BD3F82A
:1003C000182422F4706222F00F0242F00802C3F8EF
:1003D0001824D3F81C2422F4E06242F04002C3F84F
:1003E0001C24D3F81C2422F4E06242F48062C3F897
:1003F0001C24D3F8182422F0700242F04002C3F803
:100400001824D3F8202422F0700242F04002C3F8EE
:100410002024594AC3F82824584AC3F83024584A9B
:10042000C3F8382402F50032C3F84024554AC3F813
:100430002C24D3F8002442F0A852C3F80024D3F8A7
:1004400000249001FBD5D3F800241101FBD5484BC3
:10045000D3F800249200FBD5D3F80C2842F0060212
:10046000C3F80C28D3F8182842F44042C3F81828DF
:10047000D3F818289004FBD53D4BD3F804289104F9
:10048000FBD5D3F8F4244FF0B04142F00202C3F898
:10049000F424D1F82C2442F00102C1F82C24D3F822
:1004A00018289204FBD5384A22211160D3F8102471
:1004B00022F0070242F00302C3F810242C4BD3F8B9
:1004C000102402F03802182AF9D1D3F8542422F467
:1004D000405242F40052C3F85424D3F8582422F472
:1004E000407242F40072C3F85824D3F8502422F426
:1004F000E04242F48052C3F85024D3F8502422F44E
:10050000E02242F48032C3F85024D3F8582422F079
:10051000E04242F08052C3F85824D3F8542422F425
:10052000401242F40012C3F85424D3F8542422F0A9
:100530000702C3F85424D3F8542422F03802C3F835
:100540005424D3F8582422F44032C3F85824D3F862
:10055000502422F04052C3F8502402B07047D2F821
:1005600000349B033FF526AF019B013B1DE700BF15
:1005700000400258F82F9100124040003B02030750
:100580002F0201018808BF000020005210B52A4C3C
:1005900000200122D4F8003443F00103C4F80034F1
:1005A000264BC3F80821C4F81004254BD4F80024C6
:1005B000134043F01003C4F80034224BC4F82C3429
:1005C000D4F8003423F48023C4F80034C4F8600461
:1005D00000F07CF8FFF7DEFED4F8D83443F0006377
:1005E00043F00303C4F8D834D4F8DC34C4F8DC3462
:1005F000D4F8D434C4F8D434D4F8E03443F080537D
:1006000043F09F03C4F8E034D4F8E834C4F8E83485
:10061000D4F8EC34C4F8EC34D4F8F03443F01003DC
:10062000C4F8F034D4F8E434C4F8E434D4F8F4343E
:10063000C4F8F43410BD00BF0040025800800051DF
:1006400067EFFEEA0000FF017047FFEC30B4EFF304
:10065000118400238022EFF3108372B682F3118895
:1006600083F31088BFF34F8F164B174AD3F8003827
:10067000118803F4807578B101311180128875B149
:10068000C2B10023BFF34F8FE4B284F31188BBB132
:10069000042030BC00F04EB851B10139EDE7002A1A
:1006A000EFD043F48073074AC2F800380123E9E72A
:1006B000002DE6D023F48073024AC2F80038E0E748
:1006C00030BC70470040025808030024EFF3118249
:1006D00000238021EFF3108372B681F3118883F336
:1006E00010880749D1F8003823F48073C1F8003826
:1006F0000021044B1980D3B283F31188FFF7A6BF02
:10070000004002580803002430B5EFF311840023A1
:100710008025EFF3108372B685F3118883F3108878
:10072000036823EA0101E3B20A43026083F31188FC
:1007300030BDFFEC82B000221C49B0F57A7F0BD8A7
:10074000002242F22A51642811D800220A2818D81F
:10075000002208BB02B070470192019B8B4202DD70
:10076000A0F57A70E9E7019B01330193F5E7019267
:10077000019B8B4201DD6438E5E7019B0133019366
:10078000F6E70192019BB3F56E7F01DB0A38DDE7E6
:10079000019B01330193F5E70192019B5E2B01DD83
:1007A0000138D6E7019B01330193F6E7AD730100F1
:1007B000BFF34F8FBFF36F8F4FF0E0230022C3F8DA
:1007C000502FD3F8142D42F40032C3F8142DBFF388
:1007D0004F8FBFF36F8F704737B50A4D0C462B68AC
:1007E0000BB91C462960019000F0F5F829680198C2
:1007F00000F088FB14B900232C682B60204603B05E
:1008000030BD00BF0C030024EFF3148343F0040356
:1008100083F314884FF0E023D3F8342F22F04042C2
:10082000C3F8342FD3F8882D42F47002C3F8882D12
:100830007047FFEC0F2810B531DDA0F110041F2C1C
:100840000ADC03F1604303F561430B60012303FA03
:1008500004F4146000201CE03F2C08D81C4C3038F5
:100860001C440C60012303FA00F01060F2E75F2CD7
:1008700004D8184C50381C440C60F3E77F2C04D883
:10088000154C70381C440C60ECE7952C02D94FF0E5
:10089000FF3010BD114C90381C440C60E2E7104B47
:1008A00004280B6003D14FF480331360D2E705288E
:1008B00002D14FF40033F8E7062802D14FF4802329
:1008C000F3E70F28E3D1074B0B600123EDE700BFEF
:1008D00004E100E008E100E00CE100E010E100E0EC
:1008E00024ED00E010E000E008B54FF0E0232049DF
:1008F0004FF0FF305B6803F00F035A1C03F13823FD
:1009000061339B0041F8040B8B42FBD14FF0E02395
:100910001849C3F8081D4FF08031C3F8181DC3F8FB
:100920001C1DC3F8201D5301134A03F1604303F556
:10093000644342F8041B9342FBD1104B0022104940
:100940000B201A6000F0B6FA00220E49032000F0D6
:10095000B1FA4FF0E022D2F81C3D23F07F4343F080
:10096000E043C2F81C3DF02383F3118862B608BD52
:1009700080E100E00000000800E400E00C03002437
:10098000090A0008D909000813B5802301AA69469D
:100990000446FFF74FFF20B90F2CDDE9003102DDDF
:1009A000196002B010BD1A6822EA01021A60F8E765
:1009B00013B5002301AA69460446FFF73BFF20B99F
:1009C0000F2CDDE9003102DD196002B010BD1A689C
:1009D0000A431A60F9E7704708B54FF0E023D3F8EF
:1009E0002C2DD3F8283DEFF3118300238022EFF361
:1009F000108372B682F3118883F31088AD21014809
:100A000000F036F908A20008CA6E012A08B508D01D
:100A1000022A0AD01AB9D422086F00F021F8002067
:100A200008BD0A6F034B1A60F9E70A6F11604A6F3D
:100A3000F8E700BF0C030024FFECC2925D7D05C502
:100A400018DF88DFCD06CD767CD30CD3D982D912BE
:100A50002C00050A0F14191E232800BFAFF30080D5
:100A600000B501B400F004F801BC00BDAFF3008094
:100A700000B5042A60DB00F0030E61F3830E7A4BAD
:100A8000D3E80EF0AFF30080AFF30080AFF3008047
:100A900011F8013B00F8013BA2F1010211F8013B02
:100AA00000F8013BA2F1010211F8013B00F8013B03
:100AB000A2F101022DE9F01F282A07DBB1E8F81F97
:100AC000A0E8F81FA2F12802282AF7DADFF89CE153
:100AD0004FEA920BDEE80BF051F8043B40F8043B80
:100AE00026E0B1E81800A0E8180021E0B1E83800DD
:100AF000A0E838001CE0B1E87800A0E8780017E032
:100B0000B1E8F800A0E8F80012E0B1E8F801A0E8C8
:100B1000F8010DE0B1E8F803A0E8F80308E0B1E857
:100B2000F807A0E8F80703E0B1E8F80FA0E8F80F2D
:100B3000BDE8F01F02F00302002A08BF00BD11F853
:100B4000013B00F8013B013A08BF00BD11F8013B31
:100B500000F8013B013A08BF00BD11F8013B00F865
:100B6000013B00BDAFF30080AFF30080AFF3008026
:100B700011F8013B00F8013BA2F1010211F8013B21
:100B800000F8013BA2F1010211F8013B00F8013B22
:100B9000A2F10102282A35DB2DE9F01FB1E8F81F88
:100BA00020F8023B4FEA134364F31F434FEA144417
:100BB00065F31F444FEA154566F31F454FEA164695
:100BC00067F31F464FEA174768F31F474FEA184875
:100BD00069F31F484FEA19496AF31F494FEA1A4A55
:100BE0006BF31F4A4FEA1B4B6CF31F4BA0E8F80F47
:100BF0004FEA1C4C20F802CBA2F12802282ACDDAB9
:100C0000BDE8F01F042A97DB51F8043B20F8023BB3
:100C10004FEA134320F8023BA2F10402BAE711F8AD
:100C2000013B00F8013BA2F1010211F8013B00F881
:100C3000013BA2F1010211F8013B00F8013BA2F1D6
:100C40000102042AFFF678AF51F8043B00F8013B9B
:100C50004FEA132320F8023B4FEA134300F8013B0D
:100C6000A2F10402EDE70000400A0008500A000863
:100C700008B501F0B7FB012000F004F8012008B529
:100C800000F000F808B500F083FB002A43D010F014
:100C9000010F034639D0013A03F8011B012A38D964
:100CA000F0B541EA01259E07ADB22BD0023A23F8F8
:100CB000025B032A18D95C0745EA054616BF141FD4
:100CC000144643F8046B224603EB040C072A13D89E
:100CD000E2086FF0070707FB02423C40032A234467
:100CE00084BF043A43F8046B012A02D9023A23F87C
:100CF000025B02B11970F0BDACEB0207083AC7E91C
:100D00000066E3E7032AD6D8F0E7012AC8D11970B4
:100D100001E0002AFBD17047704700F009B80020BD
:100D200070470021084601F00BBA04F023BDFFEC28
:100D3000014801F057BA00BF090C02007047FFECF0
:100D40003C4C01233C4D8C2204F170062B7083B582
:100D500000212046FFF799FF032318223749237704
:100D60003046374B374FC4E905330623E38303F09E
:100D7000D5FD354920463E6003F0DBFB334B01A92E
:100D80006846334E1C6002232B7001F009FADDE93E
:100D9000000103F0DFF9042333603368012B45DDE4
:100DA0003068800003F0F4F92A4B1860336804605F
:100DB0002048A17F00F008FBA3681E48DB685F6045
:100DC00001F064FC1B4800F0F1FA1A4800F01AFB2D
:100DD000A36805221A7200221F4B1A6003232B708E
:100DE00000F0C0F806F0A0FD1C4B0BB100F032FB88
:100DF0001B4B0BB107F0BBFB1A4B0BB100F080FF94
:100E000001F09CF901F082FB05F093F804230948F6
:100E10002B7000F01AFB05232B7000F039F8062325
:100E20002B7000F0AFF801F02FFCFCE733685B009B
:100E3000B2E700BF18030024B403002420A2000876
:100E4000410D000810030024C4030024CC03002437
:100E5000B0030024C0030024AC0300245514000890
:100E60006F850008011D000813B50024FFF759FF26
:100E7000054B40F67A4264210094044800F0D9F80A
:100E8000204602B010BD00BF299B00086CA20008DC
:100E900013B50024054B4FF40062FE210094044872
:100EA00000F0E0F8204602B010BD00BF690E000857
:100EB0007CA20008A52870B505460C461AD8EFF3A9
:100EC000118600238021EFF3108372B681F311881D
:100ED00083F310881CB9FFF757FD2246074C0848DA
:100EE000F6B240F8354000EBC500426086F3118849
:100EF000002070BD6FF01500FBE700BF410F000838
:100F0000E8030024A52808B50CD8094A52F8303067
:100F10005BB102EBC00252689847064B1A68064B59
:100F20001A6008BD0022054BF6E71A46FBE700BF32
:100F3000E8030024C4030024CC030024410F00086C
:100F400008B5EFF3118300238022EFF3108372B60C
:100F500082F3118883F3108836210148FFF788FE59
:100F600087A20008054B1B682BB1054A126812B90D
:100F70001A8C01321A840020704700BFC403002479
:100F80000C030024134B10B51A68C2B1124B1B6836
:100F9000ABB9EFF311848021EFF3108372B681F3C4
:100FA000118883F31088B2F92030002B09DC00236C
:100FB00013840A4B1B6853B9E4B284F311880020F0
:100FC00010BD013B9BB21384002BF5D1EFE701F07C
:100FD000B5FAF1E7C40300240C030024B80300248D
:100FE00070B586B005468C200E46CDE9043203F07C
:100FF000CFF80446D0B10021C68303910C99029129
:101000000B9901910A99DDE904320091294600F01B
:1010100033F8051E05DA204603F0AAF8284606B084
:1010200070BD2046E56800F077F9F7E76FF00B0533
:10103000F4E71FB5069C00920A46CDE9013400236F
:101040001946FFF7CDFF04B010BD1FB5079C0294F1
:10105000069CCDE9003413460A460221FFF7C0FF83
:1010600004B010BD13B5049CCDE900341346002232
:10107000FFF7EBFF02B010BD2DE9F347867F8846EE
:101080000546914631461F46DDF828A000F09CF940
:10109000041E3ADB284606F0030600F0D8F9041EC9
:1010A0000CDB87B152463946284601F0B5FA041EDA
:1010B00005DB284600F07AF9041E13DA57B12846FA
:1010C00000F0A6F921E032465146284601F0DCF94D
:1010D000041EEEDAAB6B002BF1D03146284601F04E
:1010E00047FAECE70B9B49460A4A2846009600F06F
:1010F00013F8041EE2DB0C9A4146284600F0A0F8E3
:10110000041EDBDB284600F07DF9204602B0BDE876
:10111000F08700BF3D1300082DE9F74F04460E4647
:1011200001929946EFF3118700238022EFF3108399
:1011300072B682F3118883F31088DFF8FCA0DFF821
:10114000FC80DAF800500020D8F800300135384A29
:10115000116888420DDB1068C00003F019F8344AAA
:101160000546002845D1FFB287F311886FF00B00C8
:1011700039E0012D1168B8BF01250139294053F824
:1011800021B003EB810EBBF1000F2FD1CEF8004050
:10119000FFB2E560CAF8005087F31188019BF6B2F0
:1011A0009DF8302059460320267402F0030266742D
:1011B000C4E90539E38B23F06303134304F14402CC
:1011C000E38300F083F9204684F81CB001F05EFA56
:1011D000FFF7C8FE1749204603F0ABF90423237735
:1011E000FFF7D0FE584603B0BDE8F08F013501305F
:1011F000AEE711684FF0000C0D4B490011601A6802
:10120000D8F8000002EBD272BCEB620F04DB02F0F4
:10121000AFFFC8F8005094E750F82C000CF1010C17
:101220001A68C168013A0A4045F82200E7E700BFA2
:10123000B0030024A4030024AC030024C003002452
:10124000344B2DE9F74F002914BF894699460746CC
:101250000024154649461822703003F083FB4846A7
:1012600087F8884003F076FB461C4DBB2C460234C1
:10127000384606EB840101F08DF906464FEA8408F2
:10128000002844D000EB080AA8F10808B346043D42
:10129000C0F800A0484603F05DFB0446B044494650
:1012A0000134504603F032FB5444D8451BD1002092
:1012B0004AF8040CBA68D268566003B0BDE8F08FF3
:1012C00040F2011855F824000028D0D003F042FB6A
:1012D00001307B6B06449E4216D201344445F1D165
:1012E0006FF00600E9E74BF8044F55F8041F084675
:1012F000019103F02FFB81460199204609F1010974
:1013000003F004FB4C44D0E76FF05A00D5E76FF0D0
:101310000B00D2E79FA2000810B5EFF31184002361
:101320008022EFF3108372B682F3118883F3108862
:1013300001F054F9E4B284F3118810BD38B5134BB1
:101340001C68E38B03F00303022B02D0204600F05D
:10135000ABFBA368012040F20111DB685A6852F828
:1013600020304BB9E38BA56903F00303022B08D1AE
:101370001146A847FFF786FC01308842EFD10120D3
:10138000F8E70146284603F0EDF8F8E7C403002427
:101390000446002208B5E4B2034B2146186800F069
:1013A000ABFB204601F096F8C403002410B51821C9
:1013B000044601F0EFF820B1A368DB680360002069
:1013C00010BD6FF00B00FBE770B506464FF48E7052
:1013D00002F0DEFE044690B100F0B3FB051E04DA15
:1013E000204602F0C5FE284670BD04F12400B4601A
:1013F00006F0CBFA2046002503F0C1F9F3E76FF0C1
:101400000B05F0E7D0E902321A6001225A727047E8
:1014100038B58468054634B1637A012B04D9013BA1
:1014200063720023AB6038BD204600F09BFB204672
:1014300000F032F904F1240006F0ABFA204603F084
:10144000BDF9204602F094FEEBE700F098BB00F0F7
:1014500096BBFFEC0023044A044942F833100133E1
:10146000A62BFAD1FFF740BAE8030024410F000889
:1014700038B5044618B3C068B0B1EFF31182002349
:101480008025EFF3108372B685F3118883F31088FB
:101490000C4B00251B68013B03400B48006840F8DB
:1014A0002350D3B283F31188A36B13B1204601F00C
:1014B0005FF82046FFF7ACFF204602F059FE0020FF
:1014C00038BD00BFB0030024C0030024F8B51746A0
:1014D000194B06460C461D68FFF744FD0FB16B6CB7
:1014E0003B60D4B1EFF3118300228021EFF310822F
:1014F00072B681F3118882F31088022E11D0032E68
:1015000014D0012E14D16A6C21680A4300246A6445
:10151000DBB283F3118800F011F8FFF733FD2046AA
:10152000F8BD21686A6C22EA0102EFE72268EDE764
:101530006FF01504ECE700BFC4030024184B30B56E
:101540001D6885B0FFF70EFD6C6C284600F0F4FCBA
:10155000E4430440039424B9FFF714FD204605B08A
:1015600030BD03A800F070F8431C014610D0019074
:1015700003A803F041F80199284600F013F8044647
:1015800030B1011D284600F09BF8204600F02EF8EF
:10159000039B002BE5D1FFF7F5FC0120DFE700BF3F
:1015A000C403002438B58368EFF31185002280203E
:1015B000EFF3108272B680F3118882F31088002056
:1015C0009C6974B122798A4206D103F1180130B9BD
:1015D000084602F089FF04E020462468F1E702F0A3
:1015E0008DFFEDB285F31188204638BD10B5037B21
:1015F00083B9EFF311848022EFF3108372B682F384
:10160000118883F310880E4902F04EFFE4B284F390
:10161000118810BD022B0CD1EFF31184002380221E
:10162000EFF3108372B682F3118883F310880549B3
:10163000EAE7012BEDD1BDE8104002F099BD00BFF3
:10164000380900243009002438B505460124214614
:10165000284602F0E2FF20B90134202CF7D14FF0E8
:10166000FF34204638BD38B5044600F14C05284605
:1016700002F03AFF50B904F15405284602F034FF55
:1016800038B94FF0FF32C4E9112038BD00F0AEFC8C
:10169000EDE700F0ABFCF0E738B5044600F11005CB
:1016A000284602F021FF28B91834204602F01CFF1A
:1016B00018B938BD00F082FBF2E7FFF797FFF4E7B7
:1016C0002DE9F0410D460978044629B3443002F073
:1016D000A4FF012807467ED1EFF311860023802264
:1016E000EFF3108372B682F3118883F31088237F9F
:1016F000F6B2062B12D1297804F1480002F08DFFD2
:1017000060B12B682046E3656B6823660023A36401
:1017100000F064FF86F311880026B4E086F3118898
:10172000A4682978EFF3118200238020EFF310835F
:1017300072B680F3118883F31088A36913B1187906
:10174000884208D1D2B282F3118833B12A685A6034
:101750006A689A60E0E71B68F0E7564B1B68FBB1CC
:10176000554802F0C1FE20B9544802F0BDFE0028E1
:10177000D2D02B6843606B688360EFF31185002340
:101780008022EFF3108372B682F3118883F31088FE
:1017900004F11801EDB202F087FE85F31188BBE772
:1017A000EFF3118600238022EFF3108372B682F3E9
:1017B000118883F310884048F6B202F095FE86F354
:1017C00011880028D5D1102002F0DAFC0028A3D01F
:1017D00001230373CDE7FFF7C5FB2978A06800F06C
:1017E000C7FB064600282CD0406848B300F0D2FB67
:1017F00000284BD073684360B2688260F3689B0630
:1018000004D4297801238B40134383602B68C36081
:101810006B680361EFF3118600238022EFF31083DE
:1018200072B682F3118883F3108804F14C01F6B28A
:1018300002F03AFE2249204600F064FF86F3118848
:101840000026FFF79FFBEFF3118800238022EFF3C0
:10185000108372B682F3118883F31088237F062BDE
:1018600008D12B682046E3656B6823660023A364D8
:1018700000F0B4FE5FFA88F888F31188002F08D0D2
:1018800001DA6FF015063046BDE8F0816FF00B0607
:10189000D7E7237F052B03D10421204600F012FA5D
:1018A000237F072BEFD12B78082BECD1204600F0BB
:1018B000C6F9E8E70C0300243809002430090024A5
:1018C000E518000807B5019100F072F928B10199F7
:1018D00003B05DF804EBFFF7F3BE6FF0020003B056
:1018E0005DF804FB2DE9F04F87B0044602F0D2FD0D
:1018F00003684FF0800904F14C0A019304F1540885
:10190000B4F922300293EFF31183039FEFF31087B2
:1019100072B689F3118887F31088E28B0397DFB2E0
:1019200012F400720AD087F3118802F0B3FD019B14
:101930000360029B638407B0BDE8F08F50460592B8
:1019400002F0D2FD059A06460028ECD0E18B059204
:1019500041F40071E183414602F0A6FDD4F844B0A1
:10196000B5684BEA0505656487F31188736806F16D
:101970000C01059A307B9847EFF31183049A059385
:10198000EFF3108272B689F3118882F31088049203
:101990004146E28B304622F40072E283626C55408D
:1019A00082EA0B02154085EA0B05656402F086FDAC
:1019B000059BDBB283F31188FFF7C0FD304600F0D2
:1019C00015FBA0E77047FFEC054B10B51C68FFF74F
:1019D000C9FA204600F012F9BDE81040FFF7D2BA6C
:1019E000C403002408B5024B01201B68FFF74AF925
:1019F000C403002408B58068203002F00EFE0028E1
:101A0000D4BF0020012008BD0023084A12F833107B
:101A1000814206D102EBC3035878C04300F00100B5
:101A2000704701330B2BF1D101207047A8A20008A9
:101A300038B585685AB100231A4A12F8330081423A
:101A400019D102EBC30305F120005C68BCB9EFF3C8
:101A5000118400238022EFF3108372B682F3118881
:101A600083F3108805F12000E4B202F0C5FD84F391
:101A70001188002413E001330B2BDED1E7E7EFF3ED
:101A8000118500238022EFF3108372B682F3118850
:101A900083F3108802F0A3FDEDB285F31188204690
:101AA00038BD00BFA8A200082DE9F04386680024D5
:101AB000104D4FF002092036A04685B0304602F0A6
:101AC000A8FD6B6873B12F7801A90022CDF80C90A6
:101AD0003846CDE90138012300F086F93946304611
:101AE00002F07DFD013408350B2CEAD1002005B051
:101AF000BDE8F083A8A2000810B5C38B04461B05FF
:101B000015D43AB9806828B1437A012B02D12C3020
:101B100002F09FFD204600F00BF82046FFF778FC0E
:101B20002046FFF7A0FDE38B43F40063E38310BD81
:101B300010B5044600F020F82046BDE8104000F043
:101B4000A8B838B50546382002F022FB044630B16B
:101B50000122002102F011FD0020EC6038BD6FF081
:101B60000B00FBE710B5C468204600F07AF8204669
:101B7000BDE8104002F0FCBA243000F065BA002342
:101B800007B5024601900121184606F0CBFB019AE9
:101B900000230621012006F0C5FB0023019A06213F
:101BA000022006F0BFFB002003B05DF804FBFFEC51
:101BB0000346EFF3118100228020EFF3108272B60A
:101BC00080F3118882F310880A4A106860B1002BF4
:101BD0000EDB094A1268013A1A4050F8220018B187
:101BE000C2689A4218BF0020CBB283F311887047B5
:101BF0000020F9E7C0030024B003002438B50446F0
:101C0000EFF3118500238022EFF3108372B682F385
:101C1000118883F31088037F043B032B0BD800F05B
:101C20005BFA042307212046638400F041FAEDB2F9
:101C300085F3118838BD072100F0FAFBF7E710B5EE
:101C4000EFF3118400238022EFF3108372B682F346
:101C5000118883F3108800F0C1FCE4B284F311888A
:101C600010BD30B103881B0401D401230380002080
:101C700070476FF01500704710B5FFF7F2FF041EB4
:101C800005DA644202F006FC04604FF0FF3420469F
:101C900010BDEFF3118200238021EFF3108372B6A1
:101CA00081F3118883F31088037F052B06D1016C23
:101CB0000B8801331BB20B8000230364D3B283F380
:101CC0001188704738B5EFF3118400228025EFF3B7
:101CD000108272B685F3118882F31088027F052A7C
:101CE00009D1056C2A88013212B22A80002241846F
:101CF000026400F073FCE4B284F3118838BDFFEC99
:101D0000F8B50024284B294E6020C3E90044284B35
:101D1000C3E90044274BC3E90044274BC6E900440C
:101D2000C3E9004402F02CFA054648B100F160070F
:101D30002C7528461835314602F0B6FBAF42F7D174
:101D4000602002F01DFA044658B100F16005022738
:101D5000174E277520461834314602F0A5FBA542E0
:101D6000F7D1402002F00CFA044658B100F14005CA
:101D70000027104E277320461034314602F094FBA2
:101D8000A542F7D1402002F0FBF9044658B100F11A
:101D900040050227084E277320461034314602F0D2
:101DA00083FBA542F7D1F8BD1809002420090024BF
:101DB00028090024380900243009002410B5EFF365
:101DC000118400238022EFF3108372B682F311880E
:101DD00083F310880349E4B202F066FB84F31188B0
:101DE00010BD00BF180900242DE9F74F1546504AD1
:101DF0001F280746D2F800B00E46DBF808A004D929
:101E00006FF0150003B0BDE8F08F41B93946504678
:101E100000F0AEF8044665B916BB0020F2E7002BCF
:101E2000F4D10B68012BF1D0FFF7EEFD0028EDD1C6
:101E3000E6E739465846FFF7DDFD30B100230122C1
:101E4000C5E900230223AB60E6E72CB163682B6091
:101E5000A3686B60E368F6E7C5E90044AC60DBE7C4
:101E60003568012D11D12A4639465846FFF7E0FD65
:101E7000054685B9002CD0D020460AF1100102F0A9
:101E80001DFB2046FFF79AFFC7E700223946584658
:101E9000FFF7CEFDEDE7D4B9EFF311834FF0800BE0
:101EA00000930022EFF3108272B68BF3118882F355
:101EB0001088204802F018FB009B0446DBB283F335
:101EC000118850B10AF11001077402F0EDFA656053
:101ED0007368A360B368E3609FE7502002F050F995
:101EE00014490446C0B1EFF31183EFF3108972B6C1
:101EF0008BF3118889F3108800F1500220461434C6
:101F0000CDE9002302F0D0FA009A0A499442019BDD
:101F1000F4D1DBB283F31188EFF311830093EFF375
:101F2000108872B68BF3118888F310880846C1E7D1
:101F3000C403002418090024002337B582680193E4
:101F4000EFF311858021EFF3108372B681F31188CE
:101F500083F3108894692CB9EDB285F31188019848
:101F600003B030BD217901A802F039FB2468F2E703
:101F700038B50D46044640B1FEF7F4FF246914B1AC
:101F8000237CAB4203D1FEF7FDFF204638BD246819
:101F9000F5E7FFEC124B10B51B6843B1114802F096
:101FA000A3FAE0B91048BDE8104002F09DBAEFF383
:101FB000118400238022EFF3108372B682F311881C
:101FC00083F310880748E4B202F08EFA84F3118894
:101FD00028B9182002F0D4F808B10123037510BD08
:101FE0000C030024200900242809002410B5037DD7
:101FF00083B9EFF311848022EFF3108372B682F37A
:10200000118883F310880E4902F04EFAE4B284F38B
:10201000118810BD022B0CD1EFF311840023802214
:10202000EFF3108372B682F3118883F310880549A9
:10203000EAE7012BEDD1BDE8104002F099B800BFEE
:10204000200900242809002438B50446EFF311853F
:1020500000238022EFF3108372B682F3118883F39A
:102060001088F0B14368E3B1104B00201B68DBB16E
:10207000A3420FD123681BB19A68A1680A449A60F1
:1020800058B10A4902F03AFA00206060EDB285F3D7
:10209000118838BD18461B68E9E7044802F024FAA5
:1020A000F2E76FF01500F1E71B68FFDE400900243E
:1020B00038B50C46074B054653F8311003EBC40303
:1020C0001B79DB0703D500F015F82C7738BD02F03B
:1020D00025FAFAE72CA20008054B027F10B553F849
:1020E0003210044602F030FA0023237710BD00BFFF
:1020F0002CA2000810B50B68027CB3B11C7C944282
:1021000006D25A6862B9C0E900325860086013E02C
:102110001B68F2E7C0E900321060486000200CE064
:10212000C0E9003210605860F8E74A68002AF1D12F
:10213000C0E90033C1E90000012010BD7047FFEC89
:1021400037B5124D2C682CB1114802F06FFA0120FE
:1021500003B030BD0F4802F069FA40F2011369463E
:102160004FF60C70ADF800308DF80240019503F089
:10217000A7FE011E04DA4942074802F057FAE6E7D3
:10218000064802F053FA2046E2E700BF480900245F
:1021900000A3000823A300084EA300088DA3000895
:1021A000044B1B680360C3F1105303F500230B605D
:1021B000704700BF04A2000802064FEA10130CD4B7
:1021C00003F00F03064A52F8232032B100F00F004B
:1021D000012319B103FA00F0906170471030F9E75C
:1021E000C8A300082DE9F04705090446C0F303170A
:1021F00015F0080540F0D2806A4B53F82760002E96
:1022000000F0CC8000F4402300F00F08B3F5002F5D
:1022100000F0B180B3F5402F00F0AF80B3F5802F10
:1022200040F0AD80C0F30021FFF7C6FF0121EFF3BE
:10223000118200238020EFF3108372B680F311889F
:1022400083F31088022940F09C8014F4704FC4F38B
:10225000033017D023074FF00F094BBFA8F1080335
:1022600043464FF0240C4FF0200C9B005CF806E036
:1022700009FA03F900FA03F32EEA090E43EA0E0302
:102280004CF806304FEA48090323D6F800E003294A
:1022900003FA09F32EEA030E6FEA030C01FA09F3BD
:1022A00043EA0E0333606ED004F44033B3F5803F4D
:1022B0006BD0B3F5003F0CBF02230023D6F80CE02F
:1022C00003FA09F30CEA0E0E43EA0E03F36080B939
:1022D00023074FF00F0A4BBFA8F108034346242001
:1022E00020209B0050F806E00AFA03F32EEA0303CD
:1022F000835101F1FF3EBEF1010F0DD804F440659A
:10230000B5F5006F43D0B5F5406F42D0A5F5806AB2
:10231000DAF1000545EB0A05B36805FA09F5012075
:10232000BEF1010F0CEA030C00FA08F045EA0C05B7
:10233000B56073682FD8A5052DD5034301297360B7
:1023400013D0E30511D504F00C044FEA88030F20E5
:1023500004F1B04403F00C03D4F8081498409F40F3
:1023600021EA00010F43C4F80874D2B282F3118845
:102370000020BDE8F087022159E7032157E72946ED
:1023800055E700207EE7002398E7012396E7022522
:10239000C2E70325C0E723EA0003CFE76FF015008B
:1023A000E7E700BFC8A30008C0B2FFF71BBFFFEC00
:1023B00002064FEA101310D403F00F03084A52F834
:1023C000233053B11A6900F00F00012303FA00F023
:1023D000104214BF1846002070470020704700BF0D
:1023E000C8A3000808B504F01BFB04F019FB04F0B7
:1023F00017FB0D4B186818B90C4B1B681B6873B999
:10240000002007F075FCEFF3118300238022EFF327
:10241000108372B682F3118883F31088FEE7BDE85B
:10242000084007F065BC00BF0C030024C40300246F
:10243000F7B50646114D01912F6806F0CFF80199C6
:1024400004463046FFF734FE0D4B1B681BB106F007
:10245000D9F82043C4B234B10A4B1A682AB1FA66DB
:102460002A68D26E1A6003B0F0BD2B6807F16C00C9
:10247000D96E03B0BDE8F04000F0A7B8C403002453
:10248000B80300240C03002438B5836B0C460546C2
:1024900011469BB9204601F073FEA863A86BB0B14A
:1024A0000119E86321F00701091A696300F0CCF80B
:1024B000EB8B002043F48053EB8338BD436BA34286
:1024C000ECD000F055F8AB6B002BE7D1E2E74FF012
:1024D000FF30F2E7094C08B52368EFF311830023BE
:1024E0008022EFF3108372B682F3118883F3108891
:1024F00006F0E0F92368D86E00F002F8C403002467
:102500000146012000B500DF5DF804FB08B5084A6C
:1025100080230849013B42F8041BFBD1064B0BB159
:10252000AFF3008000F072FBBDE8084001F0BABCD8
:1025300008010024EFBEADDE0000000038B50A4CF3
:10254000256806F05FF830B1084B1A6822B1EA66D8
:102550002268D26E1A6038BD236805F16C00D96E0E
:10256000BDE8384000F031B8C40300240C03002457
:1025700010B50446806B20B1E38BDB0401D501F07C
:10258000F7FDE38B23F48053E3830023C4E90E3388
:10259000636310BD38B50731836B044621F007052E
:1025A0007BB1436BAB420ED9C36B2A460021184660
:1025B000FEF76BFBE26B03462A44E263626B521B3D
:1025C0006263184638BD0023FBE703460A46022033
:1025D000194600B500DF5DF804FBFFEC70B5054659
:1025E0000B4C2668FFF778FD284605F0D3FF30B185
:1025F000084B1A6822B1F2662268D26E1A6070BD6A
:10260000236806F16C00D96EBDE87040FFF7DDBFAE
:10261000C40300240C03002470B5836B06460D46EA
:10262000144623B1C18B01F00301FFF7A1FF2C4435
:10263000284624F00704611BC6E90E55716300F0BB
:1026400003F8002070BDFFEC90B5C41D83B024F0EA
:10265000070400AF224679B9391DB94228BF39466F
:1026600021F00703191A074B21F0030121448A4284
:1026700004D10C37BD4690BD0144F1E742F8043B5C
:10268000F5E700BFEFBEADDE7047FFEC38B50025C3
:10269000C168044645668566C56661B9184B186809
:1026A00040F2EE23A0F2EE206363C4E90E00BDE821
:1026B0003840FFF7C9BF406BD4222946A0F1D403AC
:1026C000E06B1844E066FEF7E0FAE36B616BE26EE4
:1026D0000B4413606369E26E23F00103C2F8843097
:1026E0004FF08072E36EC3F888206FF01602E36E3D
:1026F0009A62F022E36EC3F8CC50E36E5A6038BDA4
:1027000004A2000810B5436E044603BB1B4B1A68B5
:1027100082421DD11A4C236813B9BDE81040084706
:10272000A3F1D400C2E919132060D4221946FEF7A0
:1027300097F9236803F1D4021A60124A2368C3F898
:10274000842080225A604FF08072C3F8882010BD28
:102750004166D422C16E8166A1F1D400E066FEF725
:102760007FF9E36E03F1D4021A60064AE36EC3F800
:1027700084208022E36E5A60E36EE4E7C403002401
:102780000C0300248927000838B50D4B1C68F02382
:10279000A56E83F3118862B6636E20469847EFF307
:1027A000118300238022EFF3108372B682F3118825
:1027B00083F31088002328466366FFF7A1FE00BF5D
:1027C000C403002410B5846E01F4D873A0F850102F
:1027D00001F00101226822F4D87213432360826E53
:1027E000936823F001031943916010BD10B5EFF316
:1027F000118400238022EFF3108372B682F31188D4
:1028000083F31088FFF7DEFFE4B284F3118810BD74
:10281000F0B5C36BEFF3118400228021EFF3108237
:1028200072B681F3118882F31088996E0A6822F0DB
:10283000010002F001050860DE6D5F6E710801EBBA
:102840004701B1FBF6F164293AD9013122F4004085
:10285000490820F001009A6E10609A6ED16093F8DA
:102860005610234A012902EA000233D142F4C06221
:1028700093F85700092802D0082830D179B342F4E0
:102880008052996E0A60986E93F85860416821F4FE
:1028900040510EB141F400514160986E93F8596077
:1028A000816821F440711EB15E6F0EB141F48071F8
:1028B00081602A439B6EE4B21A6084F31188F0BDF4
:1028C000C1F3420221F00F0140F400400904090C59
:1028D0001143C0E7022908BF42F48062C8E7B3F899
:1028E0005610B1F5E06F08BF42F08052C9E700BF53
:1028F000FEE9FFEFC36B9A6E506AB3F8522040EACC
:102900000242C0B20A600022A3F85220704710B5FC
:10291000C06BEFF3118400238022EFF3108372B6B3
:1029200082F3118883F31088B0F8503039B143F046
:102930002001E4B2FFF75AFF84F3118810BD23F49D
:10294000907121F00101F4E7C36B9B6ED869C0F36D
:1029500040107047C36B9B6E9962704710B5C06B97
:10296000EFF3118400238022EFF3108372B682F319
:10297000118883F31088B0F8503041B143EA020166
:1029800089B2E4B2FFF732FF84F3118810BD23F05F
:102990008001F5E7C36B9B6ED869C0F3C010704728
:1029A00038B583685D6940F201139942EC6B05D03C
:1029B000B1F5817F29D06FF0180038BD002A4CD0C6
:1029C00094F85630FBB1012B4FF480710CBF4FF4DB
:1029D000007300230B4394F858101046002914BFCD
:1029E000402100210B4394F85910002914BF4FF0E7
:1029F000004100210B4343F030039360E16D01F08F
:102A0000C3FF0020D9E71946E4E732B3936803F027
:102A10003001302921D1002B01DA616FE9B113F4C3
:102A2000807117D013F4007F14BF0123022384F8B0
:102A3000563093681046C3F3801384F85830936877
:102A4000DB0F84F8593001F0BFFFE0652846FFF73F
:102A5000DFFED6E784F85610EBE76FF01500ACE721
:102A600010B5C46B94F86000FDF78EFF002294F857
:102A700060001146BDE81040FEF71CBA38B5C56BC2
:102A800006492A4695F86000FEF714FA044618B97C
:102A900095F86000FDF78CFF204638BDA12A00089C
:102AA00010B51446926ED3699BB29806A4F85230C2
:102AB00013D5B4F8501089060FD5204603F05BFFFC
:102AC000B4F852301A0606D5B4F850301B0602D5B9
:102AD000204603F01AFF002010BD13F00E0FEFD0B8
:102AE0000E231362ECE710B5C36B144693F859300C
:102AF0002BB1836B9B6922B100219847234618466E
:102B000010BD0121F9E7FFEC38B5C46B0021054683
:102B1000A36E1960C36B9A6E1D4B9A4203D11022AB
:102B20001C48FDF7F1FDE06EFFF75CFB206FFFF73F
:102B300059FB606F08B1FFF755FBA26E94F858106F
:102B4000536823F47D5309B143F40053536028467E
:102B5000A26E114B11680B401360A26E94F85510D1
:102B6000936823F4E06323F0010343EA4163936035
:102B7000FFF74EFEA26E0020136843F0005343F0AF
:102B80000D0313600123A4F8500084F8543038BDBD
:102B900000100140F044025803BEFF33F8B5002690
:102BA000C46B054684F85460EFF3118780223346E6
:102BB000EFF3108372B682F3118883F310883146E5
:102BC0002046FFF7FFFDFFB287F31188EB6B9A6E8B
:102BD0000C4B9A4204D1324610210B48FDF794FD6C
:102BE000A26E136823F00D031360E06EFFF7DCFBA9
:102BF000206FFFF7D9FB606F18B1BDE8F840FFF711
:102C0000D3BBF8BD00100140F04402587FB50B491A
:102C1000684601F07BFE0023094D1C4655F8041B55
:102C200039B15E1C303368468DF8093003F084FCFE
:102C300033460134082CF1D104B070BDE8A300087C
:102C4000F4A30008704738B50A460169044629B163
:102C50004B69036103B9436100234B61637E207EAE
:102C6000C3F3C00520B9E068007C60F3C30363765A
:102C7000CB6820464A819847637E65F3C303637639
:102C800038BD37B50446C0680A4680B10368B4F859
:102C90005E10009121469D6804F11D03A84700289D
:102CA00003DA237C43F00103237403B030BD6FF0DB
:102CB0000400F6E7F0B5047E44B313466401154FF3
:102CC000E5592E0415D4AE03134E48BF45F0806578
:102CD0002E40334343EA814301F04F0143F08053D8
:102CE00043F40043E351437EC28023F04F03194372
:102CF0004176037E0020094903F110020123D1F837
:102D00001C4893402343C1F81C38F0BD214623469C
:102D1000D4E700BF000B084000F8F3FF00000840B4
:102D2000E0B590F818C0144E4FEA4C17BD592B046B
:102D300017D4AB03114B48BF45F080652B401343BC
:102D400043EA814301F04F0143EA8C5343F080533F
:102D500043F40043BB51437EC28023F04F03194329
:102D60004176007E0123064A83400020D2F81C18D9
:102D70000B43C2F81C38E0BD0009084000F833FCE2
:102D800000000840437E8A88DB06C97801F0030111
:102D900001D5FFF7C5BFFFF78DBFFFEC417E027E77
:102DA000CB064FEA42124CBF084B094B890713442C
:102DB0001A6822F4001248BF42F080521A60437E23
:102DC0006FF3C30343760020704700BF000908403B
:102DD000000B084001F07F01F0B5EFF311840023F0
:102DE0008025EFF3108372B685F3118883F3108882
:102DF0008618F57CC9B1062922D8012303FA01F10E
:102E00002940D1B101239C460CFA03F73942BE4652
:102E100010D025EA0E05E4B2F57484F311881C2164
:102E20004B4322B160331844F0BD2946E9E703F56E
:102E30009273F8E70133072BE6D1E4B284F31188EB
:102E40000020F1E710B5C0B1B9B1EFF31182002352
:102E50008024EFF3108372B684F3118883F3108813
:102E60004B7E097EC3F30013184401238B40C17CC1
:102E70000B43C374D3B283F3118810BD024BD3F854
:102E80000808C0F30D20704700000840037C61F380
:102E90004103037400207047EFF311820023802068
:102EA000EFF3108372B680F3118883F3108808481B
:102EB000D0F8043841B123F00203C0F80438D3B28B
:102EC00083F311880020704743F00203F5E700BF49
:102ED00000000840084601F04BB910B5182001F079
:102EE0004FF9044618B118220021FDF7CEFE204606
:102EF00010BDFFEC70B5EFF3118600238022EFF3D5
:102F0000108372B682F3118883F31088037CDA068B
:102F100011D50B4CD4F80838DB070CD5D4F804587D
:102F2000052045F0010325F00105C4F8043801F03F
:102F3000F9F8C4F80458F6B286F31188002070BD81
:102F40000000084070B54B7E05460C465B070CD46C
:102F500022695AB9237E1A485B01195841F0006171
:102F60001950637E62F38203637670BDD18819B90C
:102F70002046FFF768FEEBE7E388124E5A1E114425
:102F8000227EB1FBF3F152014B43905943EAC14316
:102F90000B4900F0604003439351237E5B015A5874
:102FA00042F004425A50637E43F004036376237E6A
:102FB000002BDAD16B7C062262F307136B74D4E723
:102FC000000B0840100B0840002882B006DD0023EB
:102FD000034904330A6898420192FADC02B0704750
:102FE0000010084030B503460B4C1A1D1B1A9942BD
:102FF00000DC30BD2368C3F3072502F8043C02F867
:10300000035CC3F30745C3F3076302F8025C02F8ED
:10301000013C1346E9E700BF00100840054B064A93
:10302000C3F8102BD3F8002B42F00442C3F8002B56
:10303000704700BF00000840180008601023054AD0
:103040001361054B1169C90601D5013BFAD1032073
:10305000FDF770BB00000840400D030040F0200069
:10306000054A064B10611169890601D5013BFAD169
:103070000320FDF75FBB00BF00000840400D0300C8
:1030800038B5036904460D4643B1437EDB0606D5D9
:10309000007E8001FFF7E2FF23691BB938BDFFF70F
:1030A000CDFFF9E729462046FFF7CDFDF4E710B53F
:1030B000EFF3118400238022EFF3108372B682F3C2
:1030C000118883F310886FF06D01E4B2FFF7D8FF29
:1030D00084F31188002010BD70B5437E0446DE06DF
:1030E0003CD5037E3E495B015B581D0434D5EFF3AC
:1030F000118500238022EFF3108372B682F31188CA
:1031000083F31088027E5201535823F4004343F0A6
:1031100090435350334A037E590102EB431318681E
:103120008007FCD58B58EDB243F002038B50207E14
:103130008001FFF793FF207E2B490122D1F81C3834
:103140008240204623EA0203C1F81C386FF06D016B
:10315000FFF796FF85F31188002070BDEFF311860D
:1031600000238022EFF3108372B682F3118883F379
:1031700010881D4DD5F8043843F40073C5F80438A1
:10318000D5F804381B07FBD5227E0A201749F6B272
:103190005201535823F4004343F090435350FDF73A
:1031A000C9FA237E124A02215B0120469950D5F8C4
:1031B000043843F48063C5F80438227ED5F81C38FF
:1031C00002F1100101228A406FF06D0123EA02032F
:1031D000C5F81C38FFF754FF86F31188BCE700BF21
:1031E000000908400809084000000840000B08409A
:1031F000080B0840F0B5057E1F4F6D01EB5903F039
:10320000004392B3C688541E3444B4FBF6F4467EA1
:10321000134306F0030643EAC443012E174E08BFCA
:1032200043EA4473EB51457E047E05F003056401D7
:10323000012DA35908D1124DD5F80858ED0554BFFA
:1032400043F0805343F0005323F08043033243F0B4
:1032500004439210A351037E00201B0303F180431B
:1032600003F50123824202DCF0BD0124CFE751F8CF
:10327000204001301C60F5E71009084000090840B3
:103280000000084010B504466030FFF7B3FF042289
:10329000637C62F307136374BDE81040FFF7BEBEA2
:1032A00000221146FFF7EEBFF8B50E6907460C463F
:1032B0005EB90B7E30495B015A5842F000625A50A9
:1032C000637E66F382036376F8BDF3881BB94B7E99
:1032D00043F040034B763289F588AA4208D3637ED7
:1032E000590605D420460021BDE8F840FFF7ABBCE5
:1032F000637EAD1A6FF38613002D63760ADDE388D3
:10330000AB4207DC18D13379DB0703D5637E43F08A
:1033100040036376217E194B4A01D258EB1C92B2CE
:10332000B2EBA30F0ADA164A0123D2F834088B4015
:103330000343C2F83438C7E71D46EBE733892A4612
:10334000316820461944FFF755FF637E43F00403BC
:103350006376237E23B97B7C052262F307137B749B
:103360003289F3881544ADB2AB423581ACD8637E67
:103370005A06A9D4B6E700BF00090840180908405A
:10338000000008401A4B024670B5C0688B60EFF32E
:10339000118500238024EFF3108372B684F3118823
:1033A00083F31088537E13F008031DD114694B6119
:1033B0003CB9537E13F00406C2E9041109D020463B
:1033C00003E05069416118465161EDB285F31188FF
:1033D00070BD13F01004114603D0FFF765FF3046AF
:1033E000F3E7FFF7AFFDEAE76FF00F00EDE700BF8F
:1033F000000089FF344A00202DE9F047D2F8043854
:10340000324C23F00103C2F80438FFF727FEE068CE
:1034100018B103682146DB689847FE232C4E2D4FD8
:1034200000254FF0FF0A4FF01C09E374237509FBD8
:1034300005483046C7F800A06FF06D01C7F800A23C
:103440000135FFF71DFE98F8793006F1C4006FF0E2
:103450006D0123F04C0320371C3688F87930FFF7D4
:103460000FFE98F83D31072D23F04C0388F83D31CD
:10347000DDD1154B4FF0FF3200211548C3F8182855
:103480004FF00112C3F81C280B22C3F81428C3F80C
:103490001028D3F8002822F4FE62C3F80028402246
:1034A000238A23F4706323F004032382022323720C
:1034B000FFF736FC402200210748FFF7FBFBBDE881
:1034C000F047FFF7ABBD00BF00000840D00C002460
:1034D000300D002408090840F40D002438B5124DC1
:1034E0000446D5F8043843F40073C5F80438D5F819
:1034F00004381B07FBD5227E0A200C495201535881
:1035000043F0804343F400135350FDF713F9D5F80B
:103510000438002043F48063C5F80438637E43F028
:103520000803637638BD00BF00000840000B084068
:10353000427E0346D20601D4FFF7D0BF027E064882
:103540005201115841F40011115000205A7E42F0EE
:1035500008025A76704700BF0009084010B5EFF323
:10356000118400238022EFF3108372B682F3118856
:1035700083F3108829B1FFF711FCE4B284F31188BA
:1035800010BDFFF7D5FFF8E72DE9F041437C044675
:1035900003F0F003202B40F0828000F592756FF06D
:1035A00046012846FFF76CFD6FF0460104F160000C
:1035B000FFF766FD94F83D316FF3C30384F83D31A6
:1035C00094F879306FF3C30384F87930238A23F0B9
:1035D00001031B051B0D43F440532382637D13F04D
:1035E000600F05D004F115012046FFF74AFB39E0D2
:1035F000B4F81770B4F81910B4F81B200FFA87FE4E
:1036000094F816C008B216B2BCF10C0F26D80FF20F
:10361000080858F82CF000BF4D360008073700089E
:103620005D3600085F3700085D360008FD3700088A
:103630004138000841380008493800086738000858
:10364000E5350008E535000865360008207C4607AA
:1036500004D5022A02D11E0600D517B3237C43F0FD
:1036600001032374237CDB0716D594F878302846B1
:103670008C495B015A5842F400125A5094F8793040
:1036800043F0080384F87930FFF728FF237C43F0E8
:1036900001032374FFF7C2FC0023A4F85E30BDE8E9
:1036A000F08103F01F03012B2AD0022B0CD0002B3A
:1036B000D4D10029D2D1C0F30013C0F34000A177C8
:1036C00040EA4300607715E001F07F03062BC5D880
:1036D000C3EBC3030F064FF002024FEA83034CBF54
:1036E000603303F5927323445B7EC3F3C0036377B7
:1036F0000023A37704F11D012046FFF7C3FDB1E7C6
:103700006777A777F6E7207C4607A7D5002AA5D1DB
:1037100003F01F03022B17D1002F7FF463AF01F0DA
:103720007F0006283FF65EAFC0EBC0000E064FEAF2
:1037300080004CBF603000F592702044FFF72EFBF4
:103740002046FFF7ADFD8DE7002B7FF44BAF012F37
:103750007FF448AF034662F304132374F0E7267C3A
:1037600070077FF57BAF002A7FF478AF03F01F036B
:10377000022B12D1002F3DD101F07F00062839D84D
:10378000C0EBC0000E064FEA80004CBF603000F571
:1037900092702044FFF7CCFED2E75BBB012F03D130
:1037A00046F010062674CBE7022F23D1CBB20BBB19
:1037B000090AA37C0139042914D8DFE801F0030BBE
:1037C0000D0F1100012262F30303A374237C43F065
:1037D0002003C2E70222F6E70322F4E70422F2E71D
:1037E0000522F0E76FF30303A374237C43F0010386
:1037F0002374EBE731077FF531AFF3E6DA067FF4A8
:103800002DAF50EA06037FF429AF7F2F3FF626AF96
:10381000637C03F00F03022B3FF420AF224AE17DCB
:10382000D2F8003823F4FE6343EA0113C2F80038EB
:103830001E4B228A134009B143F4827323827FE72F
:10384000DB067FF40BAFCDE6217C4F077FF506AF9B
:10385000DE067FF403AF5EEA00037FF4FFAE012AC9
:103860007FF4FCAEBEE6227C51077FF5F7AEDA06A8
:103870007FF4F4AE50EA06037FF4F0AE04F11501D4
:103880002046FFF7FEF900287FF4ECAE218AFFB254
:10389000074A0A401FB142F402722282E2E642F471
:1038A0008072FAE70009084000000840FBF0FFFFC3
:1038B000F7F0FFFF2DE9F04F85B0DFF8B0B2DBF88D
:1038C0001440DBF8182042F4403343F440732340A3
:1038D000144023F0E96323F4E02323F47D7323F001
:1038E0000103CBF8143000F0AB8025030FD5DBF8D3
:1038F0001868DBF81C381E40360C40F0AC80DBF852
:103900001838FF21984A1B0C002B40F09D8066035D
:1039100012D5964BD3F81858D3F81C281540AAB2E4
:103920000192002A40F02C81D3F81838FF21904AE8
:103930009BB2002B40F01281002C12DA8B4A01213D
:103940008C4DD2F80438284623F00103C2F804381D
:10395000FDF7F4F9E86820B1026852690AB1294616
:10396000904721050AD58349C86818B103681B69C7
:1039700003B1984700217F48FDF7E0F9E20659D5E9
:103980007A4B1D6A05F00F09B9F1060F52DC05F4F8
:10399000F012B2F5002F00F09681B2F5402F00F042
:1039A000A081B2F5802F45D1C5F30A15002D41D075
:1039B000DFF8C0811C2606FB0986D6F83471002F7B
:1039C00040F06C8196F83CA1BAF1000F40F06281A2
:1039D000D6F830717B7C03F0F003102B40F05A8155
:1039E000402DAB4607F11D00A8BF4FF0400B1FFA5A
:1039F0008BF10191FFF7F6FAA5EB0B00FFF7E4FA64
:103A000096F83D31022238466AF3820386F83D314A
:103A10007B7C62F307137B740199A7F85E10FFF7B4
:103A2000B3FD1C2303FB098898F83D316FF3820333
:103A300088F83D31504B1C4200F06981FFF7DAFCF9
:103A4000002005B0BDE8F08FD80701D510681160DF
:103A50005B08203258E70027464DF30741D5424B1B
:103A60004FEA471959F80320DBF8143802EA030833
:103A700018F0010F1FD001233B4A17F0FF0A49F845
:103A800002306B7C42D103F0F003602B13D1D5F8E8
:103A900034215ABB95F83D3162F3820385F83D31FC
:103AA00095F83D3113F0040105D1FFF7B7FA6B7CAF
:103AB00061F307136B7418F0020F03D002232A4A34
:103AC00049F8023018F0080F0BD06B7C03F0F003BC
:103AD000202B02D12846FFF757FD0823224A49F838
:103AE0000230760807F10107B7D110E751462348A5
:103AF000FFF7A9F895F83D3120496AF38203A1F553
:103B0000927085F83D31FFF71DFAC9E703F00F0306
:103B1000022BD0D11C2000FB0AF005EB000ADAF8DA
:103B200034210AF59C7A32B99AF8053062F382039F
:103B30008AF80530BFE700F5927000212844019013
:103B4000FFF781F89AF8053001986FF38203014678
:103B500028468AF80530FFF7F5F9ACE7DD0700D510
:103B600011605B082032E4E6080B084000000840C2
:103B700008090840D00C002400108000F40D002437
:103B8000DFF8C8814FF00009DFF8C4A1A8F1600593
:103B9000019BD8076DD56B4A4FEA491BD2F8103804
:103BA000D2F8346801225BF80A7002FA09F2324254
:103BB000029218BF43F080031F4017F001030393E4
:103BC00038D0029B5FFA89F21C2126EA03065D4B7E
:103BD00001FB0251C3F83468012360314BF80A300D
:103BE0006B7C002A4ED103F0F003502B0DD12846F8
:103BF000FFF75AFB95F8793013F0040105D1FFF770
:103C00000DFA6B7C61F307136B742A7C910611D556
:103C10004C486FF34512AB7CD0F8041803F00F0E3C
:103C20006FF3030301F0700141EA0E11C0F80418AC
:103C30002A74AB743A0702D508234BF80A30FB0606
:103C400006D541462846FFF72FFB10234BF80A30D4
:103C500038060ED5039B4BB9029B4146284626EAFF
:103C60000306384BC3F83468FFF71EFB80234BF87C
:103C70000A30019B09F1010908F11C085B08019356
:103C800086D159E603F00F03022BD3D12846FFF764
:103C90000BFBCFE72846FFF797F9C2E63889FE8885
:103CA0003B68361A1844AE42A8BF2E461FFA86F863
:103CB0004146FFF797F9A81BFFF786F93989884431
:103CC000A7F80880B6E6204A527C02F0F002102ADB
:103CD0007FF4B0AED3F8002B42F08062C3F8002B23
:103CE000A8E6194D082105F11500FFF77BF995F9B4
:103CF0001530002B08DBB5F81B302BB16B7C012293
:103D000062F307136B7495E66B7C0222F8E7A30459
:103D10007FF5D3AD0B4AD2F8003923F4FF6323F0CB
:103D2000070343F04003C2F80039D2F8043843F4E3
:103D30008073C2F80438D36823F4705343F4C0533B
:103D4000D360BAE500000840D00C0024300D0024F8
:103D50000809084038B50B4CE060214603681B6831
:103D60009847054618B10023E360284638BD752002
:103D7000FCF71EFE01212046FFF78EF80223237276
:103D8000F3E700BFD00C002470B50446EFF31185B3
:103D900080260023EFF3108372B686F3118883F335
:103DA0001088FFF727FBEDB285F311880E4D2046F2
:103DB000236829465B689847EFF311840023EFF3EB
:103DC000108372B686F3118883F310887520E4B2ED
:103DD000FCF7DAFD00212846FFF75EF80846E960A7
:103DE00084F3118870BD00BFD00C002470B52B4D3A
:103DF000E86808B1FFF7C8FFEFF3118600238022BF
:103E0000EFF3108372B682F3118883F310880021D8
:103E10002248FFF741F875200C462972FCF7B4FDE3
:103E2000752021462246FDF745F81D4BFF204FF037
:103E3000FF32F6B2C3F80809C3F8080BC3F8280923
:103E4000C3F8280BC3F84809C3F8480BC3F868093E
:103E5000C3F8680BC3F88809C3F8880BC3F8A8092E
:103E6000C3F8A80BC3F8C809C3F8C80B4FF48060A7
:103E7000C3F81048C3F81448C3F83448C3F81C48C2
:103E8000C3F81828FFF7EAF8FFF7D8F86B7C64F35B
:103E900003036B7486F3118870BD00BFD00C00243F
:103EA000000008408F4AF8B5D2F80C3823F00073B0
:103EB00043F08073C2F80C38D2F80C385901FBD5A6
:103EC00089484027FEF78EF98848FEF78BF9884825
:103ED000FEF788F9874EFFF789FF874B4FF4F4729E
:103EE00000211846FCF7D1FE8449024603464FF0F4
:103EF0001C0C42F8601B01464260FE22C27402752F
:103F000000220CFB02141C335E64196504F1780571
:103F100094F8794044F010046C70D4B2013283F804
:103F20005C4064F07F04072A83F848406C786FF3A4
:103F300001046C70A3F84A70E3D100231C274025CC
:103F4000DAB2C0F82461C0F830111C3080F82021AA
:103F500080F80C2107FB0312013392F83D41072B37
:103F60006FF3010482F83D41A0F80E51E8D1002220
:103F700063497520FCF79EFF002803DABDE8F8408E
:103F8000FFF734BF5F4C80235F4DA360E36843F0CD
:103F90004003E3600320FCF7CDFB2369002B01DB2A
:103FA000013DF7D1236943F001032361564B554C82
:103FB0002269D20701D5013BFAD103200025FCF785
:103FC000B9FBA36B142043F48033A36300F0AAF879
:103FD0002368322043F0C0032360E36823F00053DA
:103FE00043F08043E36000F09DF8C4F8005ED4F82D
:103FF00000384FF4806023F4C053C4F80038D4F87C
:10400000003843F00303C4F8003840F20123636230
:1040100003F59203A3624933C4F804314933C4F869
:1040200008314933C4F80C314933C4F810314933ED
:10403000C4F814314933C4F81831FFF70FF8FEF70C
:10404000FDFF4FF0FF33C4F81058FF21C4F8145897
:104050002E4AC4F83458C4F818382D4BC4F81C58EC
:10406000186820330028B4BF4FF00840002043F800
:10407000200C43F8105C43F8181C9342F0D1254BF8
:104080000022FF2024491C682033002CB4BF4FF0CD
:104090000844002443F8204C43F8102C43F8180C33
:1040A0008B42F0D1174B14489A614FF0FF325A609F
:1040B00059691A4A21F07F4121F47C0121F47C41A5
:1040C00021F0FF010A4300215A61154A9A618122B9
:1040D0009A60FEF7E1FEFFF78DF97520BDE8F84024
:1040E000FCF766BC004002580BAC08000CAC0800A2
:1040F0000AAE090064A40008D00C002448A40008FB
:10410000B538000800000840400D0300E0090840F1
:1041100000090840000B0840E00B08400AFCB0F81A
:1041200010380C0082B0002209490092009B8342A3
:1041300001D302B070470192019B8B4203D9009BCF
:1041400001330093F2E7019B01330193F4E700BFD1
:10415000AD7301000A460146034808B500F052F865
:10416000024B186008BD00BF80A40008B80E0024F0
:10417000024B0146186800F0C7B800BFB80E002413
:10418000024B0146186800F01BB900BFB80E0024AE
:10419000024B0146186800F070B900BFB80E002449
:1041A000F8B50D460446164600F05AF805F11F030F
:1041B0006168AA19082523F00F03012622F00F02D7
:1041C000A3F11007D01B01441038C4E9011743F8CC
:1041D000105CA1684E60A3F1080143F8080CA2F13D
:1041E00008004D60E060204642F8085C53F8083C47
:1041F000E2683343536000F05FF82046BDE8F840C2
:1042000000F052B801F10F03A2F5A27223F00F03E0
:1042100070B5541818464FF4A27200211D46E41AD6
:1042200003F5A276FCF731FD034600F1200200F50C
:10423000A071A2F110009A6110321033D8618A4245
:10424000F7D1284600F007F8284622463146FFF706
:10425000A7FF284670BD0122002100F099B9FFECAC
:10426000104B37B51C6805464CB101A900F0AAF9FE
:1042700001980028D4BF0020012003B030BD04F015
:104280003DFB00280CDB284604F05CFA002801DB2B
:104290000120F2E700F0FEF80368002BF3DCF7E7FB
:1042A0002046EAE70C030024024B1B680BB904F01C
:1042B00095BA70470C03002438B5054608680C46CB
:1042C00000F015F8421C05EB021205EB0015AB6976
:1042D00023B1196811B12068814205D39460C4E903
:1042E000023203B1DC6038BD1A469B68F0E7B0F5D6
:1042F000800F07D203090020012B00D8704701303E
:104300005B08F9E71220704770B505460C46A9B165
:10431000FFF7A6FF98B9EFF3118300228021EFF396
:10432000108272B681F3118882F31088D5F840218B
:10433000DBB22260C5F8404183F3118870BD54F8A8
:10434000043CA4F1080123F0010344F8043C54F8B0
:10435000083CCA185068C60713D4CB58D2E90206E5
:104360001344B06008B1D668C660126854F8080CEF
:10437000104444F8080C5A6802F0010202435A60E3
:104380001A4654F8043CCB1A5868C00710D4D3E935
:104390000210816009B1D868C860196854F8080C27
:1043A00008441860516801F0010101435160194649
:1043B0002846FFF781FF2846BDE87040FFF774BF2D
:1043C000F8B506460F46EFF3118300228021EFF384
:1043D000108272B681F3118882F310880022D0F81F
:1043E0004041DBB2C0F8402183F31188002C39D161
:1043F000002F35D007F1170525F00F05AF422FD854
:104400003046FFF72DFFB5F5800F32D22846FFF773
:104410006EFF06EB00108469FCB12268A368AA4213
:1044200029D3E26893600BB1E268DA602368581B15
:104430000F280CD92344611960514D6025605A68DA
:1044400002F00102024330465A60FFF735FF63680D
:10445000083443F0010344F8043C3046FFF724FFDE
:104460002046F8BD2568214630462C46FFF74CFF14
:10447000BCE71220CDE71C46CEE713B50191FFF74C
:104480009FFF044618B1019A0021FCF7FEFB20466D
:1044900002B010BD08B500F099FA08B1143008BD9B
:1044A0000048FCE7BC0E0024002303600B6813B92E
:1044B0000860486070474B681860FAE70B6802466E
:1044C0008BB180B1834208D11A680A604A689A4267
:1044D00009D100234B6070472BB118461B689342EB
:1044E000FAD100F00BB8704703682BB11A6802606C
:1044F00002B9426000221A60184670470A680368D1
:1045000052B14BB14A689A424FF0000215BF196888
:104510004860016002601A6018467047002303601B
:104520004B6843600A6812B90860486070471860B9
:10453000FBE7002343600B68036013B9C1E9000087
:104540007047586008607047D0E9003232B90B609C
:1045500033B94A600023C0E9003370471360F7E7BE
:104560005A60F7E707B504460191009200F03AFA65
:10457000DDE90010A047FCF785FB30B1B2F5004F34
:1045800003D212B20280002070476FF0150070470E
:1045900008B530B1B2F5004F03D212B2028000204C
:1045A00008BDFFF777FF162303604FF0FF30F7E7F2
:1045B00028B121B1038800201BB20B6070476FF057
:1045C0001500704710B5FFF7F3FF041E05DA6442CB
:1045D000FFF760FF04604FF0FF34204610BD1F2935
:1045E0009FBF012303FA01F103680B439ABF0360E5
:1045F00000206FF0150070471F299FBF012303FAA9
:1046000001F103688B439ABF036000206FF015002F
:10461000704700230360184670471F299DBF00683C
:10462000C84000F001006FF0150070470FB41FB5CF
:1046300006AB53F8041B0191039304F00FF8039A9F
:104640005030019900F079F805B05DF804EB04B042
:10465000704770B5044630B300F0D4F80121201D36
:10466000002600F022F8012104F1500000F01DF8AE
:10467000012104F19C0000F018F8D4F8E85025B9A5
:10468000204600F0C7F8304670BDB5F844309B07AF
:1046900007D50121284600F008F836EA200628BF91
:1046A00006462D68EBE70646EDE7F8B54368054694
:1046B0000F46002B3EDBB0F844309B073AD500F0A4
:1046C000BCF86C69FCB1EE69B44207D1284600F031
:1046D000D3F8EC696969641A2046F8BD2B6A9C42DC
:1046E00026D1361B32462146686803F0E9FC0028D3
:1046F0000DDA95F8463043F0020385F84630FFF7AF
:10470000C9FE04686442284600F0B6F8E4E70444B1
:10471000361A0FB1002EE5DC6B692644EB61B4421A
:10472000D4D0EB695A1CEA6114F8012B1A70F6E731
:104730000024E8E76FF00804CEE730B589B00446FE
:104740000D46014603A8019200F0C6F8204600F08D
:1047500074F82946019A03A800F066F90546204638
:1047600000F08AF8284609B030BD08B5FDF784FA94
:10477000002803DABDE80840FFF78CBE08BD38B555
:104780000122044600212C30FFF702FF4FF0FF35D5
:10479000002304F130006563C4E9453300F03CF8C0
:1047A00004F17C00C4F8805000F036F804F1C80031
:1047B000C4F8CC50BDE8384000F02EB838B50446F7
:1047C0002C30FDF759FA0023C4F81831D4F81451ED
:1047D0006DB904F13800FFF7C8FF04F18400FFF75A
:1047E000C4FF04F1D000BDE83840FFF7BEBF284643
:1047F00050F8083BC4F81431FFF7B7FF2846FFF71D
:10480000B7FCE3E710B50446204603F09BFF002801
:10481000FADB10BD03F0E2BF08B500214FF0FF3313
:104820000122083001814360FFF7B2FE002803DA5D
:10483000BDE80840FFF72EBE08BD70B5044604F081
:1048400099F80546E368984212D004F1080630460C
:1048500003F078FF031E07DAFFF71CFE0368042B42
:10486000F5D08C2BF3D05B422BB90123E56001E03E
:10487000238A0133238270BD10B5044604F07AF810
:10488000238A012B0ED1002304F1080023824FF06C
:10489000FF33E36003F0A2FF002805DABDE8104013
:1048A000FFF7F8BD013B238210BD01210069FFF72E
:1048B000FCBE38B504460D462169284600F0B6FD19
:1048C000013003D0E3680133E36038BDFFF7E2FD58
:1048D0000368042BF0D0F8E7094B03604B6963B120
:1048E000B1F84430074A13F4807F074B18BF1346D2
:1048F00083600023C0E903317047034BF8E700BF32
:10490000B3480008AB4800086B540008421E11F879
:10491000013B02F8013F002BF9D17047034610B567
:1049200092B10A44084604460130904203D1002265
:1049300020461A7009E010F8014C03F8014B002CD6
:10494000F1D1401A013810BD084610F8013B002B88
:10495000FBD1F6E703461A46013311780029FAD154
:10496000101A704710B5024404464B1E904208D0FE
:1049700013F8011F00F8011B0029F7D1121AFCF7E8
:1049800084F9204610BDFFEC0E4B002230B5D3E970
:1049900000548C4209D1C561836823F4805323F00D
:1049A0000F0319438160002030BDA94202D1C161CB
:1049B0002146F1E7013208331F2AE8D1C1614FF4E3
:1049C0008051E9E788A40008C06970471FB500203E
:1049D00001A903F05DFE0028ACBF0298002005B0DD
:1049E0005DF804FB2DE9F0410A4D2B6843B90A4CF0
:1049F0000A4E0B4FDFF82C80B44203D101232B6009
:104A0000BDE8F08154F8043BBB42F5D34345F3D2F3
:104A10009847F1E7C00E002430A8000830A800082D
:104A20000000000830A8000807B5009200220B46DD
:104A3000114600F003F803B05DF804FB2DE9F04FD8
:104A40008FB005460026DDF8609093F800A0BAF11B
:104A5000000F00F0EF83BAF1250F08D00133029365
:104A60002B68514628460136CB46984725E193F8F6
:104A700001A09A1CBAF1250F0292F1D04FF0000864
:104A80000A22474644463F2C4CD8BAF12B0F3ED061
:104A900013D8BAF1200F3CD0BAF1230F3FD0AAF1BE
:104AA0003003DBB2092B4FD8E0054EBF02FB0838BC
:104AB00044F0800402FB073707E0BAF12D0F2BD03A
:104AC000BAF1300FEBD144F00104029B13F801ABB3
:104AD0000293BAF1000FD6D1AAF14503022B72D886
:104AE0000AF1200A44F400545FFA8AFA14F4807F31
:104AF00008BF4FF00608BAF1650F5FFA88F140F081
:104B00008280013144F48044C9B2002283E044F041
:104B1000020444F00404D8E744F00804D5E744F064
:104B20001004D2E7B4F5007FB9D3BAF17A0F2AD0D6
:104B3000BAF1740F27D0BAF16A0F21D124F480643E
:104B4000A4B244F42064C0E7BAF12A0F0FD1E00503
:104B500059F8043B02D523EAE378B6E7002BA7BF58
:104B600044F080041F465F4244F08804ADE7BAF188
:104B70002E0FDAD1E00500F15D8344F48074A4E7E0
:104B8000BAF16C0F09D1A30548BF44F4006424F4C2
:104B90008064A4B244F4007497E7BAF1680F09D1B5
:104BA000600548BF44F4006424F40074A4B244F4E3
:104BB00080648AE7BAF1700F02BF24F42064A4B2C3
:104BC00044F4007488E7AAF16503022B8ED9BAF188
:104BD000630F00F0A8810AF0DF03532B40F0C98176
:104BE000CB469D4B5BF8049BB9F1000F08BF99467B
:104BF00014F4807F484614BF41464FF0FF3100F067
:104C000036FC804698E1BAF1660F7FF47EAF0A4623
:104C100044F400440F2109F107090F2908A829F0DD
:104C2000070B28BF0F21BBEC020B00F035FB9DF8F2
:104C3000243003F00902012A42D0A20743D414F021
:104C4000040F0CBF4FF000094FF0200913F00C0FB8
:104C500043D0B9F1000F14BF04230323BB420CDA85
:104C60002107A7EB030709D4B8462B682021284663
:104C70009847B8F10108F8D13E440027B9F1000F78
:104C800004D02B6849462846013698479DF82430C1
:104C900004F40054714A13F0080F714B0CBF904696
:104CA0009846A6EB080909EB080618F8011B69B934
:104CB0003C46002C40F0B8823E44D946029BC4E6F4
:104CC0004FF02D09C2E74FF02B09BFE70CB1203997
:104CD000C9B22B6828469847E5E7C3B2DDF820A0A3
:104CE0000193604B019A1C421BD1134608A904335F
:104CF0000B44019919B113F8011930292CD01AF17C
:104D0000040F2EDB92452CDABAF1000F44F4004474
:104D100002DB019B9A4528DA0AF10108019BA3EB0B
:104D2000080823B2002B0393B6BF2AEAEA730523CF
:104D30000133B9F1000F00D00133B8F1000F17D0E3
:104D400008F101021344BB42B4BFFF1A002714F05C
:104D5000090F1CD13B4615E00199481EC1B20191D3
:104D6000C7E7019B03F1FF38DBE74FF00008D8E706
:104D7000E20648BF0133E6E7202128460493904726
:104D8000049B013B2A68002BF6D13E441F46B9F133
:104D9000000F04D02B684946284601369847230760
:104DA0000CD4B94604E009F1FF3930212846984770
:104DB0002B68B9F1000FF6D13E444F46039B002B00
:104DC00052DA2AEAEA79C8F10003AAEB090204934D
:104DD000019B09F1FF3904999A4237BF08AB4FF0A4
:104DE0003008D31893F80580731C894503932B680A
:104DF0001CDAE40606D5B9F1FF3F03D12E2128467F
:104E00009847039ECA450BD19DF82530352B20D8F5
:104E100006D19DF8243013F0100F08BF4FF0310871
:104E200001362B6841462846984741E741462846C7
:104E300005929847B9F1FF3F059A07D1B31C2E217F
:104E40002846059203932B689847059A0132039EE2
:104E5000BEE74FF03108E3E788A5000880A5000809
:104E600084A5000800C0FFFF9DF8251028463129C1
:104E70001EBF9DF8243023F010038DF824302B68DA
:104E80009847B8F1000F2B683DDD02364FF001095D
:104E90002E2128469847C8452B6821DA14F4005F74
:104EA0002B68284614BF452165219847BAF1000FA9
:104EB00004DB31D19DF82430D9062DD5CAF1000A82
:104EC0002D212B68284698473021BAF1090F25DC9F
:104ED0002B682846984704362B680AF13001A2E770
:104EE000019A284601364A4588BF09F1380209F17E
:104EF000010994BF30216A445FFA89F988BF12F82A
:104F0000131C9847C7E7E00601D40136C6E72E21F7
:104F1000284602369847C1E72B21D2E70131AAF192
:104F20000A0AC9B2D1E7CB464FF001080DF12009BA
:104F30005BF8043B8DF8203022070FD509EB0804FD
:104F40004C450DD14644B3E6013F2B68202128464D
:104F500098474745A4EB0706F6D8EFE7BC19F8E7F2
:104F60002B68284619F8011B9847002FE8D0013F0D
:104F7000E6E7BAF1640F04F4206302D0BAF1690FD6
:104F800078D1B3F5206F63D109F1070929F007093A
:104F9000CB46D9F804105BF8080B24F4805900299B
:104FA00029F0100906DA404249F4805961EB4101C9
:104FB0001FFA89F919F4807F06D0B8F1000F03D1E8
:104FC00050EA010300F0C28008AC0A23224600F038
:104FD00035F9041BE4B219F4807F019400F0B88025
:104FE00029F0010A44451FFA8AFA80F2B48044F29B
:104FF00010025FFA88F309EA0202102A03D129F0AD
:1050000011091FFA89FA1AF0100F00F0AE8004F1AE
:1050100038026A4412F8192C302A40F09E802AF493
:10502000C04A2AF0100A1FFA8AFA1AF0080F40F054
:10503000AD801AF0010F06D0BB4280F2C480FB1A8B
:1050400003EB0408FBB2A3EB06095FFA89F998E0C9
:10505000CB46A3055BF8040B4FEAE0719DD46205D3
:105060009BD5230555BF40F3C03140F3C01100B2BA
:1050700040B292E7B3F5206F1DD109F1070929F07D
:105080000709CB46D9F804105BF8080B24F0060991
:10509000BAF1580F1FFA89F945D0AAF16F03DAB2B5
:1050A000092A47D8092B45D8DFE803F04E254444A8
:1050B000444415444436A10509F1040BD9F8000015
:1050C00001D50021E2E714F48061DFD0220554BF4E
:1050D00080B2C0B2F5E724F016040A231FFA84F95F
:1050E00019F4807F05D0B8F1000F02D150EA010217
:1050F0002CD008AC6AE7029B1B78562B0AD1029B86
:105100000133029343681A68079201682846FFF743
:105110008BFCD2E549F0100919F0100F01D049F4C9
:1051200080491023DCE7E30601D549F4C0494FF478
:105130000473D5E72B6828462521023698472B684B
:10514000514628469847B8E50823C9E7444642E750
:105150002346CA4657E7234655E71AF4804F01D144
:10516000013300E00233DBB25FE741F206021AEAE4
:10517000020F3FF45AAFF3E72B682021284601368F
:10518000984709EB0603DBB2BB42F5DBBB42B4BF79
:10519000FF1A00271AF0100F22D02B683021284662
:1051A00098471AF4804F10D10136C146A14529DC39
:1051B000A8EB0400A045B8BF002006444CBB019BEF
:1051C00033441E4674E5A0463DE71AF4005F06F13D
:1051D00002062B6814BF5821782128469847E4E737
:1051E00041F206031AEA030FDFD01AF0020F06F1AC
:1051F00001062B6814BF2B2120211AF4805F18BFF1
:105200002D21EAE72B683021284609F1FF3998471C
:10521000CCE7631E0EAA284652FA83F2DCB22B6852
:1052200012F8181C9847C9E72B6820212846013C32
:1052300098473EE530460FB0BDE8F08F2DE9F843C2
:1052400013F400791C4606460F461CBF23F4007475
:105250004FF0010915464FEAE478304639462246B8
:10526000434604F079F9092AB4463B4606460F4600
:1052700009DC3032A44505F8012B73EB0803ECD2AE
:105280002846BDE8F883B9F1000F01D03732F1E7C5
:105290005732EFE7FFECC2922DE9F74F10EE904A3C
:1052A00007460E4614F000441CBFB1EE400B01242B
:1052B000B5EE400BF1EE10FA11D121EAE1720530A2
:1052C000302144F00204FBF7E0FC0025BB1900226A
:1052D00030465A713C713D6003B0BDE8F08FB4EECA
:1052E000400BF1EE10FA02D744F00804EDE7B0EEFF
:1052F000C07B9FED436BB4EE467BF1EE10FA02DD0E
:1053000044F00404E1E79FED406BB4EEC60BF1EE10
:1053100010FA5DD5404908230F2501209FED3C6B15
:1053200091ED107B20EE077BB4EEC67BF1EE10FA18
:1053300005D500FA03FCB0EE470BA5EB0C05013BCD
:105340000839B3F1FF3FEBD132B125EAE573013300
:105350001A449642A8BF1646304B03EBC60393EDA2
:10536000007B30EE070B9FED2A7BB4EEC70BF1EE0E
:1053700010FA04DBB2EE047B013580EE070B07F177
:105380000508DFF8A0A0DFF8A0B051EC100B04F086
:10539000FBF86FF0040389460090DB1B0193019B2F
:1053A00043449E4292DD52465B460098494604F0D3
:1053B000D3F800F1300C59465046009299460A2223
:1053C000002308F801CB04F0C7F882468B46E6E7D5
:1053D000134908230F25012091ED107B20EE077B58
:1053E000B4EEC67BF1EE10FA04DB00FA03FCB0EE7B
:1053F000470B6544013B0839B3F1FF3FECD1A3E70C
:10540000FFFFFFFFFFFFEF7F00003426F56B0C432B
:105410000080E03779C3414358A6000890A50008F2
:1054200010A600080080C6A47E8D030037B50A468A
:105430008DF8070004460D460DF10700012100F02C
:1054400022F8002804DC4FF0FF34204603B030BDC2
:105450000A2CFAD195F846305B07F6D5012128468B
:10546000FFF723F90028F0DAEDE700207047024645
:10547000014410B58A42134603D01C780132002C37
:10548000F8D1181A10BD2DE9F84380460F4616468C
:1054900042B9FEF7FFFF4FF0FF34092303602046B7
:1054A000BDE8F883B2F844309B0706D4FEF7F2FF5C
:1054B000092303604FF0FF3418E053693BB90A46F3
:1054C0000146706802F0FCFD041EE8DAF2E71046BF
:1054D000FFF7B3F9304600F04EF800280DDA4FF030
:1054E000FF343046FFF7C8F9002CD8DA96F846307A
:1054F00043F0020386F84630D1E7D6E906502D1A6C
:10550000202D01D11F2F1CD8BD42414628BF3D464A
:105510002A46A7EB0509FBF7A3FAF369B26908EB82
:1055200005042B449342F36104D2B9F11F0F14D93F
:105530004F4607E000213046FFF7B7F80028F4DABD
:10554000CDE744463A462146706802F0B9FD00288E
:10555000C5DB0444A4EB0804C3E7B9F1000FF9D09C
:1055600021464A46F06908EB0704FBF779FAF3692C
:105570004B44F361EEE710B5044630B9FEF78AFFFD
:10558000092303604FF0FF3010BD4369F3B1FFF70B
:1055900054F9206A6269904213D0E36994F8471085
:1055A0001B1A2046C4E907220022591A84F8472012
:1055B000012200F00DF8002803DA2046FFF75CF91D
:1055C000E0E72046FFF758F90020DDE71846DBE763
:1055D00000F000B870B504460D461646FFF7CBFF45
:1055E000002802DA4FF0FF3070BD204600F010F8BE
:1055F0000028F7DB002332462946606884F84730EC
:1056000002F03FFC01304FF0FF3018BF0020EBE705
:10561000426932B1B0F844309B0702D50121FFF74F
:1056200044B800207047022901D100F063BB012972
:1056300001D100F0C3BB704708B500F085FBBDE8A1
:10564000084000F001BCFFEC38B50F4D04462B7844
:1056500013F0FD0F09D1C20707D500F081FB002828
:1056600003DB0A4B02221A7004E02B78012B02D9CB
:105670004FF0FF3038BDA307FAD500F0F1FB00284A
:10568000F6DB024B0122EEE7C50E0024CC1300240A
:1056900010B5084C606004F001F9FFF7D5FF002851
:1056A00004DB054A13680133136010BD6368002BE7
:1056B000F1D1FAE7D0130024C80E002408B5FFF793
:1056C000E7FFA0F120035842584108BD73B50446D6
:1056D00001AE00256420FFF7DBFF002807DB013562
:1056E00006F8010B042DF5D1019B0020236002B0C8
:1056F00070BDFFEC70B5094E04460D463378022BA1
:1057000001D100F053FB3378012B05D12946204607
:10571000BDE8704000F0BABB70BD00BFC50E0024EC
:1057200010B5114C236801331DD062680F4B9A42AB
:1057300019D90F4B9B6803F1006303F500339A42BC
:1057400011D204F00BF904F0D7F8FFF775FF04F05D
:10575000E1F804F0A5F8204604F01AF92046BDE867
:10576000104004F0DBB910BD00000208FFFF010883
:10577000B000002410B500230B4C54F8232022B1B4
:1057800054F82320013A44F823200133042BF4D1A8
:10579000064B1B7833B9A36823B9022004F0A0F9A3
:1057A0003223A36010BD00BFD0130024C40E002418
:1057B000024BD860DA68002AFCD17047D01300246D
:1057C0002DE9F04FAF4B8FB000250646DFF8BC82C5
:1057D0001D700395D8F8084004F07AF8DFF8C0A2ED
:1057E0000EB1CAF80060DFF8BC924FF0FF37CAF87C
:1057F000085089F80050012004F062F926B1DAF867
:105800000030002B00F068820020FFF741FF049079
:10581000049B002BF2DB012004F042F9049B213BA6
:105820001F2BE8D801A252F823F000BFAD580008A2
:10583000C3580008B1590008F7570008F757000887
:10584000F7570008D3590008F7570008715A0008A5
:105850002F5B00085D5B00089D5B00081D5C000875
:10586000BF5B0008ED5B00087B5C000887590008FF
:10587000F7570008F7570008F7570008F7570008D0
:10588000F7570008F7570008F7570008F7570008C0
:10589000F7570008F7570008F7570008F7570008B0
:1058A000F7570008F75700082B5900080220FFF7A8
:1058B00005FF002800F00582039B43F001030393DA
:1058C00061E04FF47A70FFF7E3FE051EC0F2F98144
:1058D0000220FFF7F3FE002800F0F381681E042881
:1058E00000F2EF81DFE800F0030B0E111400042139
:1058F0006548FFF7FFFE039B43F00203DFE7042147
:105900006248F6E704216248F3E704216148F0E7C2
:105910001C252846043504F05CF80421069006A8EE
:10592000FFF7E8FE2C2DF4D1E5E701250220FFF773
:10593000C5FE002800F0C581039B03F00303032B81
:1059400040F0BF8101234FF0000B022089F80030A6
:1059500004F0A6F804F00DF8584604F01EF80446CA
:1059600040BB022089F8000004F0AAF8D8F80830FB
:10597000A34226D8039B002443F0040389F8004087
:105980000393CAF80840039B3E4A03F00303032B2A
:10599000137808BF002613B93F4B1B78137041F2F0
:1059A0001203022106A8ADF81830FFF7A3FE22E784
:1059B0000025BBE7584629460BF1010B03F0F3FF26
:1059C000CAE7204604F005F8013040F05381043462
:1059D000CCE73220FFF75CFE051EC0F2728115F0A5
:1059E000030240F06E812B19D8F808108B4200F2A8
:1059F0006881B5F5807F00F26481DFF8A0B0594678
:105A0000AA4214D1C820FFF759FE002800F059819E
:105A100024B9224B4FF0FF321F681A6025F00305AE
:105A20002544AC4215D1039B43F0080347E74FF4EC
:105A30007A70CDE90012FFF72BFE0490049800283D
:105A4000C0F23F8104980099019A01F8010B0132DC
:105A5000D6E7DBF80010204603F0B5FF204603F040
:105A6000B8FF5BF8042B904240F004810434D8E77F
:105A70000220FFF723FE002800F023810025AB461B
:105A800042E000BFC50E0024B8A60008B000002404
:105A9000B4000024B8000024CC130024CC1200244D
:105AA000D0130024C40E0024002D3BD1791C39D022
:105AB00006978B494A68C2B98C461346082003F002
:105AC000010E5B08BEF1000F07D083F06D4383F435
:105AD000380383F4034383F020030138EFD101320C
:105AE0004CF8043BB2F5807FE7D106A8002210F8FD
:105AF000013B013283EA0B03042ADBB251F8233065
:105B000083EA1B2BF3D10435D8F80830AB42CBD84D
:105B1000042106A8CDF818B0FFF7ECFD039B43F075
:105B20001003CCE6284603F054FF0690C1E700239B
:105B300005A80593FFF7CAFD002840F0C2800220A7
:105B4000FFF7BCFD002800F0BC80059803F04BFF78
:105B50000421069006A8FFF7CDFD14E7002305A851
:105B60000593FFF7B3FD002840F0AB800220FFF75C
:105B7000A5FD002800F0A5800598820740F0A180CF
:105B8000082800F29E8003F083FF0421069006A8F7
:105B9000FFF7B0FD039B43F0400390E60220FFF7C0
:105BA0008DFD002800F08D8003F020FF0421069079
:105BB00006A8FFF79FFD039B43F080037FE60220CA
:105BC000FFF77CFD00287CD006A9142003F014FF09
:105BD00005460421059005A8FFF78CFD294606A877
:105BE000FFF788FD039B43F4807368E60220FFF70C
:105BF00065FD002865D020223A49172506A8FEF742
:105C0000B1FE042105A80595FFF774FD294606A8F5
:105C1000FFF770FD039B43F4007350E66420FFF729
:105C200037FD00284DDBC5B21E2D4AD80220FFF7F4
:105C300045FD002845D04FF4D07003F0CAFE8346DE
:105C40004FF4D27003F0C5FE274B9B4539D1274B4B
:105C5000984236D1DFF898B04FF4D07045EA0B0B7C
:105C6000594603F0B0FE4FF4D07003F0B2FE584531
:105C70003FF489AE41F2121393E64FF47A70FFF7C6
:105C80001DFDF0B17B1C0DD141F2120306A80221CB
:105C9000ADF81830FFF72EFD64200FB0BDE8F04FCF
:105CA000FFF786BD039B03F01B031B2B09D139466D
:105CB000002003F088FE002003F08BFE8742E3D033
:105CC000D8E741F21233022106A8ADF81830FFF7E9
:105CD00011FD002303938EE50FB0BDE8F08F00BFE8
:105CE000CC0E0024A0A60008FFECC2925D7D05C585
:105CF00000ECC29238B50F4B0F4C002808BF184675
:105D000003F0A0FA0D49206003F0ACFA0C4B00B18F
:105D100018604FF0FF320B4D432118682A6002F0E3
