:020000040800F2
:100000000000022075140008711400086F14000825
:100010006F1400086F1400086F140008000000003F
:100020000000000000000000000000007114000843
:100030007114000800000000711400081503000886
:100040006F1400086F1400086F1400086F14000884
:100050006F1400086F1400086F1400086F14000874
:100060006F1400086F1400086F1400086F14000864
:100070006F1400086F1400086F1400086F14000854
:100080006F1400086F1400086F1400086F14000844
:100090006F1400086F1400086F1400086F14000834
:1000A0006F1400086F1400086F1400086F14000824
:1000B0006F1400086F1400086F1400086F14000814
:1000C0006F1400086F1400086F1400086F14000804
:1000D0006F1400086F1400086F1400086F140008F4
:1000E0006F1400086F1400086F1400086F140008E4
:1000F0006F1400086F1400086F1400086F140008D4
:100100006F1400086F1400086F1400086F140008C3
:100110006F1400086F1400086F1400086F140008B3
:100120006F1400086F1400086F1400086F140008A3
:100130006F1400086F1400086F1400086F14000893
:100140006F1400086F1400086F140008F508000809
:100150006F1400086F1400086F1400086F14000873
:100160006F1400086F1400086F1400086F14000863
:100170006F1400086F1400086F1400086F14000853
:100180006F1400086F1400086F1400086F14000843
:100190006F1400086F1400086F1400086F14000833
:1001A0006F1400086F1400086F1400086F14000823
:1001B0006F1400086F1400086F1400086F14000813
:1001C000022901D100F09EBB012901D100F030BC11
:1001D000704708B500F0E8FBBDE8084000F050BCEF
:1001E00070B50F4D04462B782E4613F0FD0F08D145
:1001F000C20706D500F0F8FB002802DB02236B7073
:1002000070BD3378012B02D94FF0FF30F8E7A30718
:10021000FAD500F03BFC0028F6DB01237370EFE712
:100220004C00002010B5064C606000F065FCFFF744
:10023000D7FF002802DA6368002BF6D110BD00BF9B
:10024000DC07002008B5FFF7EDFFA0F120035842BE
:10025000584108BD70B5094C05460E462278022A61
:1002600001D100F0CBFB2378012B05D13146284684
:10027000BDE8704000F018BC70BD00BF4C0000200D
:10028000054B59684A1C10B5D2B29C6894421EBFF7
:10029000C9185A60087310BD4C000020064AD2E904
:1002A00001138B421FBFD1180133DBB2087B0CBF97
:1002B0004FF0FF30936070474C00002038B5124C6F
:1002C000236801331ED0114D2A68A2421AD3104B65
:1002D0009B6803F1006303F500439A4212D200F0D9
:1002E0007BFC00F04DFCFFF774FF00F051FC00F0C8
:1002F00005FC204600F074FC23682A6883F3088814
:100300001047FEE738BD00BF0080000804800008E9
:100310000C0000200D4A002310B5144652F823109B
:1003200021B152F82310013942F823100133042B74
:10033000F4D1074B93F80C3133B9A36823B90220E9
:1003400000F042FD3223A36010BD00BFDC07002097
:100350004C000020024BD860DA68002AFCD17047BC
:10036000DC0700202DE9F04F00268BB00746BE4D7C
:10037000DFF8FC822E70D8F80840029600F0ECFB03
:10038000DFF8FC920FB1C9F8007085F80C61C9F86C
:1003900008604FF0FF36012000F008FD27B1D9F8C2
:1003A0000030002B00F033820020FFF73BFF03906A
:1003B000039B002BF2DB012000F0EAFC039B213BB6
:1003C000102BE8D801A252F823F000BF1104000856
:1003D0002704000893040008970300089703000807
:1003E000970300082505000897030008CB050008BF
:1003F00089060008D30600082F0700087D070008BB
:100400004F07000897030008EB070008ED040008F9
:100410000220FFF717FF002800F00B82029B43F039
:100420000103029362E04FF47A70FFF7FBFEB0F134
:10043000000AC0F2FE810220FFF704FF002800F04E
:10044000F8810AF1FF30042800F2F381DFE800F0C0
:10045000030B0E11140004218448FFF7FBFE029BDE
:1004600043F00203DDE704218148F6E704218148D7
:10047000F3E704218048F0E71C273846043700F0F2
:10048000EBFB0421059005A8FFF7E4FE2C2FF4D127
:10049000E5E70220FFF7D6FE002800F0CA81029BA4
:1004A00003F00303032B40F0C48101234FF0000A43
:1004B000022085F80C3100F06BFC00F08FFB5046F9
:1004C00000F094FB0446F8B9022085F80C0100F016
:1004D0006DFCD8F80830A3421CD8029B002443F0DE
:1004E000040385F80C410293C9F808402B780BB936
:1004F0006B782B7041F21203022105A80027ADF89A
:100500001430FFF7A7FE46E750460AF1010A00F053
:10051000ADFBD4E7204600F09FFB013040F05C814A
:100520000434D6E73220FFF77DFEB0F1000BC0F2B5
:1005300080811BF0030240F07C810BEB0401D8F8B2
:100540000800814200F27581BBF5807F00F2718165
:10055000DFF830A151465A4516D1C820FFF772FE88
:10056000002800F066812CB94FF0FF32D5F81061F9
:10057000C5F810212BF0030303EB040B5C4515D1E8
:10058000029B43F008034CE74FF47A70CDE9002159
:10059000FFF748FE039003980028C0F24A810398B1
:1005A0000199009A01F8010B0132D4E7DAF8001042
:1005B000204600F02FFB204600F04EFB5AF8042B9B
:1005C000904240F009810434D8E70220FFF73AFE58
:1005D000002800F02E810027BA4631E0002F3DD1DF
:1005E000711C3BD00596D5F81422C2B92348134696
:1005F000082103F0010C5B08BCF1000F07D083F069
:100600006D4383F4380383F4034383F020030139FB
:10061000EFD1013240F8043BB2F5807FE7D105A964
:10062000002211F8013B013283EA0A03042ADBB2FB
:1006300005EB8303D3F8103283EA1A2AF1D1043789
:10064000D8F80830BB42C9D8042105A8CDF814A0B9
:10065000FFF700FE029B43F01003E2E6384600F08D
:10066000FBFA0590BFE700BF4C0000201C270008E4
:100670000C00002010000020140000205C0200206C
:10068000DC0700205C01002005AB4FF0000B9A4610
:1006900064200093FFF7C6FD0028C0F2CA800BF16A
:1006A000010B009BBBF1040F03F8010BF0D1059B7C
:1006B00002200093FFF7C6FD002800F0BA80009BDF
:1006C000184600F003FB594605905046FFF7C2FD5F
:1006D0000CE705AB4FF0000B9A4664200093FFF740
:1006E000A1FD0028C0F2A5800BF1010B009BBBF11E
:1006F000040F03F8010BF0D1059B02200093FFF7D4
:10070000A1FD002800F09580009B9A0740F09180A1
:10071000082B00F28E80184600F034FB59460590F5
:100720005046FFF797FD029B43F0400379E6022015
:10073000FFF788FD00287CD000F0D8FA042105904E
:1007400005A8FFF787FD029B43F0800369E60220BE
:10075000FFF778FD00286CD005A9142000F0CCFA32
:1007600007460421049004A8FFF774FD394605A844
:10077000FFF770FD029B43F4807352E66420FFF79D
:1007800051FD002855DB5FFA80FABAF11E0F50D8F0
:100790000220FFF757FD00284BD04FF4007000F007
:1007A0005BFA83464FF4017000F056FA264A9345EF
:1007B0003FD1264B98423CD125494FF400704AEA7C
:1007C0000101009100F026FA4FF4007000F044FAA5
:1007D000009988423FF48AAE41F21213022105A823
:1007E000ADF81430FFF736FDD5E54FF47A70FFF71A
:1007F00029FDF0B1731C0DD141F2120305A80221AD
:10080000ADF81430FFF726FD6420FFF7A3FD0BB011
:10081000BDE8F08F029B03F01B031B2B09D131466F
:10082000002000F0F7F9002000F016FA8642E3D02D
:10083000D2E741F21233022105A8ADF81430FFF7D8
:1008400009FD00230293A6E5FFECC2925D7D05C57C
:1008500000ECC2924978212909D0222909D0202907
:1008600009D11888062894BF002001207047034B47
:100870001360012070470020704700BF4427000824
:10088000104B37B504460025009302224023012176
:1008900000F0ECFE2046402302228221009500F069
:1008A000E5FE2046102303228321009500F0DEFEA2
:1008B000054B7F222121204603B0BDE8304001F0E6
:1008C00079BA00BFCD0800085508000830B591B0CE
:1008D0004023012100246A4600F0F0FE0546AC42A8
:1008E00001D311B030BD1DF804000134FFF7C8FC7E
:1008F000F5E70000024B186808B100F0ADBE704784
:100900005C0600201FB501211D4800F02DFD80214F
:100910001C4800F029FD4FF4C053002202211A4860
:1009200000F0BDFC4FF4C0520A21174800F0F2FC61
:10093000164C8023164A17480293231D02F10D011D
:10094000019303230093144B00F05EFE13492060D3
:1009500001F0EEF8124B1B68B3F5005F0AD1114AA3
:10096000136843F404131360D2F8CC3723F0020366
:10097000C2F8CC37432004B0BDE8104000F0F8BD09
:100980003038024034380240000002405C0600204B
:100990004B2700089C280008000000208108000860
:1009A0003C0000503800005010B50C4C432000F0C3
:1009B000EDFD206820B1012100F052FE00232360EC
:1009C000002207484FF4C053114600F068FC802114
:1009D0000448BDE8104000F0CBBC00BF5C0600201E
:1009E0000000024034380240034B1B680BB1FFF794
:1009F00055BC4FF0FF3070475C06002070B50B4EC1
:100A000005460C4632686AB970BD402C23462A461A
:100A10004FF0820128BF402330689BB200F046FEB1
:100A2000241A0544002CF0D1EEE700BF5C0600203C
:100A300010B5124C4FF4E131206000F0C1FC206889
:100A4000082100F0D1FC2068002100F0D6FC2068CD
:100A50000C2100F0DEFC2068002100F0D4FC2068AE
:100A6000002100F0DCFC2268936843F4805393601B
:100A70002068BDE8104000F0D8BC00BFEC070020A3
:100A8000014B186800F0D6BCEC07002008B5054BF8
:100A90001868C3699B0602D500F0E1FC08BD4FF061
:100AA000FF30FBE7EC07002070B504464518054E03
:100AB000AC4200D170BD14F8011B306800F0BFFCDF
:100AC000F6E700BFEC070020084B09491A6842F41A
:100AD00080721A600A6842F400420A60054A106097
:100AE0001A6822F480721A60704700BF00700040DC
:100AF00070380240502800400720704700221248FA
:100B00004FF48073114610B500F0C9FB00220F4C62
:100B10004FF4007311460C4800F0C1FB4FF4003154
:100B2000204600F025FC002208230948114600F069
:100B3000B6FB4FF08051204600F01AFC054B4FF4F5
:100B400080121A6010BD00BF000C02404038024005
:100B5000001002403038024008B5042000F0DCFCF0
:100B6000064B4FF47A70DB68584300F0CDFC00F080
:100B7000DFFCBDE8084000F0EBBC00BF0C0000202B
:100B800008B500F0DDFCBDE8084000F0E9BC00005D
:100B900010B50220002400F097FA022000F070FA4D
:100BA000094B01201C6000F0B1FA204600F0AEFABB
:100BB00000F0CEFA054B064A01201A6000F0ECFB6B
:100BC000044B1C6010BD00BF0838024004380240CE
:100BD000103000240C38024000F0F8B900F0E4B9FD
:100BE000014B1860704700BF08ED00E0074B1B8801
:100BF000B3F5806F0CBF07230B23834283BF044BE5
:100C000003EBC00040680020704700BF42F4F01FB3
:100C10002028000870B50F4C05460E4600F0DEF99E
:100C2000236805F1006023F4407300F50040236061
:100C3000236843F400732360236843F001032360B7
:100C40000660BFF34F8F00F0C9F9236823F001035A
:100C5000236070BD103C0240830703BF00F10060B9
:100C600000F50040006800207047000038B5154BC3
:100C700002461B88B3F5806F0CBF07230B2383420A
:100C80000AD900210D46914207D11046FFF7AEFF69
:100C900000210446A14206D338BD0846FFF7A6FF4F
:100CA00005440131EFE76818FFF7D6FF013001D1A5
:100CB0000431EFE7044B022113F83200BDE838405D
:100CC00000F0A6B942F4F01F2028000810F003033A
:100CD00009D1B0F5806F04D800F10050A0F5712063
:100CE0000368184670470023FBE70000014B1868B3
:100CF000704700BF002004E01F4B024618681F4BDE
:100D0000F0B5C0F30B061F8A000C5D69BE421C7E65
:100D100026D09F8BBE4225D01B8D9E4206D102233A
:100D2000174C0C2505FB03435D681C7AB0F5805F0A
:100D30001AD041F20103984208BF5A24013A013DFA
:100D40000B460A44934215D215F8016F581C6EB930
:100D50002C2582421D7001D9981C5C70401AF0BD90
:100D60000023DDE70123DBE74124E7E7034600F842
:100D7000016CE7E71846F1E7002004E00C000020D2
:100D80001C000020014BC058704700BF20F4F01F2A
:100D9000012802D0022804D070470021024800F048
:100DA0006FBA0821FAE700BF00100240012802D004
:100DB000022804D070470021024800F05FBA0821E1
:100DC000FAE700BF00100240012802D0022804D038
:100DD00070470021024800F059BA0821FAE700BF25
:100DE00000100240514A01215148136843F4700336
:100DF00070B513604F4B504A1B88203B9B02936099
:100E000000F0B2FA08214A4800F0AEFA082148483A
:100E100000F0AAFA4FF4807301220221474800F043
:100E20003EFA4FF4007301220221444800F037FAE1
:100E30004FF480720721414800F06CFA4FF40072C1
:100E400007213E4800F066FA4FF400313C4800F0BC
:100E50008BFA1021364800F087FA0823002201217E
:100E6000384800F01CFA002208233648114600F0EA
:100E700036FA0821334800F003FA4FF08051304829
:100E800000F072FA1021304800F0A2F92F4B3049DF
:100E90001A6842F480721A600A6842F400420A60DA
:100EA0002C4A11681A6822F480721A602A4B9942FF
:100EB00037D100240020FFF707FE2646274A284B9B
:100EC0001168284A1B6891420ED123F0FF01264A7F
:100ED000914209D1DBB21E2B06D84FF47A7200265C
:100EE00053439C4238BF1C464FF400711F4800F02A
:100EF000CAF9054630B92EB12C46FFF7DFF916487E
:100F0000FFF7E2FD01211A48FFF75AF902210020FC
:100F1000FFF756F920460024FFF724FAFFF7CEF931
:100F2000F8E741F288340126C8E700BF88ED00E009
:100F30003038024042F4F01F0C000020000C024048
:100F4000403802400010024078280008007000403D
:100F5000703802405028004007B007B004820008F3
:100F6000008200085D7D05C500ECC29200000240D1
:100F700000440040044B196821F4407119601A685C
:100F800042EA002018607047103C0240054B1A6886
:100F900022F00F0202431A601A6802F00F02824226
:100FA000FAD17047003C0240054A136843F0004301
:100FB0001360044B044A1A6002F188321A607047C9
:100FC000103C0240043C024023016745024A13687A
:100FD00043F0004313607047103C0240BFF34F8F53
:100FE000024A1368DB03FCD4704700BF0C3C02408C
:100FF000024A136843F4007313607047003C0240D8
:10100000024A136843F4807313607047003C024047
:1010100010B504460846FFF7E1FFFFF7ABFF0E49A6
:10102000E4000B68E4B223F0F8030B600B681C4388
:101030000C600B6843F002030B600B6843F48033D1
:101040000B60FFF7CBFF0B6823F002030B600B680C
:1010500023F0F8030B6010BD103C0240024A1368F5
:101060009B01FCD5704700BF00380240034A13685B
:1010700003F00303022BFAD1704700BF0838024087
:10108000042808D8DFE800F017120D0803000B4A07
:1010900013689B07FCD57047094A13689907FCD56C
:1010A0007047084A13689807FCD57047054A1368CB
:1010B0009B03FCD57047FFF7D1BF00BF74380240D7
:1010C0007038024000380240042809D8DFE800F0F8
:1010D00003090E1315000A4A136843F08073136066
:1010E0007047074A136843F48033F8E7044A1368EB
:1010F00043F00103F3E7034AF9E7034AF7E700BFC8
:10110000003802407038024074380240042809D880
:10111000DFE800F003090E1315000A4A136823F0F4
:10112000807313607047074A136823F48033F8E72D
:10113000044A136823F00103F3E7034AF9E7034A7B
:10114000F7E700BF003802407038024074380240B0
:10115000024A136823F400231360704700380240EA
:10116000034A136823F0030318431060704700BF5D
:1011700008380240034A136823F4604343EA4030CE
:101180001060704708380240034A136823F4E053A4
:1011900043EA80201060704708380240034A136811
:1011A00023F0F00343EA0010106070470838024053
:1011B00052081B06013A43EA02431843034B40EA34
:1011C000811141F480011960704700BF043802406A
:1011D00038B5044602200D46FFF776FF0220FFF7E0
:1011E0004FFF0020FFF7BCFF0120FFF76DFF01203C
:1011F000FFF746FF40F61C0000F0BFF8E07A00F071
:10120000D3F9237B0BB100F0E9F9207AFFF7C6FF91
:10121000607AFFF7B9FFA07AFFF7ACFF2188E8B248
:10122000E378A278FFF7C4FF104A136843F0807395
:101230001360FFF713FF6068FFF7A8FEFFF7D8FE03
:10124000FFF7DEFE0220FFF78BFFFFF70FFF22699B
:10125000074B02201A606269064B1A60A269064BAE
:101260001A60BDE83840FFF751BF00BF00380240A8
:1012700040000020440000204800002081617047A9
:10128000090481617047006908407047436901EAB9
:10129000030221EA030141EA0241816170472DE91D
:1012A000F04105680026C4684FF0030E43FA06F7C4
:1012B000FF070DD577000EFA07FC01FA07F802FACE
:1012C00007F725EA0C0524EA0C0448EA05053C4327
:1012D0000136102EEAD10560C460BDE8F081012915
:1012E00041680CBF19439943F0B5416000248168FF
:1012F000032643FA04F5ED0707D5650006FA05F75E
:1013000002FA05F521EA070129430134102CF0D136
:101310008160F0BDF0B50023076A4FF00F0C466AFC
:1013200042FA03F4E50707D59D000CFA05F401FA2B
:1013300005F527EA04072F430133082BF0D14FF0BE
:101340000F0C42FA03F4E40708D59C00203C0CFA89
:1013500004F501FA04F426EA050626430133102BAE
:10136000EFD107624662F0BD036819430160704720
:10137000036823EA0101016070474309012200F07C
:101380001F0003F1804302FA00F003F50E331968E1
:101390000843186070470000012802D0032806D0D7
:1013A0007047054A136823F4802313607047034A8B
:1013B000136823F00403F8E7003802407038024055
:1013C000064A074B90421B6804BF064B1B6801EBA3
:1013D00043034900B3FBF1F3C360704700100140C1
:1013E0004400002048000020036808290CBF23F4B3
:1013F000805343F4805303607047436823F44053A1
:10140000194341607047036823F4C06319430160C6
:101410007047036823F00C03194301607047836829
:1014200023F44073194381607047036843F001035C
:1014300003607047036823F001030360704713B52E
:101440000446019100F00FF80199204602B0BDE872
:10145000104000F000B8C1F3080181627047406A93
:10146000C0F308007047C3691B06FCD57047FEE750
:1014700070470000194B1A4A1A498B421AD31A4A6C
:10148000002193421BD3194A194C1368194D43F498
:1014900000731360536F43F470035367AC4211D36E
:1014A000154C164DAC4211D3154CFFF79BFC154D56
:1014B000AC420FD352F8040B43F8040BDDE743F8BA
:1014C000041BDEE754F8043B9847E7E754F8043B75
:1014D0009847E7E754F8043B9847E9E70000002005
:1014E000D02800084C000020F007002014ED00E098
:1014F000D0280008D0280008D0280008D0280008EC
:10150000D0280008D028000820F07F40014B186048
:10151000704700BF14E000E0044A00F004001368C4
:1015200023F0040303431360704700BF10E000E0A2
:10153000024A136843F002031360704710E000E0B2
:10154000024A136823F002031360704710E000E0C2
:10155000024A136843F001031360704710E000E093
:10156000024A136823F001031360704710E000E0A3
:101570004209054B00F01F0003EB8203012202FA2F
:1015800000F01860704700BF00E100E04209054B21
:1015900000F01F0003EB8203012202FA00F0186042
:1015A000704700BF80E100E00B4B1A6822F4404214
:1015B0001A6020B91A6842F440421A607047012844
:1015C00003D11A6842F40042F7E70228F6D11A68FC
:1015D00042F48042F1E700BF00700040084B1A68F7
:1015E00042F480321A60074A11461068C003FCD5E5
:1015F0001A6842F400321A600B689B03FCD57047EE
:1016000000700040047000402DE9F0411E46036860
:101610000546884617469847069BC360079B0361AB
:10162000BDF820308382094B0367094BC366094B21
:1016300083660023C0E90087C0E93233C0E9343350
:10164000C0F8DC508660BDE8F08100BFE11D0008F5
:10165000511E0008D31E0008D0F8DC305B6A184722
:10166000D0F8DC309B6A03B11847704710B4D0F84B
:10167000DC40A468A4465DF8044B604713B50368DA
:101680000021C1820446DB7900910A46FFF7EEFF94
:10169000D4F8DC3000215B6820469847E3691BB131
:1016A00002B0BDE81040184702B010BD10B4D0F829
:1016B000DC40E469A4465DF8044B604710B4D0F800
:1016C000DC40246AA4465DF8044B6047D0F8DC3067
:1016D0001B691847D0F8DC309B691847D0F8DC301C
:1016E0005B69184710B50B7873B94C887F2C0CD800
:1016F000D0F8DC30847593F830201AB149885B68E3
:10170000C9B29847012300E00023184610BDF8B580
:101710000D464988044679B103680D26587C00239C
:10172000984201D80020F8BD626806FB0322527976
:101730008A4203D00133F3E74FF0FF330133DBB2CA
:10174000E3754BB9D4F8DC302046DB689847D4F811
:10175000C830ABB90120E6E70D226FF00C0112FB97
:101760000312636813440022104619799142E9D9A3
:10177000D3F809101601715801B108700132F4E76D
:101780000023A3642365A365236604F1C80604F15E
:10179000D80756F8043B13B1698820469847B742EA
:1017A000F7D1D7E719881268012984BF0121198070
:1017B000C37D2BB141680D2000FB031313F8083CD7
:1017C00013700120704770B5C67D40686FF00C053E
:1017D0000D2414FB065420448D880479A5420CD2B4
:1017E00001241C808B88D0F809001B011B5803B111
:1017F0001B7812680120137070BD0020FCE7198867
:10180000022984BF02211980116800230B7012681D
:1018100001205370704710B514461A88022A84BFFD
:1018200002221A808988C9B2FFF754FF2368003862
:1018300018BF01201870236800225A70012010BDC3
:1018400008B589880122C9B2FFF740FF012008BD11
:1018500008B589880022C9B2FFF738FF012008BD0A
:1018600070B5C27D0D241D466FF00C0314FB0233CE
:1018700044688A881C442379934219D9D4F80940D2
:101880004B88160104EB021212799A4210D9A25920
:1018900052B11370D0F8D83013B14A88898898476C
:1018A00000232B80012070BD002BF3D01046FAE7F7
:1018B0000020F8E72DE9F04F4D881F462B0A022B38
:1018C00089B0144611D0032B00F0ED80012B40F0BD
:1018D000218102682260127839888A4228BF0A462C
:1018E0003A80012009B0BDE8F08FEDB205EB450864
:1018F0000369D0F80490136005EB88083C8819F858
:1019000008500293A54209EB080328BF2546194653
:10191000029803932A4600F0EDFD029B19F8088017
:10192000641B5E19A4B200230193039B1A79BDF8CE
:1019300004309A4204D8029BA3F802803D80D0E78D
:10194000019B019A1B010593039BD3F8093003EB1C
:101950000213D3F808A0BAF1000F14D09AF800903F
:10196000A14528BFA14630464A46514600F0C2FD77
:101970009AF80030A4EB09044D4498444E44A4B2B4
:10198000ADB21FFA88F800230493039B059AD3F89D
:1019900009301344BDF810201979914202D8019BF7
:1019A0000133C1E7049AD3F80CA0152101FB02F919
:1019B0000AEB09031AF809B00093A34528BFA34610
:1019C000194630465A4600F095FD1AF809309844F9
:1019D000009BD3F80D10A4EB0B045D445E44A4B24D
:1019E000ADB21FFA88F8B1B1D3F811A0A245A8BFD3
:1019F000A2461FFA8AF930464A4600F07BFD009B5A
:101A0000D3F81130A4EB09044D4498444E44A4B2D9
:101A1000ADB21FFA88F84FF00009009B1A791FFA3F
:101A200089F39A4202D8049B0133ADE7009BC9EBCE
:101A3000091BD3F80930079313F80B2003EB0B0AAB
:101A4000A24228BF224651463046069200F052FD7F
:101A5000079B069A13F80B30DAF80710A41A1544FE
:101A600098441644A4B2ADB21FFA88F8C1B1DAF8AE
:101A70000B20A242A8BF22461FFA82FB5A463046DC
:101A8000CDF818B000F036FDDAF80B30069AA4EB6A
:101A90000B045D4498441644A4B2ADB21FFA88F812
:101AA00009F10109B9E715F0FF0506690DD1092310
:101AB000B3700423F37033703B88042B28BF0423D6
:101AC0003B800323737026600BE78368013D0BB3F3
:101AD000C268AA421EDD898840F20942914219D1AA
:101AE00053F82550284600F0ABFD01304000C0B24D
:101AF00030703B88984228BF1846388000233A88C7
:101B00005208013A9A42DCDD06EB4302E95C51805F
:101B10000133F4E70020E5E61988022984BF022199
:101B20001980116800230B701268012053707047F0
:101B300010B5002300F1C80454F8042B2AB1013376
:101B4000042BF9D14FF0FF3010BD323340F8231091
:101B50001046F9E710B44C78092C13D8DFE804F0EC
:101B60000E12121212100C120A05084CA4465DF84F
:101B7000044B6047064CF9E7064CF7E7064CF5E7DF
:101B8000064CF3E700205DF8044B70470F17000880
:101B9000A5170008B5180008FF170008E51600088B
:101BA00010B44C780A2C07D00B2C07D044B9064C43
:101BB000A4465DF8044B6047044CF9E7044CF7E792
:101BC00000205DF8044B7047191B0008C717000878
:101BD0006118000810B44C78012C04D0032C08D0F4
:101BE0001CB9094C09E04C885CB100205DF8044B3D
:101BF00070474C88002CF8D1044CA4465DF8044B87
:101C00006047034CF9E700BF1718000841180008A7
:101C10005118000810B40C7814F0600F12D104F0C1
:101C20001F04012C06D0022C08D05CB95DF8044BCF
:101C3000FFF790BF5DF8044BFFF7B2BF5DF8044BB0
:101C4000FFF7C8BF00205DF8044B704710B50122B4
:101C500004460021FFF73AFD002384F82C3010BD24
:101C600070B50368828FC48EDB79816BA41A9C42A5
:101C7000A8BF1C46A6B20A44334600210546FFF71A
:101C80001DFD864205D02846FFF7E0FF4FF0FF30EC
:101C900070BDAB8F1E44AE87A0B2F9E710B50368E4
:101CA000826BD979838F994204460FD20B4600216B
:101CB000FFF7FCFC022384F82C302368A26BD9794F
:101CC000A38F0A445B1AA263A38710BD0021FFF70C
:101CD000EDFC94F84430002B14BF0223032384F856
:101CE0002C30002384F84430A387A363EDE72DE96B
:101CF000F04100F1380286B00446054600F12008A4
:101D000000F13C0300F14007AE6C2EB9204606B04E
:101D1000BDE8F041FFF77EBF087895F84DE095F8F3
:101D20004CC000EA0E00844503D008354545EBD190
:101D3000ECE700972046CDE904230391B047012842
:101D4000DDE90312059BF0D806B0BDE8F08138B597
:101D5000036983638B79CA7943EA02238387044644
:101D60000D46FFF7C4FF00B3EB88ABB1A28F21682B
:101D70009342C9790ED932B1B2FBF1F301FB1322C0
:101D8000B2FA82F2520984F844202046BDE8384075
:101D9000FFF784BF0022F6E71A4619462046FFF7F0
:101DA00085FC042384F82C3038BD2046BDE838403B
:101DB000FFF74CBF70B5002500F1480656F83540D6
:101DC0002CB10135042DF9D14FF0FF3070BD00EB7F
:101DD000C50080F84C1080F84D2083642046F5E75C
:101DE00070B5002500F1300604460564012229463D
:101DF000FFF774FC0823324629462046FFF75EFCB5
:101E0000082804D02046BDE87040FFF71FBFE28ECF
:101E10002AB931462046BDE87040FFF798BF94F9D3
:101E20003030002BF5DBA38A9342EBD32369A36305
:101E30002368A587DB79934234BF0523062384F802
:101E40002C302A4629462046BDE87040FFF746BCA4
:101E500010B590F82C30062B044612D0072B27D053
:101E6000052B21D1FFF7FCFE002809DBA28FE38EB2
:101E70009B1A2268D279934202DC062384F82C3024
:101E800010BDFFF7EDFE0028FADB04F1300120461B
:101E9000FFF72DFF38B100231A4619462046FFF7F9
:101EA00005FC0423EAE72046BDE81040FFF7CEBE5C
:101EB00000231A461946FFF701FC002384F82C3052
:101EC000236C1BB104F130012046984700232364A2
:101ED000D6E710B590F82C30032B044607D0042B1E
:101EE0000ED0022B23D1BDE81040FFF7D7BE072349
:101EF00080F82C300022BDE810401146FFF7EEBB01
:101F0000036C13B100F13001984794F8303053B9A5
:101F100094F83130052B06D1618ED4F8DC30C9B28B
:101F20005B6820469847002384F82C3010BDBDE83C
:101F30001040FFF78BBE000008B540F28760FFF746
:101F40001CFA254A136843F040031360234B1946DB
:101F50001A68002AFCDA1A6842F001021A600B685B
:101F6000DB07FCD41E4B1F481B68B3F5005F1E4BFC
:101F70001A682CBF42F4041242F410221A601B4A61
:101F8000136823F002031360A2F5FF62136843F0A5
:101F9000804343F470531360154B02221A60154AB4
:101FA000136843F003031360134B00221A60134AB3
:101FB00080231360A0F8E03052F81C3C43F001038A
:101FC00042F81C3C0E4B0F4A1A600F22C3F804283B
:101FD0000122C3F8F82708BD0C0000501000005083
:101FE0003C000050E006002038000050040800507B
:101FF0001400005000080050000E00502400005053
:102000001800005010280480D0F8DC30DA6AD2F8CA
:10201000003823F4FE6343EA0111C2F80018704748
:102020002DE9F047D0F8DCE0089FDEF82C5011F0E5
:102030007F0603F07F043ED13F2B31D9C5F80069FC
:10204000DEF82C20C2F81049DEF82C10D1F8002957
:1020500042F00842C1F80029DEF82C2044F0005478
:1020600044F40024C0F8E840C2F8104BDEF82C100D
:10207000D1F8002B42F00842C1F8002BBEF8322004
:10208000DEF82C109B0842EA03428A62B0F8E02096
:1020900013449BB2A0F8E030A0F8E230BDE8F0872E
:1020A0001F2B03D90122C5F80029C9E70F2B8CBFCC
:1020B00002220322F7E709064FEA461C4FEA824252
:1020C00026D5B0F8E090990806F1400849EA014A9F
:1020D00045F828A04944A0F8E010DEF82C1001F5DE
:1020E000116142EA865241F80C400CF51061DEF8AD
:1020F0002C4013430D5943F0184343F400432B4342
:102100000B51002FCAD00C2303FB06008766C5E7DE
:1021100006F13A0105F5316544F4002440F8214008
:1021200045F80C400CF53061DEF82C4013430D5996
:1021300043F0144343F400432B430B51002FADD025
:102140000C2303FB0600C766A8E7B0F8E230D0F81E
:10215000DC2010B5A0F8E0304FF43263D16A585853
:102160000028BEBF585840F080405850A3F500707A
:10217000D16A4458002CB8BF445803F12003BCBFB7
:1021800044F080444450B3F5386FE7D1D36A4FF43C
:1021900086621A6110BD10B5D0F8DC40E06AF1B972
:1021A000D0F800395AB143F40013C0F8003958315F
:1021B000E26A49018B5843F400138B501AE023F470
:1021C0000013C0F800395831E26A49018B5823F4F2
:1021D00000138B50E26A8B5843F08053EDE70B06F7
:1021E00013D501F07F0348335B0122B11A5842F442
:1021F00000121A5010BD1A5822F400121A50E16A47
:102200005A5842F080525A50F4E7002ACFD1DAE708
:102210000A06D0F8DC3046BF01F07F014831583162
:10222000DB6A4901C858C0F3405070470B060CD414
:102230004318583183F8E420D0F8DC304901DB6AD8
:1022400022B1CA5842F00062CA507047CA5842F0E0
:102250008062F9E7F0B5D0F8DC60F06A01F07F0445
:10226000610100F5116045582D0316D443F4002791
:10227000475001F51061F76AC85940F00440013435
:10228000C8511D462403002D01DC1846F0BDF16A3B
:1022900052F8040B6050043DF5E70023F5E737B52D
:1022A000B0F8F8509D4228BF1D46014614462B4603
:1022B000032B1FDCA8086FF0030303FB005302EBA2
:1022C0008000A3B1D1F8DC20B1F8F840D26A032C29
:1022D00002F5805288BF043C126801928CBFA4B200
:1022E0000024A1F8F8401A4601A900F003F9284695
:1022F00003B030BDD1F8DC00C06A00F58050043B6B
:10230000006844F8040BB1F8F8000438A1F8F800AC
:10231000CEE7D0F8DC30DA6A2DE9F047556915F4DC
:102320000056044609D05B8E4FF400515161BDE860
:10233000F047A0F8E030FFF7A1B900F168084FF0CE
:102340000C094FF0010AD4F8DC30DB6A770103F6A0
:102350000813DB59DA070ED509FB06F358F80330EA
:1023600013B1F1B220469847D4F8DC30DB6A03F6AB
:10237000081343F807A00136042EE4D1EB0648D534
:10238000D4F8DC00C36A1A6A02F4F016B6F5C02F5E
:1023900002F00F0102D0B6F5002F18D101F13A0575
:1023A0004A0103F5316354F825509D502144C56A14
:1023B00091F8E41002F5306300295A5914BF4FF028
:1023C00008414FF004410A435A51BDE8F087B6F581
:1023D000802F73D0B6F5402FF7D14E0103F511676A
:1023E000BF593F0340D4022001EB410303441A3399
:1023F000C2F30A1254F82330A4F8F8200BB1204697
:102400009847B4F8F8100023994259DC0023A4F847
:10241000F8302A0508D5236A03B19847D4F8DC3090
:10242000DB6A4FF400625A61002D08DA636A03B177
:102430009847D4F8DC30DB6A4FF000425A612B0732
:1024400007D5A36A03B19847D4F8DC30DB6A0822C9
:102450005A61D4F8DC30A26ADB6A002A38D09A6963
:1024600042F008029A61B0E706F5106C53F80C7060
:1024700047F0006743F80C70C76A07F60813334447
:10248000D3F800E01EF0400FFAD05CF807309B0D47
:10249000D7F810E0BEF1000FFADA9B0103F4707375
:1024A00043F020033B61C36A03F5116300279F518A
:1024B000C36A103318688006FCD494E7012093E7C0
:1024C000D4F8DC20D26A02F58052043312689BE70C
:1024D0009A6922F00802C5E7D0F8DC30DB6AD3F84D
:1024E000042821B142F00202C3F80428704722F008
:1024F0000202F9E7844641EA000313F003036DD1B9
:10250000403A41D351F8043B40F8043B51F8043BB6
:1025100040F8043B51F8043B40F8043B51F8043BBD
:1025200040F8043B51F8043B40F8043B51F8043BAD
:1025300040F8043B51F8043B40F8043B51F8043B9D
:1025400040F8043B51F8043B40F8043B51F8043B8D
:1025500040F8043B51F8043B40F8043B51F8043B7D
:1025600040F8043B51F8043B40F8043B51F8043B6D
:1025700040F8043B51F8043B40F8043B51F8043B5D
:1025800040F8043B403ABDD2303211D351F8043BFD
:1025900040F8043B51F8043B40F8043B51F8043B3D
:1025A00040F8043B51F8043B40F8043B103AEDD2AC
:1025B0000C3205D351F8043B40F8043B043AF9D2FD
:1025C000043208D0D2071CBF11F8013B00F8013BD0
:1025D00001D30B8803806046704700BF082A13D3DD
:1025E0008B078DD010F003038AD0C3F10403D21AF5
:1025F000DB071CBF11F8013B00F8013B80D331F829
:10260000023B20F8023B7BE7043AD9D3013A11F8A8
:10261000013B00F8013BF9D20B7803704B78437013
:102620008B78837060467047000000000000000057
:10263000000000000000000000000000000000009A
:1026400090F800F06DE9024520F007016FF0000CF2
:1026500010F0070491F820F040F049804FF000049A
:102660006FF00700D1E9002391F840F000F1080075
:1026700082FA4CF2A4FA8CF283FA4CF3A2FA8CF3AD
:102680004BBBD1E9022382FA4CF200F10800A4FA14
:102690008CF283FA4CF3A2FA8CF3E3B9D1E9042368
:1026A00082FA4CF200F10800A4FA8CF283FA4CF39F
:1026B000A2FA8CF37BB9D1E9062301F1200182FA59
:1026C0004CF200F10800A4FA8CF283FA4CF3A2FA5F
:1026D0008CF3002BC6D0002A04BF04301A4612BA6D
:1026E000B2FA82F2FDE8024500EBD2007047D1E970
:1026F000002304F00305C4F100004FEAC50514F0FF
:10270000040F91F840F00CFA05F562EA05021CBFCF
:1027100063EA050362464FF00004A9E705000000E4
:10272000334420526F626F74696373004D696E6445
:1027300050582047656E2E3320463720424C0030DB
:102740000000000000C201000000080902000002B1
:10275000010080FA6C27000812010002020000400C
:10276000AC26390001010102030100000000000055
:102770000100000000000000A12700080000000088
:1027800001000000000000008C270008090401007F
:10279000020A000000C92700080000000000000035
:1027A00000090400000102020100E7270008B62723
:1027B0000008130000000524001001052401000199
:1027C000042402000524060001070501024000015F
:1027D0000000000000000000070582024000010028
:1027E00000000000000000070583031000FF000048
:1027F00000000000000053544D3332463F3F3F3F3E
:102800003F3F0053544D333246375B347C355D785F
:102810000053544D333246375B367C375D780000C9
:1028200001000000008000000200000000800000A5
:10283000030000000080000004000000000002000F
:102840000500000000000400060000000000040075
:102850000700000000000400080000000000040061
:1028600009000000000004000A000000000004004D
:102870000B00000000000400B00102090700000086
:1028800000050400010000000000000080F937038B
:1028900000F36F060010410001105A00391F0008B4
:1028A00009200008212000084B210008972100087A
:1028B0002D22000811220008552200089F2200083E
:1028C00013230008D92400080000005001008000F4
:1028D000202700082C2700083F270008BC00000024
:1028E0000000000000000000A80000000000000040
:1028F000F62700083F0000004904000003280008F4
:102900003F00000051040000112800083F000000B3
:0C2910000024F4000024F4000024F40073
:0400000508000000EF
:00000001FF
