:020000040800F2
:10000000EA17002425030008A9020008A902000835
:10001000A9020008A9020008A9020008A902000814
:10002000A9020008A9020008A9020008A902000804
:10003000A9020008A9020008A9020008A9020008F4
:10004000A9020008A9020008A9020008A9020008E4
:10029000A9020008A90200080000000000000000F8
:1002A000FFECC2925D7D05C5EFF305801EF0040FE3
:1002B00002D0EFF309818D466A4602F16802EFF33E
:1002C00011832DED108A2DE9FC4F69466C46DFF84D
:1002D00050D000F001FA2146884213D000F16C01A1
:1002E000B1E8F00FB1EC100A91E80C00016821E9C7
:1002F0000C0021ED100A21E9F00FB0E8FC4F90EC62
:10030000108A03E0B1E8FC4FB1EC108A1EF0040F34
:100310000CBF81F3088881F3098883F31188704743
:10032000E002002408B51F4A00211F4B934231D33D
:100330001E4A1F4B1F498B422FD300F01BF9EFF3CE
:10034000148343F0040383F314881B4A1368A2F553
:10035000D67223F04043C2F8AC31136843F4700303
:10036000136000F05DF9BFF34F8FBFF36F8F134A37
:10037000136823F001031360536823F001035360F3
:10038000BFF34F8FBFF36F8F00F03DFC00F008FA12
:1003900000F04CFC43F8041BC8E752F8040F43F884
:1003A000040BC8E7FC140024E00000243CA0000873
:1003B00000000024DC00002434EF00E090EF00E0B7
:1003C000594B82B01A6822F4802242F480321A60BB
:1003D000564A0192019A002A00F39F80019B002B4C
:1003E00040F39980524A5349136823F4706323F011
:1003F0000F0343F0080313600B6823F4E06343F03A
:1004000040030B600B6823F4E06343F480630B60EC
:10041000136823F0700343F040031360936823F0E4
:10042000700343F040039360434B444A283B9A6275
:10043000434A1A63434A9A6302F500321A64424AF5
:10044000DA621A6842F0A8521A601A689201FCD562
:100450001A681001FCD5344A13689900FCD53B4A50
:10046000136843F006031360394B1A6842F44042A4
:100470001A601A689204FCD536490A689004FCD5C3
:1004800035490A6842F002020A6034490A6842F0BB
:1004900001020A601A689204FCD5314B22221A60CC
:1004A000304B1A6822F0070242F003021A601A6801
:1004B00002F03802182AFAD12B482C4A036823F498
:1004C000405343F400530360136823F4407343F430
:1004D00000731360264B196821F4E04141F4805108
:1004E0001960196821F4E02141F480311960116824
:1004F00021F0E04141F080511160016821F4401188
:1005000041F400110160116821F4403111601A6852
:1005100022F040521A6002B070471A6891033FF50A
:100520005DAF019A013A54E70044025848BE2100E9
:10053000184402581C440258284402581220200033
:10054000770203072F0201018808BF000C480258F8
:100550001848025804480258F44402582C04005821
:100560000020005210440258544402585844025883
:100570005044025808B5204B012100201A6842F06F
:1005800001021A601D4A11601D4A10601D4A196857
:100590000A401D4942F010021A601C4A11601A6894
:1005A00022F480221A60186600F07AF8FFF708FF3C
:1005B000174A136843F0006343F001031360154BBF
:1005C0001A681A6053F8082C43F8082C124A13686A
:1005D00043F0805343F09F031360104B1A681A6076
:1005E0005A685A609A689A6053F8042C43F8042CAD
:1005F000DA68DA6008BD00BF004402580881005183
:100600001044025867EFFEEA0000FF012C44025834
:10061000D8440258DC440258E0440258E8440258E6
:100620007047FFEC30B4EFF3118400238022EFF326
:10063000108372B682F3118883F31088BFF34F8F53
:10064000154B164A1B68118803F4807578B1013187
:100650001180B5B112886AB10023BFF34F8FE4B2A5
:1006600084F31188B3B1042030BC00F05CB831B120
:100670000139EDE723F48073074A1360ECE7002D9E
:10068000F8D11288002AE7D043F48073024A13603D
:100690000123E2E730BC704700480258E002002422
:1006A000EFF3118200238021EFF3108372B681F300
:1006B000118883F3108806490B6823F480730B605C
:1006C0000021044B1980D3B283F31188FFF7AABF2E
:1006D00000480258E0020024F8B5074C07460D46D2
:1006E0002668216000F03DF93846294600F0B6FB47
:1006F00020682660F8BD00BFE402002430B5EFF3A7
:10070000118400238025EFF3108372B685F31188DE
:1007100083F31088036823EA0101E3B20A4302600D
:1007200083F3118830BD82B0002245F26161B0F5DB
:100730007A7F0BD8002240F6A201642811D800224B
:100740000A2818D8002200BB02B070470192019B12
:100750008B4202DDA0F57A70E9E7019B013301933A
:10076000F5E70192019B8B4201DD6438E5E7019BCF
:1007700001330193F6E70192019BDC2B01DD0A387E
:10078000DEE7019B01330193F6E70192019B152BF4
:1007900001DD0138D7E7019B01330193F6E7FFEC58
:1007A000BFF34F8FBFF36F8F064B00221A60064ACC
:1007B000136843F400331360BFF34F8FBFF36F8FA1
:1007C000704700BF50EF00E014ED00E00F2810B5B7
:1007D00031DDA0F110041F2C0ADC03F1604303F5A6
:1007E00061430B60012303FA04F4146000201CE051
:1007F0003F2C08D81C4C30381C440C60012303FAF1
:1008000000F01060F2E75F2C04D8184C50381C44FC
:100810000C60F3E77F2C04D8154C70381C440C6036
:10082000ECE7952C02D94FF0FF3010BD114C9038F9
:100830001C440C60E2E7104B04280B6003D14FF41A
:1008400080331360D2E7052802D14FF40033F8E774
:10085000062802D14FF48023F3E70F28E3D1074B9A
:100860000B600123EDE700BF04E100E008E100E0D8
:100870000CE100E010E100E024ED00E010E000E019
:1008800038B51B4B4FF0FF311A4A1C6804F00F04B7
:1008900001342346013B42F8041BFBD1164AE40015
:1008A000164B174D1A604FF08033164A1360A2F6AC
:1008B00018122B60C2F82039013C42F8043BFBD1EE
:1008C000114B224611490B201C6000F09FFA224672
:1008D0000F49032000F09AFA2B6823F07F4343F07E
:1008E000E0432B60F02383F3118862B638BD00BF6C
:1008F00004E000E080E100E00000000808ED00E016
:100900001CED00E018ED00E0E40200248909000875
:100910006509000813B5802301AA69460446FFF75C
:1009200055FF20B90F2CDDE9003102DD196002B05E
:1009300010BD1A6822EA01021A60F8E713B5002315
:1009400001AA69460446FFF741FF20B90F2CDDE9F3
:10095000003102DD196002B010BD1A680A431A6046
:10096000F9E7704708B5EFF3118300238022EFF316
:10097000108372B682F3118883F3108887210148AF
:1009800000F036F9689A0008CB6E012B10B50C46C2
:1009900009D003D3022B0AD0002010BDD422086F47
:1009A00000F01EF8F8E70A6F044B1A60F4E7D4224F
:1009B000086F00F015F8626FF6E700BFE40200244C
:1009C00018DF88DFCD06CD767CD30CD3D982D9123F
:1009D0002C00050A0F14191E232800BFAFF3008056
:1009E00000B501B400F004F801BC00BDAFF3008015
:1009F00000B5042A60DB00F0030E61F3830E7A4B2E
:100A0000D3E80EF0AFF30080AFF30080AFF30080C7
:100A100011F8013B00F8013BA2F1010211F8013B82
:100A200000F8013BA2F1010211F8013B00F8013B83
:100A3000A2F101022DE9F01F282A07DBB1E8F81F17
:100A4000A0E8F81FA2F12802282AF7DADFF89CE1D3
:100A50004FEA920BDEE80BF051F8043B40F8043B00
:100A600026E0B1E81800A0E8180021E0B1E838005D
:100A7000A0E838001CE0B1E87800A0E8780017E0B2
:100A8000B1E8F800A0E8F80012E0B1E8F801A0E849
:100A9000F8010DE0B1E8F803A0E8F80308E0B1E8D8
:100AA000F807A0E8F80703E0B1E8F80FA0E8F80FAE
:100AB000BDE8F01F02F00302002A08BF00BD11F8D4
:100AC000013B00F8013B013A08BF00BD11F8013BB2
:100AD00000F8013B013A08BF00BD11F8013B00F8E6
:100AE000013B00BDAFF30080AFF30080AFF30080A7
:100AF00011F8013B00F8013BA2F1010211F8013BA2
:100B000000F8013BA2F1010211F8013B00F8013BA2
:100B1000A2F10102282A35DB2DE9F01FB1E8F81F08
:100B200020F8023B4FEA134364F31F434FEA144497
:100B300065F31F444FEA154566F31F454FEA164615
:100B400067F31F464FEA174768F31F474FEA1848F5
:100B500069F31F484FEA19496AF31F494FEA1A4AD5
:100B60006BF31F4A4FEA1B4B6CF31F4BA0E8F80FC7
:100B70004FEA1C4C20F802CBA2F12802282ACDDA39
:100B8000BDE8F01F042A97DB51F8043B20F8023B34
:100B90004FEA134320F8023BA2F10402BAE711F82E
:100BA000013B00F8013BA2F1010211F8013B00F802
:100BB000013BA2F1010211F8013B00F8013BA2F157
:100BC0000102042AFFF678AF51F8043B00F8013B1C
:100BD0004FEA132320F8023B4FEA134300F8013B8E
:100BE000A2F10402EDE70000C0090008D0090008E6
:100BF00008B501F0ADFB012000F09EFB08B5012017
:100C000000F09AFB704700F009B8002070470021FF
:100C1000084601F049BA04F0C9BDFFEC014801F0F3
:100C200093BA00BF080C02007047FFEC514E01233D
:100C30000024514D33704FF4B472504B05F5A47835
:100C400083B54F4F214628463C607C601C605C6049
:100C50004C4B1C605C604C4B1C605C604B4B1C60E4
:100C60005C604B4B1C605C6003F0C0FE03231822E9
:100C700048494046AB76484BC5E904330623AB836D
:100C800003F00CFF454B39462846C5F86431C3E9EB
:100C9000008403F069FD424B01A968461D600223F0
:100CA000404C337001F030FADDE9000103F062FAE4
:100CB000042323602368012B50DD2068C00003F06B
:100CC0006FFA0022384B4FF6FF7C174618602068F9
:100CD0001968904245DC226800240D601B68264894
:100CE0009C80297F00F046FB234801F0F3FB18218C
:100CF000214801F0C1FCAB689B6803601E4800F00E
:100D000053FBAB6801221A71284B1C8003233370FC
:100D100006F0BCFD264B0BB100F07EFB254B0BB162
:100D200001F096F9244B0BB107F086FA234B0BB177
:100D300000F0C2FF01F0AEFB04230F48337000F057
:100D400055FB05F0BFFD00F0B9F80523337000F046
:100D50004BF800F0C1F801F0E2FCFCE723685B000F
:100D6000A7E741F83270196801EBC2010132A1F81E
:100D700004C0ACE768040024F00200246C040024E2
:100D8000780400248C0400249404002484040024A7
:100D900058040024809A00082D0C0008E802002462
:100DA00080040024640400247404002460040024EB
:100DB000191400085120000839820008B91C0008E5
:100DC00013B50024FFF723FF054B4FF4386200945E
:100DD0006421044800F0D9F8204602B010BD00BFDD
:100DE000DD930008D79A000813B50024054B4FF493
:100DF0000062FE210094044800F0E0F8204602B0B2
:100E000010BD00BFC10D0008CC9A0008A52870B520
:100E100006460C461AD8EFF3118500238021EFF324
:100E2000108372B681F3118883F310881CB9FFF721
:100E300071FD2246074C0848EDB240F8364000EB01
:100E4000C600426085F31188002070BD6FF0150068
:100E5000FBE700BF990E00089C040024A52808B5F4
:100E60000CD8094A52F830305BB102EBC00252682C
:100E70009847064B1A68064B1A6008BD0022054BBE
:100E8000F6E71A46FBE700BF9C0400247804002420
:100E900080040024990E000808B5EFF311830023A5
:100EA0008022EFF3108372B682F3118883F31088E7
:100EB00033210148FFF79CFEDC9A0008054B10B572
:100EC0001C682CB101F038FB10B9E38B0133E383CC
:100ED000002010BD7804002438B5144B1C6814B3EE
:100EE00001F02AFBF8B9EFF3118500238022EFF31C
:100EF000108372B682F3118883F31088B4F91E3020
:100F0000002BC4BF03F1FF33E383B4F91E30002B81
:100F100006DC0023E383064B1B680BB101F014FBD6
:100F2000EDB285F31188002038BD00BF780400249D
:100F30006C0400242DE9FF4104464FF4B470884648
:100F400016461F4603F03CF90546D8B10C9B2146D6
:100F5000A0F81C80324602930B9B01930A9B0093DE
:100F60003B4600F035F8041E06DA284603F010F977
:100F7000204604B0BDE8F0812846B5F90C4000F0E9
:100F8000A5F9F5E76FF00B04F2E71FB5069C009298
:100F90000A46CDE9013400231946FFF7CBFF04B020
:100FA00010BD1FB5079C0294069CCDE90034134682
:100FB0000A460221FFF7BEFF04B010BD13B5049C22
:100FC000CDE9003413460022FFF7EBFF02B010BD5D
:100FD0002DE9F347067F89460446924631461F466F
:100FE000DDF8288000F0C6F9051E44DB204606F037
:100FF000030600F006FA051E38DB77B14246394693
:10100000204601F075FB051E32DB1821204601F059
:1010100033FB88B96FF00B0528E0324608F1180160
:10102000204601F0FDF9051EEFDAA36B03B331464C
:10103000204601F0A5FA1BE0A3685146104A9B68C0
:101040000360204600960B9B00F01EF8051E0DDB8A
:101050000C9A4946204600F0CFF8204600F0A4F94B
:10106000054640B10749204603F08AFB002FDCD03B
:10107000204600F0A1F9284602B0BDE8F08700BF85
:10108000F1120008580400242DE9F04F85B0044601
:10109000CDE900120293EFF3118600238022EFF3D3
:1010A000108372B682F3118883F31088DFF84081D1
:1010B000DFF84091C246B8F8003000204A4F0133B3
:1010C000D9F800B039461BB23D68A8420EDB38683B
:1010D0000391000103F064F80399054600284FD1FD
:1010E000F6B286F311886FF00B0042E0012B3D68E9
:1010F000B8BF0123013D1D404FEAC50C5BF83550D8
:101100000BEB0C0E002D37D1CEF80040F6B2D9F81B
:101110000020AAF800309444ACF80430A38186F390
:1011200011889DF800302946032023766376019BC1
:101130002361029B6361A38B23F003029DF8383087
:1011400003F00303134304F1440223F0C003A38319
:1011500000F0C2F92046A57601F0BCF9FFF7AEFE1B
:101160002249204603F000FB0423A376FFF7B4FED8
:10117000284605B0BDE8F08F013301301BB2A3E76C
:101180003B684FF6FF7C5B003B6000231F4608680E
:1011900083420FDB584600274FF0020C0B680830E3
:1011A00093FBFCF39F420DDB584602F0F1FFC9F8B8
:1011B000005080E705EBC30045F833700133A0F819
:1011C00004C0E4E70B68013730F904EC013B50F848
:1011D000082C0EEA030305EBC30E45F8332030F963
:1011E000043CAEF80430D9E7640400245804002419
:1011F0006004002474040024334B2DE9F74F0029C8
:1012000014BF8946994605460024174649461822C8
:1012100000F5A47003F042FC85F86041484603F0F5
:1012200035FC461C2FBB3C4602342846A400A119BD
:1012300001F022FA8246002842D000EB0408083C64
:10124000043FC0F80080484603F020FC06464946AB
:1012500054440136D1464046464403F00FFC4C4509
:101260001AD1002048F8040CC5F864A103B0BDE809
:10127000F08F40F2011857F824000028D4D003F072
:1012800005FC01306B6B06449E4216D20134444586
:10129000F1D16FF00600E9E749F8046F57F8041F31
:1012A0000846019103F0F2FB8346019930460BF1A9
:1012B000010B03F0E3FB5E44D1E76FF05A00D5E782
:1012C0006FF00B00D2E700BFF49A000810B5EFF3FF
:1012D000118400238022EFF3108372B682F3118809
:1012E00083F3108801F0E4F9E4B284F3118810BDAF
:1012F00038B5104B1C68204600F0CAFBD4F86421B6
:10130000012040F2011152F820304BB9A38B6569DE
:1013100003F00303022B08D11146A84700F00CF894
:1013200001308842EFD10120F8E70146284603F05A
:1013300035FAF8E77804002408B5054BC4B200225A
:101340001B682146184600F0C9FB204601F08CF8C6
:101350007804002410B5044658B1806820B100F02C
:10136000A3F8A06802F014FF2046BDE8104002F088
:101370000FBF10BD38B505464FF4867002F020FF50
:10138000044670B1342002F01BFFA06030B101228E
:10139000002103F02DFA0020AC6038BD2046FFF795
:1013A000D9FF6FF00B00F8E7B0F90C20836800203C
:1013B0001A8001225A71704738B58468054634B1E5
:1013C0006379012B04D9013B63710023AB6038BD05
:1013D000204600F065F904F1200006F086FA204668
:1013E00003F026F92046FFF7B5FFEEE710B50446F7
:1013F0008068203006F075FA2046BDE8104000F005
:10140000B0BB10B504468068203006F06AFA20466A
:10141000BDE8104000F0A5BB0023074A10B41846F1
:10142000064C9C50D11808334860B3F5A66FF8D12C
:101430005DF8044BFFF724BA9C040024990E0008C1
:1014400070B5044650B3B0F90C00E0B1EFF311826F
:1014500000238025EFF3108372B685F3118883F3A0
:1014600010880F4B00261B68013B03400D480568A0
:1014700045F83360006800EBC3034FF6FF709880B7
:10148000D3B283F31188A36B13B1204601F078F82F
:101490002046FFF791FF204602F07AFE002070BD43
:1014A000640400247404002430B103881B0401D4B4
:1014B00001230380002070476FF01500704710B5BE
:1014C000FFF7F2FF041E05DA644203F08CF80460B3
:1014D0004FF0FF34204610BDF8B51746194B0646AD
:1014E0000C461D68FFF7EAFC0FB16B6C3B60D4B192
:1014F000EFF3118300228021EFF3108272B681F3A3
:10150000118882F31088022E11D0032E14D0012EE0
:1015100014D16A6C21680A4300246A64DBB283F345
:10152000118800F011F8FFF7D7FC2046F8BD2168BC
:101530006A6C22EA0102EFE72268EDE76FF015041A
:10154000ECE700BF78040024174B37B51D68FFF7A0
:10155000B5FC6C6C284600F09DFCE443044001940B
:1015600024B9FFF7B9FC204603B030BD01A800F054
:101570006FF8431C044610D0014601A803F060F93F
:101580002146284600F012F8044630B1011D2846D5
:1015900000F09AF8204600F02DF8019B002BE5D1D1
:1015A000FFF79AFC0120DFE77804002438B5836850
:1015B000EFF3118500228020EFF3108272B680F3E2
:1015C000118882F3108800205C6974B122798A4204
:1015D00006D103F1140130B9084603F09FF804E086
:1015E00020462468F1E703F0A3F8EDB285F31188F3
:1015F000204638BD10B5037B83B9EFF311848022F8
:10160000EFF3108372B682F3118883F310880E49CA
:1016100003F064F8E4B284F3118810BD022B0CD1FE
:10162000EFF3118400238022EFF3108372B682F36C
:10163000118883F310880549EAE7012BEDD1BDE855
:10164000104002F0A5BD00BFEC090024E40900240D
:1016500038B5054601242146284603F002F920B991
:101660000134202CF7D14FF0FF34204638BD38B577
:10167000044600F14C05284603F050F850B904F137
:101680005405284603F04AF838B94FF0FF32C4E950
:10169000112038BD00F058FCEDE700F055FCF0E7F4
:1016A00038B5044600F10C05284603F037F828B990
:1016B0001434204603F032F818B938BD00F06EFB40
:1016C000F2E7FFF797FFF4E72DE9F0410E460978BE
:1016D000044629B3443003F0C4F8012807467ED1FC
:1016E000EFF3118500238022EFF3108372B682F3AB
:1016F000118883F31088A37EEDB2062B12D13178C6
:1017000004F1480003F0ADF860B133682046E365AA
:10171000736823660023A36400F0CAFF85F3118871
:101720000025C0E085F31188A7683178EFF31183B5
:1017300000228020EFF3108272B680F3118882F3CA
:1017400010887C6914B122798A4208D1DBB283F314
:10175000118834B1336863607368A360E0E724687C
:10176000F0E700F0E9FEF8B1544802F0D7FF20B9E5
:10177000534802F0D3FF0028D2D033684360736827
:101780008360EFF3118400238022EFF3108372B69D
:1017900082F3118883F3108807F11401E4B202F098
:1017A0009DFF84F31188BBE7EFF3118500238022AE
:1017B000EFF3108372B682F3118883F310883F48E9
:1017C000EDB202F0ABFF85F311880028D5D11020CF
:1017D00002F0E6FC0028A3D001230373CDE7FFF756
:1017E0006DFB3178A06800F073FB054640B3436899
:1017F0002BB300F07FFB002858D06B684360AA68C9
:101800008260EB689B0604D4317801238B4013433C
:1018100083603368C36073680361EFF3118500234D
:101820008022EFF3108372B682F3118883F310885D
:1018300004F14C01EDB202F051FF85F3118800254F
:10184000FFF74AFBEFF3118800238022EFF31083A8
:1018500072B682F3118883F310881A49204600F08B
:10186000A1FEA37E062B08D133682046E36573688A
:1018700023660023A36400F01BFF5FFA88F888F357
:101880001188002F15D1A37E052B03D104212046FA
:1018900000F0F4F9A37E072B05D13378082B02D191
:1018A000204600F0C0F92846BDE8F0816FF00B0536
:1018B000C6E7F8DA6FF01505F5E700BFEC0900247C
:1018C000E4090024E318000810B50C4600F062F9A2
:1018D00020B12146BDE81040FFF7F6BE6FF00200D0
:1018E00010BD2DE9F04F00F14C0385B004464FF0D8
:1018F000800900F154080393EFF31183019AEFF389
:10190000108272B689F3118882F31088A78B5FFA70
:1019100083FA019217F4007704D08AF3118805B096
:10192000BDE8F08F039802F0F9FE06460028F4D0D7
:10193000A28B414642F40072A28302F0CFFED4F89B
:1019400044B0B5684BEA050565648AF3118873688D
:101950003A4606F10C01307B9847EFF31187029B62
:10196000EFF3108372B689F3118883F31088029322
:101970004146A38B3046FFB223F40073A383636C0C
:101980005D4083EA0B031D4085EA0B05656402F0A8
:10199000AFFE87F31188FFF7D7FD304600F0D4FA89
:1019A000AAE77047054B10B51C68FFF787FA204679
:1019B00000F018F9BDE81040FFF78EBA7804002453
:1019C00008B5044B186800F0AEF810B90120FFF715
:1019D000B3FC08BD7804002408B580681C3002F010
:1019E00040FF0028D4BF0020012008BD0023094A81
:1019F00010B512F83340D900844205D10A4450781A
:101A0000C04300F0010010BD01330B2BF1D10120C8
:101A1000F9E700BF009B000838B585685AB100237C
:101A20001A4A12F83340D800A14218D1024405F1F5
:101A30001C005468BCB9EFF3118400238022EFF33B
:101A4000108372B682F3118883F3108805F11C00AD
:101A5000E4B202F0F5FE84F31188002413E00133B0
:101A60000B2BDED1E7E7EFF3118500238022EFF3A4
:101A7000108372B682F3118883F3108802F0D3FECC
:101A8000EDB285F31188204638BD00BF009B0008E9
:101A90002DE9FF41856800240F4F1C35A0462846DC
:101AA00002F0DBFE3B195B6873B1E65D01A9002221
:101AB0003046CDE9013802230393012300F074F985
:101AC0003146284602F0AFFE0834582CEAD10020F7
:101AD00004B0BDE8F08100BF009B000810B5838B07
:101AE00004461B0515D43AB9806828B14379012B07
:101AF00002D1283002F0D0FE204600F00BF820463C
:101B0000FFF75AFC2046FFF7B2FDA38B43F40063B6
:101B1000A38310BD10B5044600F020F82046BDE8B0
:101B2000104000F092B8EFF3118100238022EFF310
:101B3000108372B682F3118883F31088838BC9B245
:101B400013F0040206D043F01003838381F311885D
:101B50000120704781F3118810467047243000F04F
:101B600021BA10B50446806802F042FD00232246E7
:101B70000121184606F049FA2246002306210120D9
:101B800006F043FA002322460621022006F03DFA21
:101B9000002010BD002810B51DDBEFF311820023DB
:101BA0008021EFF3108372B681F3118883F31088DC
:101BB0000A4B0B491B680968013B034001EBC30456
:101BC000B4F9044084420CBF51F833000020D3B272
:101BD00083F3118810BD0020FCE700BF64040024DB
:101BE0007404002438B50546EFF3118400238022E5
:101BF000EFF3108372B682F3118883F31088837E2B
:101C0000043B032B0BD800F015FA042307212846C8
:101C10002B8400F0FBF9E4B284F3118838BD07216E
:101C200000F0C4FBF7E710B5EFF311840023802226
:101C3000EFF3108372B682F3118883F3108800F0FB
:101C400037FDE4B284F3118810BDEFF31182002355
:101C50008021EFF3108372B681F3118883F310882B
:101C6000837E052B06D1016C0B8801331BB20B80E0
:101C700000230364D3B283F31188704738B5EFF3C0
:101C8000118400238025EFF3108372B685F3118849
:101C900083F31088837E052B09D1056C2B880133D3
:101CA0001BB22B8000230184036400F001FDE4B229
:101CB00084F3118838BDFFECF8B50024284B294D7A
:101CC0006020C3E90044284BC3E90044274BC3E923
:101CD0000044274BC5E90044C3E9004402F060FA20
:101CE00050B100F1600600F118070475294602F0B2
:101CF000F5FCBE423846F6D1C02002F051FA60B180
:101D000000F1C0040227184E00F11805077531468E
:101D100002F0E4FCAC422846F6D1402002F040FA42
:101D200060B100F140040027104E00F11005077368
:101D3000314602F0D3FCAC422846F6D1802002F0B6
:101D40002FFA60B100F180040227094E00F110055E
:101D50000773314602F0C2FCA5422846F6D1F8BD11
:101D6000CC090024D4090024DC090024EC09002457
:101D7000E409002470B5502002F012FA50B100F1CD
:101D80005004054E00F11405314602F0A7FCAC42A8
:101D90002846F7D170BD00BFCC090024014902F0EC
:101DA0009DBC00BFCC0900242DE9F8431546374AF5
:101DB0001F280746D2F800800E46D8F8089003D9AD
:101DC0006FF01500BDE8F88341B93946484600F088
:101DD0007FF8044665B916BB0020F3E7002BF4D169
:101DE0000B68012BF1D0FFF701FE0028EDD1E7E7EA
:101DF00039464046FFF7F0FD30B100230122C5E926
:101E000000230223AB60E6E72CB163682B60A36874
:101E10006B60E368F6E7C5E90044AC60DBE7356872
:101E2000012D11D12A4639464046FFF7F5FD0546FA
:101E300085B9002CD0D0204609F10C0102F058FCE5
:101E40002046FFF7ABFFC7E7002239464046FFF7C1
:101E5000E3FDEDE78CB90E4802F060FC044630B9B2
:101E6000FFF788FF0A4802F059FC044658B127746E
:101E700009F10C01204602F031FC65607368A36033
:101E8000B368E360A8E76FF00B009BE778040024D9
:101E9000CC09002473B5002302AE826846F8043DE5
:101EA000EFF311858021EFF3108372B681F311886F
:101EB00083F3108854692CB9EDB285F31188019829
:101EC00002B070BD2179304602F0ADFC2468F2E723
:101ED00038B50D46044640B1FEF7F0FFE46814B192
:101EE000237CAB4203D1FEF7F7FF204638BD2468C0
:101EF000F5E7FFEC10B500F01FFB40B1104802F011
:101F00000DFCE0B90F48BDE8104002F007BCEFF34C
:101F1000118400238022EFF3108372B682F31188BC
:101F200083F310880648E4B202F0F8FB84F31188CA
:101F300028B9182002F034F908B10123037510BD47
:101F4000D4090024DC09002410B5037D83B9EFF324
:101F500011848022EFF3108372B682F3118883F329
:101F600010880E4902F0BAFBE4B284F3118810BD68
:101F7000022B0CD1EFF3118400238022EFF31083A6
:101F800072B682F3118883F310880549EAE7012BC2
:101F9000EDD1BDE8104002F0FBB800BFD409002429
:101FA000DC09002438B5EFF3118500238022EFF31C
:101FB000108372B682F3118883F31088F8B14368F6
:101FC000EBB1114B00221C68E4B1844223680FD1AD
:101FD0001BB19968A0680144996062B10A49104632
:101FE00002F0A6FB00206060EDB285F3118838BDD9
:101FF00022461C46E8E7044802F090FBF2E76FF047
:102000001500F1E72368FFDEF409002438B50C461B
:10201000074B054653F8311003EBC4031B79DB076C
:1020200003D500F01DF8AC7638BD02F091FBFAE75D
:102030008C9A0008054B827E10B553F83210044686
:1020400002F09EFB0023A37610BD00BF8C9A00080F
:10205000024B0022C3E90022704700BFF4090024AC
:1020600010B50B68027EB3B11C7E944206D25A684A
:1020700062B9C0E900325860086013E01B68F2E7FB
:10208000C0E900321060486000200CE0C0E9003276
:1020900010605860F8E74A68002AF1D1C0E90033BF
:1020A000C1E90000012010BD37B5124D2C682CB1DC
:1020B000114802F0DFFB012003B030BD0F4802F0F1
:1020C000D9FB40F2011369464FF60C70ADF80030B1
:1020D0008DF80240019503F077FE011E04DA4942B3
:1020E000074802F0C7FBE6E7064802F0C3FB2046BC
:1020F000E2E700BFFC090024589B00087B9B000816
:10210000A69B0008E59B0008044B1B680360C3F115
:10211000105303F500230B60704700BF649A00085A
:10212000C0F30313072B0AD8064A52F8232032B112
:1021300000F00F00012319B103FA00F0906170471D
:102140001030F9E7209C00082DE9F843C0F303178D
:102150000446072F00F2DB806E4B53F82760002EF9
:1021600000F0D58000F4402300F00F05B3F5002FF8
:1021700000F0B980B3F5402F00F0B380B3F5802FA5
:1021800000F0A9800020EFF3118100238022EFF3FB
:10219000108372B682F3118883F31088022840F00E
:1021A000A480C4F3033EBEF1000F14D0072D4FF0FE
:1021B0000F088BBFA5F108032B46242220229B0089
:1021C00052F806C008FA03F80EFA03F32CEA080CDA
:1021D00043EA0C0393514FEA45080322336803286E
:1021E00002FA08F26FEA020202EA030C00FA08F3AC
:1021F00043EA0C0333607BD004F44033B3F5803FF3
:1022000079D0B3F5003F0CBF4FF0020C4FF0000C3B
:10221000F3680CFA08FC13404CEA0303F360BEF1C8
:10222000000F13D1072D4FF00F098BBFA5F1080345
:102230002B464FF0240C4FF0200C9B005CF806E07E
:1022400009FA03F32EEA03034CF8063000F1FF3CD1
:10225000BCF1010F56D804F44063B3F5006F4DD0C4
:10226000B3F5406F4CD0A3F5806EDEF1000343EB75
:102270000E03D6F808E003FA08F3BCF1010F02EAF6
:102280000E0243EA02034FF00102B36002FA05F2C4
:10229000736839D814F4007F36D013430128736073
:1022A00013D0E30511D504F00C04AD000F2204F1A6
:1022B000B04405F00C05D4F80834AA4007FA05F537
:1022C00023EA02031D43C4F80854C9B281F31188FC
:1022D0000020BDE8F883C0F30021FFF721FF0120B3
:1022E00051E703204FE702204DE74FF0000E72E761
:1022F0004FF0000C8CE74FF0010C89E70223B8E7A0
:102300000323B6E70023B4E723EA0203C6E76FF02E
:102310001500DEE7209C0008C0B2FFF715BFFFECF8
:10232000C0F30313072B0ED8084A52F8233053B1D9
:102330001A6900F00F00012303FA00F0104214BFE5
:102340001846002070470020704700BF209C0008FE
:1023500008B504F0ABFA04F0A9FA04F0A7FA104BA0
:102360001B6873B1EFF3118300238022EFF3108316
:1023700072B682F3118883F31088002007F004F905
:10238000FBE700F0D9F848B1064B1B681B68002B2F
:10239000E8D00020BDE8084007F0F6B8024BF4E7AB
:1023A000E402002480040024780400242DE9F04194
:1023B00007468846114C266805F074FF41460546DD
:1023C0003846FFF723FE0E4B1B681BB105F07EFF5E
:1023D0000543EDB24DB10B4D06F17400296831B1E2
:1023E00000F012F8236874332B60BDE8F081216897
:1023F000BDE8F041743100F0AEB900BF78040024AC
:102400006C040024E4020024814208D0043801F165
:10241000D40351F8042B8B4240F8042FF9D17047B4
:1024200038B50731836B044621F007052BB1436BA8
:10243000AB4202D0114600F0A3F8A36B23B92946A2
:10244000082001F0B5FEA063A06B50B1E0632946FF
:10245000656300F065F9A38B002043F48053A383E8
:1024600038BD4FF0FF30FBE7094C08B52368EFF3A8
:10247000118300238022EFF3108372B682F3118858
:1024800083F3108806F0A8F82068743000F05EF935
:102490007804002408B50B4A00230B4913600B4A4B
:1024A00042F823100133802BFAD1094B0BB1AFF363
:1024B000008005F0C5F900F083FBBDE8084001F09D
:1024C000E7BC00BFE4020024EFBEADDEE000002464
:1024D0000000000038B5B0F90C10044600F16405A6
:1024E00051B9144B186840F2EE23A0F2EE2063635A
:1024F000C4E90E0000F014F9E4220021284602F09D
:1025000075FAE36B626B13446367236923F001037D
:10251000C4F8F8304FF08073C4F8FC306FF0160345
:10252000C4F89C300023C4F84031C4F84431F0238F
:10253000A36738BD649A0008024B1868003018BFC2
:1025400001207047E402002470B50B4D2C6805F0A3
:10255000BDFE48B1094E04F17400316829B1FFF79E
:1025600053FF2B687433336070BD2968BDE8704039
:10257000743100F0F0B800BF78040024E4020024B5
:1025800010B50446806B20B1A38BDB0401D501F0AC
:10259000FFFDA38B23F48053A3830023C4E90E33F0
:1025A000636310BD426E002A30D1194A126882421C
:1025B0001AD1184B1B6803B90847516602F1740021
:1025C000D3F8841091665968D166D3F888101167E2
:1025D0001149C3F88410802159604FF08071C3F80D
:1025E00088101946FFF710BFD0F8F82041668266C0
:1025F000826FC266D0F8FC200267074AC0F8F82054
:10260000802282674FF08072C0F8FC20704700BFC4
:1026100078040024E40200241D260008154B30B580
:102620001C68B7B001F0DFFF056804F1740101A870
:10263000FFF7EAFEF02383F3118862B6636E20464B
:102640009847EFF3118300238022EFF3108372B6D3
:1026500082F3118883F3108801F0C5FF0560A36E33
:1026600001A82293E36E0293236F239300236366F2
:1026700000F06CF87804002438B50731836B044609
:1026800021F007057BB1436BAB420ED9C36B2A46E1
:102690000021184602F0AAF9E26B616B03462A4456
:1026A000491BE2636163184638BD0023FBE7FFEC7A
:1026B00070B506460C4D2C68FFF7BCFC304605F0A3
:1026C000CDFD48B1094E04F17400316829B1FFF71E
:1026D0009BFE2B687433336070BD2968BDE8704081
:1026E000743100F038B800BF78040024E4020024FC
:1026F00070B5836B06460D46144623B1017F01F089
:102700000301FFF73DFF2919284621F00701491B66
:10271000C6E90E55716300F003F8002070BD7047E4
:10272000C31C23F0030351B1084420F00300C01A76
:10273000054A20F003001844834202D170476846DE
:10274000F5E71A600433F7E7EFBEADDE01464FF060
:10275000010000DF70470A4601464FF0020000DF2B
:10276000704710B5846E01F4D873A0F8501001F0D2
:102770000101226822F4D87213432360826E9368A9
:1027800023F001031943916010BD10B5EFF31184DC
:1027900000238022EFF3108372B682F3118883F353
:1027A0001088FFF7DEFFE4B284F3118810BDFFEC60
:1027B000F0B5C36BEFF3118400228021EFF3108298
:1027C00072B681F3118882F31088996E0A6822F03C
:1027D000010002F001050860DE6D5F6E710801EB1B
:1027E0004701B1FBF6F164293AD9013122F40040E6
:1027F000490820F001009A6E10609A6ED16093F83B
:102800005610234A012902EA000233D142F4C06281
:1028100093F85700092802D0082830D179B342F440
:102820008052996E0A60986E93F85860416821F45E
:1028300040510EB141F400514160986E93F85960D7
:10284000816821F440711EB15E6F0EB141F4807158
:1028500081602A439B6EE4B21A6084F31188F0BD54
:10286000C1F3420221F00F0140F400400904090CB9
:102870001143C0E7022908BF42F48062C8E7B3F8F9
:102880005610B1F5E06F08BF42F08052C9E700BFB3
:10289000FEE9FFEFC36B9A6E506AB3F8522040EA2C
:1028A0000242C0B20A600022A3F85220704710B55D
:1028B000C06BEFF3118400238022EFF3108372B614
:1028C00082F3118883F31088B0F8503039B143F0A7
:1028D0002001FFF75AFFE4B284F3118810BD23F4FE
:1028E000907121F00101F4E7C36B9B6ED869C0F3CE
:1028F00040107047C36B9B6E99627047C36B9B6EB1
:10290000D869C0F3C010704738B50546C06BEFF307
:10291000118400238022EFF3108372B682F31188B2
:1029200083F31088B0F8503051B143EA0201FFF749
:102930002CFF284603F024FFE4B284F3118838BD4D
:1029400023F08001FFF721FFF6E738B583685D6962
:1029500040F201139942EC6B05D0B1F5817F29D08B
:102960006FF0180023E0002A4CD094F85630FBB1E9
:10297000012B4FF480710CBF4FF4007300230B4305
:1029800094F858101046002914BF402100210B4331
:1029900094F85910002943F0300314BF4FF0004160
:1029A00000210B439360E16D02F08AF8002038BDEE
:1029B0001946E4E732B3936803F03001302921D19E
:1029C000002B01DA616FE9B113F4807117D013F4B1
:1029D000007F14BF0123022384F856309368104609
:1029E000C3F3801384F858309368DB0F84F85930B0
:1029F00002F086F8E0652846FFF7DAFED6E784F8AD
:102A00005610EBE76FF01500D1E710B5C46B94F8E2
:102A10006000FDF77FFF002294F860001146BDE8DA
:102A20001040FEF7F3B9FFEC38B5C46B06492246F7
:102A300094F86000FEF7EAF9054618B994F86000CA
:102A4000FDF77CFF284638BD6D2A000810B5C36B22
:102A5000144693F859302BB1836B9B6922B1002146
:102A600098472346184610BD0121F9E710B51446D2
:102A7000926ED3699BB29806A4F8523013D5B4F87D
:102A8000501089060FD5204603F0B1FEB4F852303D
:102A90001A0606D5B4F850301B0602D5204603F0BE
:102AA0006FFE002010BD13F00E0FEFD00E23136247
:102AB000ECE7FFEC38B5C46B00210546A36E196046
:102AC000C36B9A6E1E4B9A4204D14FF480221D486C
:102AD000FDF714FEE06EFFF737FB206FFFF734FBC6
:102AE000606F08B1FFF730FBA26E94F8581053687E
:102AF00023F47D5309B143F4005353602846A26E7A
:102B0000114B11680B401360A26E94F85510936836
:102B100023F4E06323F0010343EA41639360FFF78A
:102B200047FEA26E0020136843F0005343F00D03EC
:102B300013600123A4F8500084F8543038BD00BF5E
:102B400000480040E844025803BEFF33F8B50025B2
:102B5000C46B074684F85450EFF3118680222B464D
:102B6000EFF3108372B682F3118883F3108829463D
:102B70002046FFF7F6FDF6B286F31188FB6B9A6EDE
:102B80000D4B9A4205D12A464FF480210B48FDF7A0
:102B9000B5FDA26E136823F00D031360E06EFFF71E
:102BA000BBFB206FFFF7B8FB606F18B1BDE8F840C2
:102BB000FFF7B2BBF8BD00BF00480040E844025830
:102BC0007FB50B49684601F059FF0023094D1C46AB
:102BD00055F8241039B15E1C303368468DF8093041
:102BE00003F006FC33460134082CF1D104B070BD6B
:102BF000409C00084C9C0008704738B503690446A7
:102C00002BB15A69026102B9426100225A61627EA7
:102C1000207EC2F3C00520B9E068007C60F3C302E7
:102C2000627659812046DA6819469047637E65F3DB
:102C3000C303637638BD37B50446C0680A4680B121
:102C40000368B4F85E10009121469D6804F11D03ED
:102C5000A847002803DA237C43F00103237403B060
:102C600030BD6FF00400F6E7F0B5047E3CB31346C8
:102C70006401144FE5592E0416D4AE0343F080537B
:102C8000114E48BF45F0806543F400432E4043EAAF
:102C900081433343E351437EC28061F3010303F078
:102CA000F3036FF386134376037E0020074903F195
:102CB000100201230C68934023430B60F0BD2146B2
:102CC0002346D5E7000B084000F8F3FF1C08084036
:102CD000F0B590F818C0144E4FEA4C17BC592504B3
:102CE00018D4A30342F08053104D43F4004348BF6F
:102CF00044F0806443EA8143254043EA8C532B43EC
:102D0000BB51437EC28061F3010303F0F3036FF311
:102D100086134376007E0123054A83400020116814
:102D20000B431360F0BD00BF0009084000F833FCFE
:102D30001C0808404B790A79C97842EA0322437E8D
:102D400001F00301DB0601D5FFF7C2BFFFF78CBF1F
:102D5000427E017ED30602F003024FEA411148BFD2
:102D6000094BA2F1020258BF084B012A0B44196813
:102D700021F4001198BF41F080511960437E6FF338
:102D8000C30343760020704700090840000B084049
:102D9000F0B501F07F05EFF3118400238021EFF3FC
:102DA000108372B681F3118883F310888618F37C40
:102DB000C5B1062D21DC0121A9401940D1B1012561
:102DC000AC460CFA05F73942BE4610D023EA0E0392
:102DD000E4B2F37484F311881C236B4322B1603393
:102DE0001844F0BD1946E9E703F59273F8E7013599
:102DF000072DE6D1E4B284F311880020F1E710B585
:102E0000C0B1B9B1EFF3118200238024EFF3108336
:102E100072B684F3118883F310884B7E097EC3F366
:102E20000013184401238B40C17C0B43C374D3B2FD
:102E300083F3118810BDFFEC024B1868C0F30D201E
:102E4000704700BF08080840037C61F34103037426
:102E500000207047EFF3118000238022EFF31083EE
:102E600072B682F3118883F31088074A136839B168
:102E700023F002031360C3B283F31188002070476C
:102E800043F00203F6E700BF0408084008B540F02D
:102E90002000064B064A18601968890601D5013AD8
:102EA000FAD10320FDF73FFC002008BD10000840C8
:102EB000400D030008B51022064B1A60064A196837
:102EC000C90601D5013AFAD10320FDF72CFC0020F8
:102ED00008BD00BF10000840400D030038B503696D
:102EE00004460D4643B1437EDB0606D5007E8001D5
:102EF000FFF7CCFF23691BB938BDFFF7DBFFF9E70C
:102F000029462046FFF779FEF4E710B5EFF3118468
:102F100000238022EFF3108372B682F3118883F3CB
:102F200010886FF06D01E4B2FFF7D8FF84F31188C9
:102F3000002010BD084601F02BB910B5182001F093
:102F40002FF9044618B11822002101F04FFD204648
:102F500010BDFFEC70B5EFF3118500238022EFF375
:102F6000108372B682F3118883F31088037CDA062B
:102F70000ED50A4B1B68DB070AD5094E05203468BD
:102F800044F0010324F00104336001F0DDF8346003
:102F9000EDB285F31188002070BD00BF080808401D
:102FA00004080840054B064A1A6002F1604202F626
:102FB000E822136843F0044313607047100B084085
:102FC00018000860F0B5057E204F6D01EB5903F045
:102FD0000043002A33D0C688541E3444B4FBF6F4B0
:102FE000467E134306F0030643EAC443012E184EFF
:102FF00008BF43EA4473EB51457E047E05F00305A8
:103000006401012DA35907D1124D2D68ED0554BF60
:1030100043F0805343F0005323F08043033243F0E6
:1030200004439210A351037E00201B0303F180434D
:1030300003F50123824201EB800402DCF0BD012490
:10304000CEE7246801301C60F4E700BF1009084097
:103050000009084008080840F8B50D6907460C4605
:103060005DB90B7E2E495B015A5842F000625A50FE
:10307000637E65F382036376F8BDEB881BB94B7EF4
:1030800043F040034B762A89EB889A4202D3617E53
:10309000490638D59B1A627E002B6FF38612627642
:1030A0001ADDE6889E4217DC06D12B79DB0703D5B3
:1030B000D3B243F040036376217E1A4B4A01D258C3
:1030C000F31C92B2B2EBA30F08DA174A012310687F
:1030D0008B4003431360CFE71E46EDE72B89324652
:1030E000296820461944FFF76DFF637E43F004030F
:1030F0006376237E23B97B7C052262F307137B74FE
:103100002B891E442E812A89EB889A42B4D3617E92
:1031100011F04001B0D12046BDE8F840FFF76DBD89
:1031200000090840180908403408084030B5034633
:103130000A4C1A1A914200DC30BD22680433C2F3F3
:10314000072503F8042C03F8035CC2F30745C2F318
:10315000076203F8025C03F8012CEAE7001008405C
:10316000002882B006DD0023034904330A68984230
:103170000192FADC02B070470010084070B50546B5
:103180000C4622695AB9237E1A485B01195841F04E
:1031900000611950637E62F38203637670BDD1884B
:1031A00019B92046FFF729FDEBE7E388124E5A1EB6
:1031B0001144227E91FBF3F152014B43905943EAB3
:1031C000C1430C4900F0604003439351237E5B01EF
:1031D0005A5842F004425A50637E43F00403637627
:1031E000237E002BDAD16B7C062262F307136B740B
:1031F000D4E700BF000B0840100B08401A4B0246F2
:1032000070B5C0688B60EFF3118500238024EFF365
:10321000108372B684F3118883F31088537E13F001
:1032200008031DD114694B613CB9537E13F00406A9
:10323000C2E9041109D0204603E0506941611846F3
:103240005161EDB285F3118870BD13F01004114681
:1032500003D0FFF701FF3046F3E7FFF78FFFEAE700
:103260006FF00F00EDE700BF000089FF044B1A6804
:1032700042F400721A601A681207FCD5704700BF4A
:103280000408084038B5437E0446DD0639D5037E80
:1032900033495B015B58180431D5EFF311850023E6
:1032A0008022EFF3108372B682F3118883F31088C3
:1032B000227E5201535823F4004343F0904353506D
:1032C000237E284A5B01981801688907FCD5995824
:1032D00041F002019950207E8001FFF7D7FD22497D
:1032E000207E01220B68824023EA02030B606FF00C
:1032F0006D012046FFF7F2FDEDB285F31188002045
:1033000038BDEFF3118500238022EFF3108372B6EE
:1033100082F3118883F31088FFF7A8FF027E134918
:103320000A205201535823F4004343F09043535072
:10333000FDF7F9F9237E0E4A02215B010A489950F4
:10334000A2F54172136843F480631360227E036820
:1033500002F1100101228A4023EA02030360C6E75A
:1033600000090840080908401C080840000B0840F4
:10337000080B0840002210B5044611466030FFF7E4
:1033800021FE637C042262F307136374BDE81040DE
:10339000FFF708BE10B50446FFF768FF027E0A205B
:1033A0000A495201535843F0804343F400135350E9
:1033B000FDF7B9F9064A0020136843F480631360EF
:1033C000637E43F00803637610BD00BF000B084026
:1033D00004080840427E0346D20601D4FFF7DABF54
:1033E000027E06485201115841F40011115000208C
:1033F0005A7E42F008025A76704700BF0009084022
:1034000010B5EFF3118400238022EFF3108372B61E
:1034100082F3118883F3108829B1FFF799FCE4B295
:1034200084F3118810BDFFF7D5FFF8E710B50269E6
:10343000044622B9437E62F38203437610BD002125
:10344000FFF7DBFB637E6FF3820363765B07F5D4E4
:1034500021460248BDE81040FFF790BE840D0024CD
:10346000364A00202DE9F0471368354C23F001035C
:103470001360FFF70BFDE06818B103682146DB68B5
:103480009847DFF8C4A0FE23DFF8C88000270AF1C0
:10349000C409E37423751C26FF236FF06D0108F146
:1034A00020087E43013748F8203CA519C8F8E031D0
:1034B0000AEB0600FFF712FD95F879306FF06D0109
:1034C00009EB060003F0F3036FF3861385F87930F8
:1034D000FFF704FD95F83D31072F03F0F3036FF379
:1034E000861385F83D31D6D1164B4FF0FF320021BF
:1034F00015481A604FF001125A600B23134A1360EB
:1035000042F8043C52F8143C23F4FE6342F8143CA5
:103510004022637C6FF303036374237C6FF38203A5
:10352000237402232372FFF7D3FB402200210848B3
:10353000FFF79AFBBDE8F047FFF734BD04080840E9
:10354000840D002418080840E40D002414080840E5
:10355000A80E0024080908402DE9F843044600F5A8
:1035600092756FF0460104F160072846FFF7B6FC3C
:103570006FF046013846FFF7B1FC94F83D31032265
:10358000607D6FF3C30310F0600F84F83D3194F851
:1035900079306FF3C30384F87930237C6FF3000331
:1035A0002374637C62F30713637405D004F115017F
:1035B0002046FFF740FB71E0A27EE17D94F8188081
:1035C000637E94F81CE041EA082843EA0223E27E85
:1035D0000FFA88F81BB242EA0E2294F816E01FFA9E
:1035E00088FC9EB2BEF10C0F2AD80FF2080959F8D8
:1035F0002EF000BF29360008FF36000841360008CB
:103600005937000841360008FF37000855380008D0
:10361000553800085D38000881380008AD350008CD
:10362000AD3500089D360008217C11F0040F07D04D
:10363000022A05D110F0800F02D0BCF1000F04D097
:10364000237C43F00103237428E000F01F000128CD
:1036500050D044D30228F3D103F07F03062BEFD8D8
:10366000C3EBC30332064FEA83034CBF603303F559
:10367000927323445B7E13F008032ED163770222FA
:103680000023A37704F11D013846FFF79BFC637C00
:10369000042262F307136374FFF784FC237CDB07C7
:1036A00016D594F8783028468A495B015A5842F476
:1036B00000125A5094F8793043F0080384F87930B6
:1036C000FFF768FE237C43F001032374FFF76AFCD5
:1036D0000023A4F85E30BDE8F8830123CEE7002E76
:1036E000AED1C1F30013C1F34001A67741EA430113
:1036F0006177C7E784F81DC084F81EC0C2E7217C4B
:103700004F079DD5002A9BD100F01F00022817D13A
:10371000BCF1000F7FF44AAF03F07F03062B3FF6A6
:1037200045AFC3EBC303980033064CBF603000F5D0
:1037300092702044FFF70CFB2046FFF71BFEADE71D
:1037400000287FF433AFBCF1010F7FF42FAF0B469D
:1037500062F304132374EFE7217C4F077FF570AF0A
:10376000002A7FF46DAF00F01F00022813D1BCF1D6
:10377000000F40D103F07F03062B3CD8C3EBC303FB
:1037800032064FEA83004CBF603000F5927020444F
:10379000FFF720FED0E770BBBCF1010F03D141F071
:1037A00010012174C8E7BCF1020F24D116F0FF0FFD
:1037B00021D1360AA37C013E042E14D8DFE806F09E
:1037C000030B0D0F1100012262F30303A374237C8A
:1037D00043F02003BEE70222F6E70322F4E70422C7
:1037E000F2E70522F0E76FF30303A374237C43F0B1
:1037F00001032374EBE70B077FF522AFD6E6C7067C
:103800007FF41EAF002E7FF41BAF002A7FF418AFA9
:10381000BCF17F0F3FF614AF637C03F00F03022B64
:103820003FF40EAF2C4A136823F4FE6343EA0113FE
:103830001360637C227C31B1012161F30303637463
:1038400042F0040386E761F303036374134661F3F4
:1038500082037FE7C0067FF4F3AEA7E6237C590717
:103860007FF5EEAEC3067FF4EBAEBCF1000F7FF444
:10387000E7AE002E7FF4E4AE012A7FF4E1AE95E6D8
:10388000237C5F077FF5DCAEC1067FF4D9AE002E46
:103890007FF4D6AE002A7FF4D3AE04F115012046A2
:1038A000FFF7C9F900287FF4F9AE18F0FF0F637C29
:1038B000227C06D0022161F30303637442F0080303
:1038C000C1E6012161F303036374134666F3C30386
:1038D000B9E600BF00090840000808402DE9F04F94
:1038E00085B08D498D4B0C681B688D4A03EA040036
:1038F0001C4002EA00020A6000F0AB8026030ED5ED
:10390000884B894A1D68126815402D0C40F0AC8028
:103910001B68FF21854A1B0C002B40F09E8067032B
:103920000FD5804B804A1E6812681640B6B2002E32
:1039300040F00C811B68FF217D4A9BB2002B40F0B8
:10394000E580002C10DA7B4A01217B4D1368284664
:1039500023F001031360FDF767F9E86820B10368FD
:103960005B690BB12946984721050AD57249C86899
:1039700018B103681B6903B1984700216E48FDF731
:1039800053F9E2065FD56D4B1D6805F00F07062F52
:1039900059DC05F4F013B3F5002F00F08481B3F582
:1039A000402F00F08D81B3F5802F4CD1C5F30A155F
:1039B000002D48D0604B1C2606FB07369946D6F8EA
:1039C0003481B8F1000F40F0568196F83CB1BBF15C
:1039D000000F40F04C81D6F82C8198F8113003F09C
:1039E000F003102B40F04381402D2B4608F11D00C1
:1039F000A8BF40231FFA83FA00935146FFF796FBB6
:103A0000009BE81AFFF7ACFB96F83D3102226BF3FE
:103A1000820386F83D3198F81130A8F85EA062F371
:103A2000071388F8113003F0F003202B02D1404631
:103A3000FFF792FD1C2303FB079393F83D216FF3DF
:103A4000820283F83D213E4B1C4200F05181FFF77A
:103A500007FD002005B0BDE8F08FDD0701D5106837
:103A600011605B08203257E70026DFF8C080DFF8DE
:103A7000D8A0DFF8C4B0E80737D54FEA461959F89F
:103A80000870DAF800301F40F9071BD5012316F043
:103A9000FF0049F808309BF811302BD103F0F003F8
:103AA000602B0FD12748FFF7C1FC9BF83D3113F085
:103AB000040107D1FFF776FA9BF8113061F3071381
:103AC0008BF81130BA0702D5022349F808303B07BA
:103AD0000BD59BF8113003F0F003202B02D1584690
:103AE000FFF73AFD082349F808306D0806F1010692
:103AF000C1D114E703F00F03022BE3D11C2303FB16
:103B000000B000F59270FFF791FCDBE7DE0700D50F
:103B100011605B08203211E71400084018000840CB
:103B20000AFCB0F8180808401C080840080B0840B8
:103B30000809084004080840840D002420000840BB
:103B400000108000A80E0024140808400027F50784
:103B50007FD5754A4FEA471B744BDFF8E8A11B6815
:103B6000D2F800800122BA4012EA080F00925BF8F6
:103B70000A2018BF43F0800302EA030919F0010389
:103B800001933FD0009B5FFA87FC1C22684D28EA16
:103B90000308654B02FB0CF2C3F80080012302F11D
:103BA00060014BF80A302944687CBCF1000F56D103
:103BB00000F0F000502812D1284603920295FFF73A
:103BC0004BFADDE90232134493F8793013F0040123
:103BD00005D1FFF7E7F96B7C61F307136B742A7C5F
:103BE00090060FD553486FF34512AB7C016803F084
:103BF0000F0C6FF3030301F0700141EA0C11016037
:103C00002A74AB7419F0080F02D008234BF80A305D
:103C100019F0100F09D048481C2101FB070160383A
:103C2000FFF71AFA10234BF80A3019F0800F10D062
:103C3000019B5BB9009B1C213F4828EA03033A4AD9
:103C400001FB070160381360FFF706FA80234BF889
:103C50000A30760807F101077FF479AF71E600F0CA
:103C60000F000228CED12846FFF7F6F9CAE728460A
:103C7000FFF776FADEE6B8F80800B8F80660D8F87C
:103C80000030361A1844AE42A8BF2E46B7B23946A5
:103C9000FFF74CFAA81BFFF763FAB8F808301F4487
:103CA000A8F80870CFE6224B5B7C03F0F003102BE2
:103CB0007FF4C9AE214A136843F080631360C2E603
:103CC0001B4D082105F11500FFF730FA95F9153065
:103CD000002B0ADB2A7FEB7E53EA022305D06B7CA4
:103CE000012262F307136B74ADE66B7C0222F8E7E6
:103CF000A3047FF5F6AD124A1368A2F6F40223F48A
:103D0000FF6323F0070343F04003C2F8F438D2F80E
:103D1000F83743F48073C2F8F837136823F470530C
:103D200043F4C0531360DCE5340808401008084031
:103D3000840D002404080840E40D0024000B084012
:103D4000000908400809084038B50B4CE0602146DE
:103D500003681B689847054618B10023E3602846AE
:103D600038BD7520FCF7EAFD01212046FFF772F807
:103D700002232372F3E700BF840D0024F8B5074641
:103D8000EFF3118480260023EFF3108372B686F3DD
:103D9000118883F31088FFF763FBE4B284F3118882
:103DA0000E4D38463B6829465B689847EFF311840F
:103DB0000023EFF3108372B686F3118883F3108823
:103DC0007520E4B2FCF7A6FD00212846FFF742F873
:103DD0000020E86084F31188F8BD00BF840D002442
:103DE00070B5284DE86808B1FFF7C8FFEFF31186FA
:103DF00000238022EFF3108372B682F3118883F3DD
:103E00001088002400211F48F6B2FFF723F8752020
:103E10002C72FCF77FFD214622467520FCF7F6FF49
:103E2000FF23194A4FF4806013602032C2F8E0315A
:103E30001360C2F8003220321360C2F80032203220
:103E40001360C2F8003220321360C2F80032203210
:103E50001360C2F8003220321360C2F800324FF013
:103E6000FF320A4B1C605C605C62DC609A60FFF7AA
:103E70000DF8FFF71FF86B7C64F303036B7486F394
:103E8000118870BD840D00240809084010080840FE
:103E9000F8B5954B1A6822F0007242F080721A60F1
:103EA0001A685101FCD59148FEF74EF99048FEF78B
:103EB0004BF99048FEF748F98F4FFFF791FF8F4B72
:103EC0004FF4F472002118463E4600F08FFD8C49F5
:103ED000024603464FF01C0E4FF0400C42F8601BA8
:103EE0001C464260FE229866C27402750246C3F800
:103EF0002C0100200EFB00411C325764146591F820
:103F0000795045F0100581F87950C5B2013082F83A
:103F10005C5065F07F05072882F8485091F8795089
:103F20006FF3010581F87950A2F84AC0E2D100226E
:103F30001C274025D1B2C3F82461C3F830411C339B
:103F400083F8201183F80C1107FB0241013291F82C
:103F50003D01072A6FF3010081F83D01A3F80E51DE
:103F6000E8D1002267497520FCF750FF0028C0F215
:103F7000B7808022644D654B654F1A602A683E46C3
:103F8000644C42F040022A600320FCF7CCFB3B6803
:103F9000002B01DB013CF7D1012333605D4B32681C
:103FA000D20701D5013BFAD103200024FCF7BBFB6B
:103FB000594B4FF4803214201A6000F0C5F8574A6C
:103FC0003220136843F0C00313602B6823F00053C2
:103FD00043F080432B6000F0B7F8514B4FF4806002
:103FE0001C60A3F5C0631A68A3F2DC7322F4C0520C
:103FF000C3F8DC27D3F8DC2742F00302C3F8DC2740
:1040000040F201221A6002F592025A604932C3F866
:10401000E0204932C3F8E4204932C3F8E8204932AD
:10402000C3F8EC204932C3F8F0204932C3F8F42039
:10403000FEF72CFFFEF73EFF3A4B4FF0FF32FF2119
:104040001C60F03343F8EC4C43F8CC4C43F8E82CBC
:1040500043F8E44C344A186820330028B4BF4FF0CA
:104060000840002043F8200C43F8104C43F8181C7B
:104070009342F0D12D4B0022FF202D491C682033A4
:10408000002CB4BF4FF00844002443F8204C43F800
:10409000102C43F8180C8B42F0D1264926480A60B0
:1040A0004FF0FF32254B1A600268254B22F07F4209
:1040B00022F47C0222F47C4222F0FF02134381228C
:1040C0000360204B0D480B600021104B1A60FEF777
:1040D000C1FEFFF7C5F97520BDE8F840FCF72EBC1E
:1040E000BDE8F840FFF77CBE0C4802580BAC080056
:1040F0000CAC08000AAE0900BC9C0008840D00242A
:10410000A09C0008DD3800080C00084008000840AA
:1041100010000840400D030038000840000008402F
:10412000000E084010080840E0090840000B084055
:10413000E00B084018000840140008400400084044
:104140000AFCB0F810380C0082B0002345F261611F
:104150000093009A824201D302B070470193019A02
:104160008A4203D9009A01320092F2E7019A0132A1
:104170000192F4E708B50A460146034800F056F8F4
:10418000024B186008BD00BFD89C00086C0F0024CB
:10419000024B0146186800F0C0B800BF6C0F002445
:1041A000024B0146186800F016B900BF6C0F0024DE
:1041B000024B0A460146186800F06CB96C0F0024E7
:1041C000024B0146186800F0CFB900BF6C0F002405
:1041D000F8B50D461646044600F055F8AA1905F143
:1041E0000F036168082523F00F0322F00F024FF040
:1041F0000047D01A01441038C4E90113194641F8A8
:10420000085BA66877609860A2F108004D60E060E6
:10421000204642F8085C9B68E2683B43536000F02C
:1042200054F82046BDE8F84000F04DB801F10F0306
:1042300070B5A2F5A27423F00F034FF4A2720C44E0
:10424000184600211D46E41A03F5A27600F0CEFBC5
:10425000034600F1200200F5A0719A61A2F110005E
:1042600010321033D8618A42F7D1284600F007F89F
:10427000284622463146FFF7ABFF284670BD012293
:10428000002100F0C0BA10B50446FEF755F9C0B9D8
:1042900004F0C6F9002814DB04F04CF850B12046B5
:1042A00004F0E8F8C043C00F10BD00F09CF90368AB
:1042B000002B04DD204604F0A9F80028F5DB0120DE
:1042C000F2E70020F0E704F01BB938B505460868AE
:1042D0000C4600F015F8421C05EB021205EB001528
:1042E000AB6923B1196811B12068814205D394608C
:1042F000C4E9023203B1DC6038BD1A469B68F0E7BE
:10430000B0F5800F07D203090020012B00D87047B9
:1043100001305B08F9E71220704770B505460C467E
:10432000A9B1FFF7B0FF98B9EFF311830022802104
:10433000EFF3108272B681F3118882F31088D5F8FA
:104340004021DBB22260C5F8404183F3118870BD83
:1043500054F8043CA4F1080123F0004344F8043C61
:1043600054F8083CCA185068002814DBCB58D2E92E
:10437000026013448660906808B1D668C66012680F
:1043800054F8080C104444F8080C5A6802F0004233
:1043900002435A601A4654F8043CCB1A5868002865
:1043A00011DBD3E902018860996809B1D868C86057
:1043B000196854F8080C08441860516801F000416D
:1043C0000143516019462846FFF77FFF2846BDE8A4
:1043D0007040FFF778BF70B506460C46EFF31183C7
:1043E00000228021EFF3108272B681F3118882F3EC
:1043F00010880022D0F84011DBB2C0F8402183F3CE
:10440000118800293AD1002C36D004F1170525F087
:104410000F05AC423CD83046FFF735FFB5F5800FAD
:1044200032D22846FFF76CFF06EB0010846904B314
:104430002268A368AA4229D3E2689360A3680BB1FB
:10444000E268DA602368581B0F280CD923446119ED
:1044500060514D6025605A6802F0004202433046C8
:104460005A60FFF732FF6368083443F0004344F8B2
:10447000043C3046FFF727FF204670BD0D683046EC
:10448000FFF74BFF2946BCE71220CDE71C46CEE7DD
:104490000C46F1E7334B99422DE9F04707461646A3
:1044A00002D90020BDE8F0874D4205EA010A8A459D
:1044B000F7D1BAF1100F04D81146BDE8F047FFF765
:1044C0008ABF02F10F034FEA4A0123F00F03C91814
:1044D0002CBF012200229E428846E2D8002AE0D169
:1044E000FFF779FF81460028DBD00AF1FF34384618
:1044F000FFF7C9FEA9F108014C442C40A14523D087
:10450000A4F1080559F8083C6A1A0B440F2A9EBF0B
:104510005444A4F108056A1A581B286042F0004070
:10452000686049F8082C4A6822F000424A605A68DC
:10453000286802F00042024338465A602B68A3F113
:104540000808FFF7C2FE294606F1170222F00F0203
:10455000904502D9384600F013F83846FFF7B3FE0D
:1045600020469FE7FEFFFF7F38B50D46FFF733FF7C
:10457000044618B12A46002100F038FA204638BD1A
:10458000F0B40D680B4606464C19616800291ADB29
:104590005F59D4E9020127448860A16809B1E06845
:1045A000C860186899185C59801A204498504A606D
:1045B0001A6078689B5800F00040184378603046D5
:1045C000F0BCFFF782BE02F110018D4209D39918A9
:1045D000AD1A9D504A601A609B5843F000436360D7
:1045E000EEE7F0BC704708B500F08CFA143008BD57
:1045F00038B5012204460021283000F004F94FF0BC
:10460000FF35002304F12C002563C4F80431C4F8FD
:10461000083100F031F804F17400A56700F02CF8BF
:10462000C4F8C05004F1BC00BDE8384000F024B824
:1046300038B504462830FCF742FF0023C4F808319F
:10464000D4F804516DB904F13400FCF738FF04F1DB
:104650007C00FCF734FF04F1C400BDE83840FCF7EF
:104660002EBF284650F8083BC4F80431FCF727FF5A
:104670002846FFF78DFDE3E710B50122044600212F
:10468000083000F0C0F84FF6FF7363810023E36049
:1046900010BD70B5044603F0C3FF0546B4F90A30F7
:1046A000834209D004F10806304603F0AFFE00282B
:1046B000FADB6581012301E0E3680133E36070BD4B
:1046C000C368012B02DD013BC36070474FF6FF73E7
:1046D000083043800023436003F012BF00230360CF
:1046E0000B6813B90860486070474B681860FAE7B8
:1046F0000B6893B188B1834209D11A680A604A688D
:104700009A420AD100234B60704713462AB11A68B7
:104710008242FAD1184600F00BB8704703682BB1FB
:104720001A68026002B9426000221A601846704797
:104730000A68036852B14BB14A689A424FF00002CE
:1047400015BF19684860016002601A60184670471A
:10475000002303604B6843600B6813B9086048602E
:1047600070474B681860FAE7002343600B680360EA
:104770000B6813B9C1E900007047586008607047C2
:10478000D0E9003232B90B6033B94A600023C0E986
:10479000003370471360F7E75A60F7E70F4C904615
:1047A000064622682DE988480F4652B90C4DDFF8BD
:1047B0003490DFF834A0DFF834B04D4506D1012342
:1047C000236041463846B047FCF7B6FD55F8043B38
:1047D0005345F2D35B45F0D29847EEE7700F0024C3
:1047E00038A0000838A000080000000838A0000821
:1047F00030B1B2F5004F03D212B2028000207047F0
:104800006FF01500704708B530B1B2F5004F03D214
:1048100012B20280002008BDFFF7E5FE16230360F8
:104820004FF0FF30F7E71F299FBF012303FA01F183
:1048300003680B439ABF036000206FF015007047B8
:104840001F299FBF012303FA01F103688B439ABF1D
:10485000036000206FF015007047002303601846C6
:1048600070471F299DBF0068C84000F001006FF02D
:10487000150070470FB413B504AB53F8044B019304
:1048800003F050FD019A21464C3000F06BF802B065
:10489000BDE8104004B0704770B50646C0B100F0E6
:1048A0003DF90025D6F8DC4024B9304600F03EF949
:1048B000284670BDB4F840309B0707D5012120463B
:1048C00000F008F835EA200528BF05462468EBE724
:1048D0000546EDE7F8B5436805460F46002B3EDB7D
:1048E000B0F840309B073AD5FFF7D3FE2C69FCB1F6
:1048F000AE69B44207D12846FFF7E2FEAC692B69E6
:10490000E41A2046F8BDEB699C4226D1361B32469C
:104910002146686803F06CFB00280DDA95F84230F8
:1049200043F0020385F84230FFF75DFE04686442FD
:104930002846FFF7C5FEE4E70444361A0FB1002EFF
:10494000E5DC2B692644AB61B442D4D0AB695A1C78
:10495000AA6114F8012B1A70F6E70024E8E76FF05B
:104960000804CEE77FB5044616460D460146684664
:1049700000F026F82046FFF78CFE294632466846AE
:1049800000F0D8F805462046FFF79AFE284604B006
:1049900070BD0121C068FFF79DBF38B504460D46C4
:1049A000E168284600F0B2FD013003D0A36801336E
:1049B000A36038BDFFF717FE0368042BF0D0F8E7BB
:1049C000074B03600B694BB1B1F84030DB0505D4F0
:1049D000044B43600023C0E902317047024BF8E703
:1049E0009B49000893490008314B00082DE9F0432A
:1049F000B2B3C70703463ED5013A03F8011B012AAB
:104A00002CD941EA01259E07ADB231D0023A23F8F4
:104A1000025B032A1DD95C0745EA054C4FF00008EC
:104A200016BF141F144643F804CB48EA0C06674629
:104A3000224603EB040E072A14D8E2086FF007069B
:104A400006FB02423440032A234484BF043A43F85D
:104A500004CB012A02D9023A23F8025B02B1197091
:104A6000BDE8F083AEEB0208083AC8E90067E2E768
:104A7000032AD0D8EFE7012AC3D8F0E7421E11F885
:104A8000013B02F8013F002BF9D1704703461A7829
:104A9000591C0AB9181A70470B46F8E70244013945
:104AA000034610B5934207D011F8014F03F8014BAC
:104AB000002CF7D1934200D110BD03F8014BF9E768
:104AC00000220E4B30B59C18D55864688C4209D131
:104AD000C561836823F4805323F00F03234383606D
:104AE000002030BDA94201D1C161F2E70832F82AA5
:104AF000E9D1C1614FF48054EBE700BFE09C0008AE
:104B0000C06970471FB5002001A903F025FC0028EB
:104B1000ACBF0298002005B05DF804FB10B5044658
:104B2000204603F073FC0028FADB10BD03F0E8BC5C
:104B3000002070472DE9F04F05468DB092460024C5
:104B40004B1C91F800800293B8F1000F00F0EF8346
:104B5000B8F1250F06D191F801808B1CB8F1250F13
:104B6000029307D12B684146284601349847CDF877
:104B700004A0D9E300270A223E46B946B9F13F0F07
:104B80004FD8B8F12B0F41D014D8B8F1200F3FD037
:104B9000B8F1230F42D0A8F13003DBB2092B53D870
:104BA00019F4807F12BF02FB073749F0800902FB2E
:104BB000063607E0B8F12D0F2DD0B8F1300FEAD14D
:104BC00049F00109029B13F8018B0293B8F1000F21
:104BD000D4D1A8F14503022B7CD808F1200849F470
:104BE00000595FFA88F819F4807F08BF0627B8F1EA
:104BF000650FFAB240F09280013249F48049D2B296
:104C00000F2A28BF0F22114600228EE049F0020928
:104C100049F00409D6E749F00809D3E749F010093B
:104C2000D0E7B9F5007FB6D3B8F17A0F2DD0B8F13F
:104C3000740F2AD0B8F16A0F24D129F480691FFAC1
:104C400089F949F42069BDE7B8F12A0F10D119F4A8
:104C5000807F5AF8043B02D023EAE377B2E7002BC7
:104C6000A7BF49F080091E465E4249F08809A9E7BE
:104C7000B8F12E0FD8D119F4807F40F0588349F451
:104C800080799FE7B8F16C0F0BD119F4007F18BF42
:104C900049F4006929F480691FFA89F949F4007917
:104CA00090E7B8F1680F0BD119F4806F18BF49F481
:104CB000006929F400791FFA89F949F4806981E7CC
:104CC000B8F1700F02BF29F420691FFA89F949F47D
:104CD00000797EE7A8F16503022B84D9B8F1630F50
:104CE00000F0A481B8F1730F03D0B8F1530F40F076
:104CF000C5810AF10403DAF800A00193B64BBAF1BA
:104D0000000F08BF9A4619F4807F504614BF3946F9
:104D10004FF0FF3100F018FC074691E1B8F1660F43
:104D20007FF46EAF49F400490F210AF1070A06A883
:104D30002AF0070A0AF108039AED000B019300F02C
:104D40001FFB9DF81C3003F00902012A3CD019F02A
:104D5000020F3CD119F0040F14BF4FF020084FF0A0
:104D6000000813F00C0F3ED0B8F1000F0CBF032366
:104D70000423B3420CDA19F0080FA6EB030608D19E
:104D800037462B68202128469847013FF9D1344403
:104D90000026B8F1000F04D02B68414628460134A4
:104DA00098479DF81C3009F400598C4F13F0080FF8
:104DB0008B4B08BF1F46A4EB070808EB070417F846
:104DC000011B39B93746ACE24FF02D08C9E74FF067
:104DD0002B08C6E7B9F1000F01D02039C9B22B6802
:104DE00028469847E9E77F4B5FFA80FBDDF818A07B
:104DF00019EA030F5A461AD10BF1050306A90B4411
:104E0000BBF1000F03D013F8011D302928D01AF18F
:104E1000040F2ADB924528DABAF1000F49F4004961
:104E200001DBDA4524DA0AF10107ABEB07070FFAD9
:104E300089F3002B0393B6BF2AEAEA7305230133F3
:104E4000B8F1000F00D00133A7B17A1C1344B3426C
:104E5000B4BFF61A002619F0090F1BD1334614E02F
:104E60000BF1FF3B5FFA8BFBCAE70BF1FF37DEE785
:104E70000027DCE719F0100F18BF0133E7E7202106
:104E8000284604939047049B013B2A68002BF6D1E7
:104E900034441E46631C2A680493B8F1000F04D002
:104EA000414628469047049B1C4619F0080F0CD138
:104EB000B04604E008F1FF383021284698472B68B7
:104EC000B8F1000FF6D134444646039B002B48DA74
:104ED0002AEAEA787B42AAEB08020493B8F1FF3F82
:104EE00004F1010706D12B682E21284603923C4687
:104EF0009847039A5A4508F1FF38049936BF06AB24
:104F000030279B1802F1010238BF5F79631C884586
:104F100003932B681CDA19F0100F06D0B8F1FF3F8D
:104F200003D12E2128469847039CC2450AD19DF8FB
:104F30001D30352B13D805D19DF81C3013F0100F00
:104F400008BF312701342B6839462846984739E78E
:104F50003946284605929847039C059ABEE73127B3
:104F6000F0E79DF81D10284631291EBF9DF81C3022
:104F700023F010038DF81C302B689847002F2B6806
:104F800043DD02344FF001082E212846984747455B
:104F90002B6829DA19F4005F2B6828460CBF6521BD
:104FA00045219847BAF1000F04DB38D19DF81C3039
:104FB000DB0634D5CAF1000A2D212B682846984714
:104FC0003021BAF1090F2CDC2B68284698470434AD
:104FD0002B680AF13001B8E7D89D0008E39D00086E
:104FE000DF9D000800C0FFFFC345284604F101040F
:104FF0008ABF0CAA3021424408F1010888BF12F888
:10500000131C5FFA88F89847C1E719F0100F01D117
:105010000134BFE72E21284602349847BAE72B21F6
:10502000CBE70131AAF10A0AC9B2CAE70AF10403BF
:1050300001270193DAF800300DF1300A0AF8183D23
:1050400019F0080F0CD00AEB070813E0013E2B689B
:10505000202128469847BE42A8EB0604F6D8F2E77E
:1050600004EB0608F7E72B6828461AF8011B984757
:1050700006B1013ED045F6D13C44A3E6B8F1640F39
:1050800009F4206302D0B8F1690F78D1B3F5206F2D
:1050900061D10AF1070A2AF0070A0AF10803DAE9DE
:1050A00000010193002829F4805B71F100032BF0CB
:1050B000100B06DA40424BF4805B61EB41011FFAB2
:1050C0008BFB1BF4807F04D01FB950EA010300F072
:1050D000B6800DF118090A234A4600F02DF9A0EB1D
:1050E00009095FFA89F91BF4807FC84600F0A9809E
:1050F0002BF0010AB9451FFA8AFA80F2A58044F222
:105100001002FBB20BEA0202102A03D12BF0110AA3
:105110001FFA8AFA1AF0100F00F0A3800CAA4A4472
:1051200012F8192C302A40F091802AF4C04A2AF053
:10513000100A1FFA8AFA1AF0080F40F0A3801AF03A
:10514000010F05D0B34280F2B780F71AF3B24F4493
:10515000A3EB040B91E0524619F4007F52F8043B94
:10516000019218464FEAE3719CD119F4806F99D0EF
:1051700019F4006F0CBF18B258B2C11792E7B3F51B
:10518000206F20D10AF1070A2AF0070A0AF1080362
:10519000DAE90001019329F0060BB8F1700F1FFA4C
:1051A0008BFB3FD022D8B8F1580F3ED0B8F16F0F2B
:1051B00043D02B6828462521023498472B68414666
:1051C00028469847B0E00AF1040319F4007F0193E0
:1051D000DAF8000001D00021DDE719F4806FFAD081
:1051E00019F4006F0CBF80B2C0B2F4E7B8F1750FCC
:1051F00009D0B8F1780FDCD11BF0100F01D04BF4BF
:10520000804B102304E029F0160B0A231FFA8BFBB6
:105210001BF4807F03D017B950EA01020FD00DF1C3
:10522000180959E74BF0100BE6E719F0100F01D001
:105230004BF4C04B4FF40473EAE70823E8E7B946A0
:1052400051E74B46DA4665E74B4663E71AF4804F71
:1052500002D103F1010B01E003F1020B5FFA8BF3C2
:1052600069E741F206021AEA020F3FF464AFF0E781
:105270002B6820212846013498470BEB0403DBB24E
:10528000B342F5DBB342B4BFF61A00261AF0100F92
:1052900014D02B683021284698471AF4804F2CD020
:1052A0001AF4005F04F102042B680CBF7821582126
:1052B00028469847274418E04F4649E741F206033D
:1052C0001AEA030FF6D01AF0020F04F101042B685A
:1052D00014BF2B2120211AF4805F18BF2D21E7E78E
:1052E0002B6830212846013498473B1B4B45F7DC9F
:1052F000B9F1000F03D1444464E50134DAE709F160
:10530000FF390CAB28465FFA89F903EB09022B68D9
:1053100012F8181C9847EBE7013F2B68202128461C
:105320009847002FF8D13444DDE901A108E4204674
:105330000DB0BDE8F08F00BF2DE9F84313F40077FE
:1053400016461CBF23F4007301271C46DD172246B6
:105350002B4603F077FD092A8046894608DC303267
:1053600058EA090306F8012BF1D13046BDE8F8836D
:105370000FB13732F4E75732F2E7FFECC2925D7DAE
:105380002DE9F74F10EE904A07460E4614F0004400
:105390001CBFB1EE400B0124B5EE400BF1EE10FA4C
:1053A00014D144F00204421D00233021B34209DB32
:1053B0000025BB19002230465A713C713D6003B094
:1053C000BDE8F08F02F8011B0133EFE7B4EE400BAC
:1053D000F1EE10FA02D744F00804E9E7B0EEC07B22
:1053E0009FED3F6BB4EE467BF1EE10FA02DD44F028
:1053F0000404DDE79FED3C7BB4EEC70BF1EE10FA41
:1054000058D53F4908230F2501209FED396B31ED19
:10541000027B20EE077BB4EEC67BF1EE10FA05D5D9
:1054200000FA03FCB0EE470BA5EB0C0513F1FF33BC
:10543000EDD232B125EAE57301331A449642A8BF92
:105440001646304B03EBC60393ED007B30EE070BA3
:105450009FED277BB4EEC70BF1EE10FA04DBB2EE42
:10546000047B013580EE070B07F1050B4FF0000AB6
:105470000FF28409D9E9008951EC100B03F0FCFC10
:10548000CDE90001564594DD42464B460AF1010A3A
:10549000DDE9000103F0D6FC303049460BF8010B82
:1054A0004046CDE900230A22002303F0CBFC8046CE
:1054B0008946E7E7144908230F25012031ED026BE7
:1054C00020EE066BB4EEC76BF1EE10FA04DB00FAC7
:1054D00003FCB0EE460B654413F1FF33EED2A8E7B0
:1054E000FFFFFFFFFFFFEF7F00003426F56B0C434B
:1054F0000080E03779C341430080C6A47E8D03005D
:10550000F89E0008E89D0008B09E000837B50446E4
:1055100002A80A460D4600F8014D012100F020F8CE
:10552000002804DC4FF0FF34204603B030BD0A2CC5
:10553000FAD195F842305B07F6D501212846FFF7EE
:10554000C9F90028F0DAEDE70346014410B58B42B3
:1055500002D01A785C1C0AB9181A10BD2346F6E767
:105560002DE9F04107460E46154642B9FFF73BF8D4
:105570004FF0FF34092303602046BDE8F081B2F804
:1055800040309B0706D4FFF72EF8092303604FF045
:10559000FF3418E013693BB90A460146686802F017
:1055A00027FD041EE8DAF2E71046FFF772F82846F6
:1055B00000F034F800282FDA4FF0FF342846FFF7C8
:1055C0007FF8002CD8DA95F8423043F0020385F8D2
:1055D0004230D1E7D5E905329B1A511EB34228BFAC
:1055E0003346F61A04EB0308444509D113446A69AB
:1055F0009A42AB6109D94446002EEBD1E41BDDE7AA
:1056000014F8010B01F8010FEEE700212846FFF71F
:1056100061F90028EFDACFE73C46EDE710B5044624
:1056200030B9FEF7E0FF092303604FF0FF3010BDF3
:105630000369F3B1FFF72DF8E0692269904213D0B6
:10564000A36994F843101B1A2046C4E906220022DD
:10565000591A84F84320012200F00DF8002803DADB
:105660002046FFF72DF8E0E72046FFF729F8002055
:10567000DDE71846DBE770B504460D461646FFF732
:10568000CDFF002802DA4FF0FF3070BD204600F059
:1056900010F80028F7DB002332462946606884F8BA
:1056A000433002F094FB01304FF0FF3018BF002070
:1056B000EBE7026932B1B0F840309B0702D5012117
:1056C000FFF708B900207047022901D100F018BB8C
:1056D0007047FFEC08B5094B1B7813F0FD0F02D0A3
:1056E0004FF0FF3008BDC307FAD500F03FFB00289C
:1056F000F6DB034B02221A70F4E700BF750F00249B
:105700007C14002410B5084C606003F045FDFFF7E1
:10571000E1FF002804DB054A13680133136010BD64
:105720006368002BF1D1FAE780140024780F00247D
:1057300008B5FFF7E7FFA0F120035842584108BD24
:10574000034B1B78022B01D100F036BB704700BF22
:10575000750F002410B5124C236801331ED0114B75
:105760001A68053B9A4219D90F4B9B6803F10063F5
:1057700003F500339A4211D203F068FD03F036FDC1
:1057800000F0E8FA03F040FD03F008FD204603F0C6
:1057900077FD2046BDE8104003F01ABE10BD00BFE3
:1057A0000000020804000208860000240C4A0023BE
:1057B00010B5144652F8231021B152F823100139C4
:1057C00042F823100133042BF4D1064B1B7833B974
:1057D000A36823B9022003F0E9FD3223A36010BDC2
:1057E00080140024740F0024024BD860DA68002A69
:1057F000FCD17047801400242DE9F04FBF4F8FB0CB
:1058000000258146BE4EB8463D700295B46803F04F
:10581000D9FCDFF80CA3B9F1000F01D0CAF8009051
:10582000B84FCAF808503D704FF0FF35012003F023
:10583000B3FDB9F1000F04D0DAF80030002B00F00E
:105840003C820020FFF75EFF0390039B002BF0DB00
:10585000012003F097FD039B213B102BE6D801A20A
:1058600052F823F0A9580008BF5800083159000821
:105870002D5800082D5800082D580008C35900085D
:105880002D580008615A0008255B0008715B00086C
:10589000CF5B0008255C0008F55B00082D58000868
:1058A000975C0008835900080220FFF741FF002899
:1058B00000F01582029B43F00103029361E04FF474
:1058C0007A70FFF71FFFB0F1000BC0F208820220D0
:1058D000FFF72EFF002800F002820BF1FF300428B2
:1058E00000F2FD81DFE800F0030B0E11140004212B
:1058F0008548FFF725FF029B43F00203DDE7042103
:105900007F48F6E704218148F3E704218048F0E767
:105910004FF01C09484609F1040903F0D1FC0421A9
:10592000099009A8FFF70CFFB9F12C0FF2D1E2E7BB
:105930000220FFF7FDFE002800F0D181029B03F05A
:105940000303032B40F0CB8101234FF0000B022017
:105950003B7003F017FD03F084FC584603F096FCFF
:10596000044600BB0220387003F016FDB368A34262
:105970001FD8029B002443F004033C700293CAF832
:10598000084098F800301BB9624B1B7888F800304B
:105990000EA841F2120302214FF0000920F8143D35
:1059A000FFF7CEFE42E758460BF1010B03F074FC03
:1059B000D3E7204603F084FC013040F063810434D7
:1059C000D4E73220FFF79EFE031EC0F2888113F059
:1059D000030B40F084811A19B1688A4200F27F817A
:1059E000B3F5807F00F27B814B4A9B4516D1C820DE
:1059F000FFF79EFE002800F0728124B9464B4FF05D
:105A0000FF321D681A602BF0030B434BA3441B1B92
:105A10005C4516D1029B43F008034EE74FF47A70C1
:105A2000CDE90032FFF76EFE039003990029C0F222
:105A300056810399019A009B0BF802100BF1010BA0
:105A4000D3E719592046009303F034FC204603F0B5
:105A500037FC009B1A59904240F014810434D7E778
:105A60000220FFF765FE002800F039814FF00009A1
:105A7000CB4617E0B9F1000F21D1691C1FD0099561
:105A800026494B68B3B3002209A8135C013283EAAC
:105A90000B03042ADBB251F8233083EA1B2BF4D129
:105AA00009F10409B3684B45E4D80EA8042140F875
:105AB00028BDFFF745FE029B43F01003FDE6484674
:105AC00003F0FEFB0990DBE702F0010C5208BCF189
:105AD000000F07D082F06D4282F4380282F4034254
:105AE00082F020020138EFD141F823200133B3F5D1
:105AF000807FC8D01A460820E6E700BF750F002453
:105B000086000024740F0024F89E00088A000024F8
:105B10008E0000247C1400247C1300247C0F0024BD
:105B2000801400244FF0000B09AB64200093FFF7B2
:105B3000E9FD0028C0F2D380009B0BF803000BF1B5
:105B4000010BBBF1040FF0D1099B02200093FFF77A
:105B5000EFFD009B002800F0C280184603F0BAFB5E
:105B60000EAB594643F8240D1846FFF7E9FD08E748
:105B70004FF0000B09AB64200093FFF7C3FD002832
:105B8000C0F2AD80009B0BF803000BF1010BBBF1E1
:105B9000040FF0D1099B02200093FFF7C9FD0028F4
:105BA00000F09D80009B9A0740F09980082B00F23E
:105BB0009680184603F0E0FB0EAB594643F8200DE3
:105BC0001846FFF7BDFD029B43F0400375E6022037
:105BD000FFF7AEFD002800F0828003F07DFB0EABE6
:105BE000042143F81C0D1846FFF7AAFD029B43F061
:105BF000800362E60220FFF79BFD00286FD009A911
:105C0000142003F06FFB81460EA8042140F8189D74
:105C1000FFF796FD494609A8FFF792FD029B43F462
:105C200080734AE66420FFF76DFD002857DB5FFABA
:105C300080FBBBF11E0F52D80220FFF779FD002830
:105C40004DD04FF4D07003F03BFB00904FF4D27076
:105C500003F036FB274B009A9A4240D1264B9842DC
:105C60003DD1264B4FF4D0704BEA03031946009305
:105C700003F020FB4FF4D07003F022FB009B98420E
:105C80003FF47FAE0EA841F21213022120F8143D1A
:105C9000FFF756FDCAE54FF47A70FFF749FDF0B102
:105CA0006B1C0DD10EA841F21203022120F8143D05
:105CB000FFF746FD6420FFF797FD0FB0BDE8F08FBA
:105CC000029B03F01B031B2B09D12946002003F084
:105CD000F1FA002003F0F4FA8542D3D1E2E741F271
:105CE00012330EA8022120F8143DFFF729FD0023EE
:105CF00002939BE5FFECC2925D7D05C500ECC2926C
:105D000038B50F4B0F4C002808BF184602F0F0FFC3
:105D10000D49206002F0FAFF0C4B00B118604FF003
