:020000040800F2
:1000000000000220C5110008C3110008C11100083A
:10001000C1110008C1110008C11100080000000052
:10002000000000000000000000000000C3110008F4
:10003000C311000800000000C3110008E502000819
:10004000C1110008C1110008C1110008C111000848
:10005000C1110008C1110008C1110008C111000838
:10006000C1110008C1110008C1110008C111000828
:10007000C1110008C1110008C1110008C111000818
:10008000C1110008C1110008C1110008C111000808
:10009000C1110008C1110008C1110008C1110008F8
:1000A000C1110008C1110008C1110008C1110008E8
:1000B000C1110008C1110008C1110008C1110008D8
:1000C000C1110008C1110008C1110008C1110008C8
:1000D000C1110008C1110008C1110008C1110008B8
:1000E000C1110008C1110008C1110008C1110008A8
:1000F000C1110008C1110008C1110008C111000898
:10010000C1110008C1110008C1110008C111000887
:10011000C1110008C1110008C1110008C111000877
:10012000C1110008C1110008C1110008C111000867
:10013000C1110008C1110008C1110008C111000857
:10014000C1110008C1110008C11100086D080008A4
:10015000C1110008C1110008C1110008C111000837
:10016000C1110008C1110008C1110008C111000827
:10017000C1110008C1110008C1110008C111000817
:10018000C1110008C1110008C1110008C111000807
:10019000C1110008C1110008C1110008C1110008F7
:1001A000C1110008C1110008C1110008C1110008E7
:1001B000C1110008C1110008C1110008C1110008D7
:1001C000022901D100F05ABB7047000010B5084C5D
:1001D000237813F0FD0F02D04FF0FF3010BDC3079E
:1001E000FAD500F0CDFB0028F6DB02236370F5E7BB
:1001F0004C00002010B5084C606000F001FCFFF7D7
:10020000E5FF002804DB054A53680133536010BD45
:100210006368002BF1D1FAE7E00700204C000020D2
:1002200008B5FFF7E7FFA0F120035842584108BD89
:10023000034B1B78022B01D100F0ACBB704700BF11
:100240004C000020054B99684A1C10B5D2B2DC68FE
:1002500094421EBFC9189A60087410BD4C0000205B
:10026000064AD2E902138B421FBFD1180133DBB219
:10027000087C0CBF4FF0FF30D36070474C0000206B
:1002800038B5134C2368013320D0124D124B2A6825
:100290009A421BD9114B9B6803F1006303F5C033ED
:1002A0009A4213D200F090FD00F0F4FF01F002F842
:1002B00000F046FB00F0BEFB00F0A4FB084B1C6006
:1002C00023682A6883F308881047FEE738BD00BF1B
:1002D0000080010804800108FF7F01083000002031
:1002E00008ED00E00D4A002310B5144652F8231023
:1002F00021B152F82310013942F823100133042BA5
:10030000F4D1074B93F8103133B9A36823B9022015
:1003100000F086FC3223A36010BD00BFE007002080
:100320004C000020024BD860DA68002AFCD17047EC
:10033000E00700202DE9F04FBB4E0027BB4D8FB0EA
:10034000804604202F70B46800F090FFF3684FF4EB
:100350007A70DFF8F092584300F080FF00F092FFCF
:1003600000F0A0FFB8F1000F01D0C9F8008085F8B7
:100370001071C9F808704FF0FF37012000F042FCFF
:10038000B8F1000F04D0D9F80030002B00F00A8239
:100390000020FFF72FFF0390039B002BF0DB0120D1
:1003A00000F022FC039B213B102BE6D801A252F85F
:1003B00023F000BFF90300081304000895040008A7
:1003C0007B0300087B0300087B030008F50400089A
:1003D0007B03000891050008490600088D06000807
:1003E000CD0600080D070008E50600087B0300089D
:1003F0007D070008450400080220FFF711FF08BB35
:100400000EA841F2123320F8143D0221FFF710FF2D
:10041000B3E74FF47A70FFF7EDFEB0F1000BEFDBBE
:100420000220FFF7FDFE0028EAD00BF1FF30042880
:10043000E6D8DFE800F00316191C1F0004217C48F1
:10044000FFF7F6FE2B780BB96B782B700EA841F2F4
:10045000120302214FF0000820F8143DFFF7E8FED8
:100460008BE704217048EBE704217248E8E7042198
:100470007148E5E74FF01C08404608F1040800F019
:1004800029FB0421099009A8FFF7D2FEB8F12C0F2F
:10049000F2D1D7E70220FFF7C3FE0028B0D0012336
:1004A0004FF0000B022085F8103100F09DFB00F0AA
:1004B00079FC584600F0E2FA044668B9022085F853
:1004C000100100F09FFBB368A3420BD8002485F80D
:1004D0001041C9F80840B5E758460BF1010B00F090
:1004E00003FBE6E7204600F0F5FA013040F04281D8
:1004F0000434E8E73220FFF77DFEB0F1000AFFF692
:100500007FAF1AF0030B7FF47BAF0AEB0402B168F4
:100510008A423FF675AFBAF5807F3FF671AF474A22
:10052000D34524D1C820FFF77BFE00283FF468AFF5
:100530002CB94FF0FF33D5F81471C5F814312BF0F6
:10054000030B3E4BA344A3EB040A5C453FF47AAF94
:100550005AF80410204600F09BFA204600F0BAFA40
:100560005AF80420904240F005810434EDE74FF43E
:100570007A700192FFF73EFE039003990029FFF67F
:100580003FAF0399019A0BF802100BF1010BC7E77B
:100590000220FFF745FE00283FF432AF4FF000087D
:1005A000C34619E0B8F1000F1ED17A1C1CD0099780
:1005B000D5F81832B3B3002209A9535C013283EA9B
:1005C0000B03042ADBB205EB8303D3F8143283EA6E
:1005D0001B2BF2D108F10408B3684345E2D80EA8FA
:1005E000042140F828BD2BE7404600F073FA09903B
:1005F000DEE702F0010C5208BCF1000F07D082F0D8
:100600006D4282F4380282F4034282F02002013902
:10061000EFD140F823200133B3F5807FCBD01A46C9
:100620000821E6E70648FAE7300000204C000020E9
:100630001C24000834000020380000206001002045
:1006400060020020E00700204FF0000B0DF1240AAB
:100650006420FFF7CFFD0028FFF6D2AE0BF80A00AA
:100660000BF1010BBBF1040FF2D10220DDF824A045
:10067000FFF7D6FD00283FF4C3AE504600F058FA0D
:100680000EAB43F8240D04211846D9E64FF0000BB9
:100690000DF1240A6420FFF7ADFD0028FFF6B0AE8F
:1006A0000BF80A000BF1010BBBF1040FF2D1022091
:1006B000DDF824A0FFF7B4FD00283FF4A1AE5046BA
:1006C00000F08CFA0EAB43F8200DDCE70220FFF7B8
:1006D000A7FD00283FF494AE00F038FA0EAB43F8C3
:1006E0001C0DD0E70220FFF79BFD00283FF488AEE9
:1006F00009A9142000F030FA80460EA8042140F821
:10070000188DFFF795FD414609A899E66420FFF78B
:1007100071FD0028FFF674AE5FFA80FBBBF11E0F7F
:100720003FF66EAE0220FFF77BFD00283FF468AE77
:100730004FF4D07000F0CEF982464FF4D27000F042
:10074000C9F91F4B9A457FF45BAE1E4B98427FF46C
:1007500057AE1D4B4FF4D0704BEA0303194601937B
:1007600000F096F94FF4D07000F0B4F9019B984274
:100770003FF468AE0EA841F2121344E64FF47A70CB
:10078000FFF74EFD00283FF43BAE7B1C0DD10EA8B9
:1007900041F21203022120F8143DFFF749FD6420C5
:1007A000FFF7C0FD0FB0BDE8F08F3946002000F024
:1007B0006FF9002000F08EF98742DBD1E7E700BF38
:1007C000FFECC2925D7D05C500ECC29249782129FB
:1007D0000BD022290BD0202901D000207047188887
:1007E000062894BF002001207047024B13600120AF
:1007F000704700BF20240008104B37B50446002581
:10080000009302224023012100F0DAFD20460095EA
:1008100040230222822100F0D3FD204600951023C0
:100820000322832100F0CCFD054B7F2221212046AD
:1008300003B0BDE8304001F064B900BF45080008CE
:10084000CD07000830B591B04023012100246A464D
:1008500000F0DFFD0546AC4201D311B030BD1DF8FC
:1008600004000134FFF7EEFCF5E70000024B1868C6
:1008700008B100F09BBD7047600600201FB5012144
:10088000254800F073FC8021244800F06FFC4FF4F1
:10089000C05300220221224800F0FFFB4FF4C05257
:1008A0000A211F4800F036FC1E4A136843F4001367
:1008B00013601D4B1B68B3F5005F05D14FF0A042DC
:1008C000136843F0C00313608023184C184A029346
:1008D000231D02F10D011748019303230093164BCA
:1008E00000F03CFD1549206000F0C6FF0E4B1B6870
:1008F000B3F5005F0AD10B4A136843F40413136085
:10090000D2F8CC3723F00203C2F8CC37432004B02E
:10091000BDE8104000F0D6BC303802403438024008
:1009200000000240380000503C00005060060020EB
:10093000272400089425000800000020F90700087B
:1009400010B50C4C432000F0CBFC206820B10121F5
:1009500000F030FD00232360002207484FF4C0530D
:10096000114600F09AFB80210448BDE8104000F0D9
:1009700001BC00BF60060020000002403438024085
:10098000034B1B680BB1FFF76BBC4FF0FF30704798
:100990006006002070B50B4D06460C462A686AB901
:1009A00070BD402C234632464FF0820128BF4023C1
:1009B00028689BB200F025FD241A0644002CF0D1D3
:1009C000EEE700BF600600200A4B1A6842F480720E
:1009D0001A60094A116841F4004111600749086032
:1009E000116801F4004111601A6822F480721A60E3
:1009F000704700BF0070004070380240502800402F
:100A00000720704700220848114608B5042300F06B
:100A100044FB4FF08051054800F0ACFB044B4FF411
:100A200080121A6008BD00BF00000240403802403A
:100A30003038024010B50220002400F043FA0220B2
:100A400000F01CFA094B01201C6000F05DFA204602
:100A500000F05AFA00F07AFA054B064A01201A60B3
:100A600000F09AFB044B1C6010BD00BF0838024028
:100A700004380240103000240C38024006289DBF84
:100A8000024B03EBC000406800207047EC240008D4
:100A900070B50F4C05460E4600F09EF9236805F12F
:100AA000006023F4407300F5C0302360236843F4F2
:100AB00000732360236843F0010323600660BFF3E3
:100AC0004F8F00F089F9236823F00103236070BD84
:100AD000103C0240830703BF00F1006000F5C03006
:100AE0000068002070470000831E042B70B50AD8F0
:100AF000022200250D4CD3008242234404D15E68BB
:100B00000021B14204D370BD5B6801321D44F2E79D
:100B10006818FFF7DFFF013001D10431F1E714F865
:100B200032000221BDE8704000F070B9EC240008EA
:100B300010F0030308D1B0F5806F05D800F1005024
:100B4000A0F571200068704700207047014B1868BD
:100B5000704700BF002004E01E4BF0B51C681E4B20
:100B6000C4F30B02240C1F885E68BA421D7A25D09C
:100B70009F89BA4224D01F8BBA4205D102220C258C
:100B800005FB02335E681D7AB4F5805F1AD041F22E
:100B900001039C4208BF5A25441E013E0B460C44EB
:100BA000A34215D216F8010F5A1C68B92C20A24294
:100BB000187001D29A1C5D70501AF0BD0022DEE759
:100BC0000122DCE74125E7E702F8010C1346E7E7DD
:100BD0001A46F1E7002004E00C000020014BC05849
:100BE000704700BF20F4F01F012802D0022804D073
:100BF00070470021024800F041BA0421FAE700BF23
:100C000000000240012802D0022804D070470021D1
:100C1000024800F031BA0421FAE700BF00000240A8
:100C2000012802D0022804D070470021024800F0B9
:100C30002BBA0421FAE700BF000002403E4A01211E
:100C40003E48136843F4700370B513606FF07F0281
:100C50003B4B002483F82D200E2283F82C4083F890
:100C60002E2083F82F4000F081FA04232246012130
:100C7000344800F012FA042322462146314800F09D
:100C80002EFA04212F4800F0F9F94FF080512E4838
:100C900000F06CFA08212D4800F098F92C4B1A68E6
:100CA00042F480721A602B4A116841F400411160CD
:100CB00029490868116801F4004111601A6822F49A
:100CC00080721A60254B984232D125462046FFF7A4
:100CD0007BFE234A234B1168234A1B6891420ED1A5
:100CE00023F0FF01214A914209D1DBB21E2B06D825
:100CF0004FF47A72002553439C4238BF1C464FF490
:100D00008071104800F0BDF9064630B92DB1344667
:100D1000FFF7B6FA1148FFF757FE02210020FFF750
:100D20004FFA20460024FFF705FBFFF7A9FAF8E782
:100D300041F288340125CCE788ED00E030380240EC
:100D40000C0000200000024040380240442500080A
:100D500000700040703802405028004007B007B0D3
:100D6000A4810108A08101085D7D05C500ECC29247
:100D7000044B1A6822F440721A601A6842EA002092
:100D800018607047103C0240054B1A6822F00F02B1
:100D900002431A601A6802F00F028242FAD17047C9
:100DA000003C0240054A136843F000431360044BC3
:100DB000044A1A6002F188321A607047103C0240FF
:100DC000043C024023016745024A136843F0004394
:100DD00013607047103C0240BFF34F8F024A136804
:100DE000DB03FCD4704700BF0C3C0240024A13688E
:100DF00043F4007313607047003C0240024A1368DA
:100E000043F4807313607047003C024010B5044601
:100E1000FFF7E2FF0846FFF7ABFF0E49E4000B685F
:100E2000E4B223F0F8030B600B681C430C600B6802
:100E300043F002030B600B6843F480330B60FFF751
:100E4000CBFF0B6823F002030B600B6823F0F80361
:100E50000B6010BD103C0240024A13689B01FCD598
:100E6000704700BF00380240034A136803F00303D1
:100E7000022BFAD1704700BF08380240042808D876
:100E8000DFE800F017120D0803000B4A13689B07F8
:100E9000FCD57047094A13689907FCD57047084A82
:100EA00013689807FCD57047054A13689B03FCD567
:100EB0007047FFF7D1BF00BF74380240703802405E
:100EC00000380240042809D8DFE800F003090E13B7
:100ED00015000A4A136843F0807313607047074A8D
:100EE000136843F48033F8E7044A136843F00103BE
:100EF000F3E7034AF9E7034AF7E700BF0038024087
:100F00007038024074380240042809D8DFE800F045
:100F100003090E1315000A4A136823F08073136047
:100F20007047074A136823F48033F8E7044A1368CC
:100F300023F00103F3E7034AF9E7034AF7E700BFA9
:100F4000003802407038024074380240024A136888
:100F500023F400231360704700380240034A1368EB
:100F600023F0030318431060704700BF08380240A5
:100F7000034A136823F4604343EA4030106070472B
:100F800008380240034A136823F4E05343EA802000
:100F90001060704708380240034A136823F0F003DA
:100FA00043EA0010106070470838024040EA0363CB
:100FB000520843F48003013A43EA811343EA0243AF
:100FC000014A1360704700BF0438024038B5044638
:100FD00002200D46FFF776FF0220FFF74FFF0020AB
:100FE000FFF7BCFF0120FFF76DFF0120FFF746FF71
:100FF00040F61C0000F0C3F8E07A00F07FF9237B94
:101000000BB100F095F9207AFFF7C6FF607AFFF781
:10101000B9FFA07AFFF7ACFF2188E8B2E378A278A5
:10102000FFF7C4FF104A136843F080731360FFF7A3
:1010300013FF6068FFF7A8FEFFF7D8FEFFF7DEFE9C
:101040000220FFF78BFFFFF70FFF2269074B0220FB
:101050001A606269064B1A60A269064B1A60BDE805
:101060003840FFF751BF00BF003802404000002069
:10107000440000204800002081617047090481611C
:101080007047006908407047436901EA030221EA9A
:10109000030141EA0241816170472DE9F041056891
:1010A0000026C4684FF0030E43FA06F7FF070FD57A
:1010B00077000EFA07FC01FA07F802FA07F76FEA61
:1010C0000C0C0CEA05050CEA040448EA05053C434F
:1010D0000136102EE8D10560C460BDE8F081012919
:1010E00041680CBF19439943F0B541600024816801
:1010F000032643FA04F5ED0707D5650006FA05F760
:1011000002FA05F521EA070129430134102CF0D138
:101110008160F0BDF0B50023076A4FF00F0C466AFE
:1011200042FA03F4E50707D59D000CFA05F401FA2D
:1011300005F527EA04072F430133082BF0D14FF0C0
:101140000F0C42FA03F4E4070AD503F18044083C8B
:10115000A4000CFA04F501FA04F426EA0506264375
:101160000133102BEDD107624662F0BD03681943CD
:1011700001607047036823EA010101607047430979
:1011800000F01F02012003F18043904003F50E336D
:101190001968084318607047012802D0032806D058
:1011A0007047054A136823F4802313607047034A8D
:1011B000136823F00403F8E7003802407038024057
:1011C000FEE7704700221A4C1A491B485318834205
:1011D0001AD31A4A002193421AD3194A194C136898
:1011E000194D43F400731360536F43F47003536756
:1011F000AC4210D3154C164DAC4210D3154CFFF732
:101200001DFD154DAC420ED3135953500432DDE78A
:1012100019600433DFE754F8043B9847E8E754F8D3
:10122000043B9847E8E754F8043B9847EAE700BFD7
:10123000C8250008000000204C000020F007002016
:1012400014ED00E0C8250008C8250008C8250008DE
:10125000C8250008C8250008C825000820F07F40E0
:10126000014B1860704700BF14E000E0044A00F032
:101270000400136823F0040303431360704700BFA6
:1012800010E000E0024A136843F002031360704765
:1012900010E000E0024A136823F002031360704775
:1012A00010E000E0024A136843F001031360704746
:1012B00010E000E0024A136823F001031360704756
:1012C00010E000E04209054B00F01F0003EB820331
:1012D000012202FA00F01860704700BF00E100E050
:1012E0004209054B00F01F0003EB8203012202FAC2
:1012F00000F01860704700BF80E100E00B4B1A68F7
:1013000022F440421A6020B91A6842F440421A603E
:101310007047012803D11A6842F40042F7E7022817
:10132000F6D11A6842F48042F1E700BF0070004035
:10133000084B1A6842F480321A60074A1146106856
:10134000C003FCD51A6842F400321A600B689B0394
:10135000FCD5704700700040047000402DE9F0415A
:101360001E4603680546884617469847069BC36095
:10137000079B0361BDF820308382094B0367094B4B
:10138000C366094B83660023C0F8DC50C0E90087C0
:101390008660C0E93233C0E93433BDE8F08100BF74
:1013A000291B0008991B00081B1C0008D0F8DC3022
:1013B0005B6A1847D0F8DC309B6A03B11847704766
:1013C00010B4D0F8DC40A468A4465DF8044B604734
:1013D00037B5036800250446C582DB7900952A46A7
:1013E0002946FFF7EDFFD4F8DC3029465B6820463C
:1013F0009847E3691BB103B0BDE83040184703B01C
:1014000030BD10B4D0F8DC40E469A4465DF8044B6C
:10141000604710B4D0F8DC40246AA4465DF8044B61
:101420006047D0F8DC301B691847D0F8DC309B6986
:101430001847D0F8DC305B691847F8B50D46498885
:10144000044679B103680D26587C0023984201D8E0
:101450000020F8BD626806FB032252798A4203D05D
:101460000133F3E74FF0FF330133DBB2E3754BB9E0
:10147000D4F8DC302046DB689847D4F8C830ABB9E4
:101480000120E6E70D226FF00C0112FB03126368E6
:1014900013440022104619799142E9D9D3F8091072
:1014A0001601715801B108700132F4E70023A364FA
:1014B0002365A365236604F1C80604F1D80756F82E
:1014C000043B13B1698820469847B742F7D1D7E764
:1014D00019881268012984BF01211980C37D2BB1AD
:1014E00041680D2000FB031313F8083C1370012022
:1014F000704770B5C67D40686FF00C050D2414FB75
:10150000065420448D880479A5420CD201241C8005
:101510008B88D0F809001B011B5803B11B78126897
:101520000120137070BD0020FCE71988022984BFD8
:1015300002211980116800230B701268012053707A
:10154000704710B514461A88022A84BF02221A80F6
:101550008988C9B2FFF769FF2368003018BF0120EE
:101560001870236800225A70012010BD08B58988C0
:101570000122C9B2FFF755FF012008BD08B58988CF
:101580000022C9B2FFF74DFF012008BD10B50B784E
:1015900073B94C887F2C0BD8D0F8DC30847593F865
:1015A00030201AB149885B68C9B29847012000E031
:1015B000002010BD70B5C27D0D241D466FF00C03D8
:1015C00014FB023344688A881C442379934218D957
:1015D000D4F809304C8812019E183679A64210D9E9
:1015E0009A5852B11470D0F8D83013B14A8889880B
:1015F000984700232B80012070BD002CF3D01046AB
:10160000FAE70020F8E72DE9F04F4D881F462B0A36
:10161000022B89B0164611D0032B00F0E780012B76
:1016200040F01C8102683260127839888A4228BFF3
:101630000A463A80012009B0BDE8F08FEDB205EB13
:1016400045060369D0F80480136005EB86063C88E4
:1016500018F806500193A54208EB060328BF25465B
:101660002A4619460198029300F0D0FD019B18F814
:101670000660641B2B44A4B200220492029A1179E2
:10168000BDF81020914203D8019B5E803D80D1E7D8
:10169000049A12010792029A0799D2F809200A4483
:1016A000D2F80890B9F1000F14D099F80080A04545
:1016B00028BFA04642461846494600F0A7FD99F8C3
:1016C00000200346A4EB0804454416444344A4B256
:1016D000ADB2B6B200220592029A0799D2F809205B
:1016E0000A44BDF814101079884202D8049A0132D5
:1016F000C3E70599D2F80CA0152000FB01F90AEB0D
:10170000090B1AF80980A04528BFA0464246594651
:10171000184600F07BFD1AF80920DBF80D1003468F
:10172000A4EB0804454416444344A4B2ADB2B6B297
:10173000A9B1DBF81180A045A8BFA0461FFA88F91F
:101740004A46184600F062FDDBF811200346A4EB80
:1017500009044D4416444B44A4B2ADB2B6B24FF0A6
:1017600000099BF804101FFA89F2914202D8059AE9
:101770000132B0E7DBF809200692C9EB091A52449E
:101780000392069A039912F80A80A04528BFA04642
:101790004246184600F03AFD069A12F80A2016440E
:1017A000039AD2F807100346A4EB080445444344C7
:1017B000A4B2ADB2B6B2B1B1D2F80B80A045A8BF09
:1017C000A0461FFA88FA5246184600F01FFD039AF9
:1017D000D2F80B200346A4EB0A04554416445344A4
:1017E000A4B2ADB2B6B209F10109BAE715F0FF052E
:1017F00004690DD10923A3700423E37023703B888F
:10180000042B28BF04233B8003236370346011E75B
:1018100083681BB3C268013DAA421FDD898840F27C
:10182000094291421AD153F82550284600F088FD0C
:1018300001304000C0B220703B88984228BF184653
:10184000388029463B885B084A1B013B9342DBDD1D
:1018500004EB420211F8013B5380F3E70020EAE673
:101860001988022984BF02211980116800230B7096
:10187000126801205370704710B5002300F1C804AE
:1018800054F8042B2AB10133042BF9D14FF0FF3067
:1018900010BD323340F823101046F9E710B44C78ED
:1018A000092C13D8DFE804F00E12121212100C12D9
:1018B0000A05084CA4465DF8044B6047064CF9E75E
:1018C000064CF7E7064CF5E7064CF3E700205DF819
:1018D000044B70473B140008D11400080716000899
:1018E0002B1500088D15000810B44C780A2C09D06F
:1018F0000B2C02D044B9064C00E0064CA4465DF81F
:10190000044B6047044CF9E700205DF8044B704736
:1019100061180008B5150008F314000810B44C78DD
:10192000012C06D012D3032C08D000205DF8044B04
:1019300070474C88002CF8D1054C03E04C88002CF3
:10194000F3D1044CA4465DF8044B6047024CF9E720
:101950007D1500086D1500084315000810B40C78BB
:1019600014F0600F06D104F01F04012C0AD005D337
:10197000022C0BD000205DF8044B70475DF8044B3F
:10198000FFF78CBF5DF8044BFFF7AEBF5DF8044B6B
:10199000FFF7C4BF10B5012204460021FFF741FD47
:1019A000002384F82C3010BD70B50368828FC48E7C
:1019B000DB79816BA41A9C42A8BF1C46A6B20A44DC
:1019C000334600210546FFF724FD864205D0284610
:1019D000FFF7E0FF4FF0FF3070BDAB8F1E44AE87C6
:1019E000A0B2F9E710B50368826BD979838F994269
:1019F00004460FD20B460021FFF703FD022384F8B3
:101A00002C302368A26BD979A38F0A445B1AA26396
:101A1000A38710BD0021FFF7F4FC94F84430002B9D
:101A20000CBF0323022384F82C30002384F84430B5
:101A3000A387A363EDE72DE9F74F04460E4600F1B7
:101A4000480500F1680B00F1380700F13C0800F18F
:101A5000400AD5F80090B9F1000F08D033786979C1
:101A60002A790B409A420BD008355D45F1D14346A7
:101A70003A463146204603B0BDE8F04FFFF76EBF4F
:101A8000CDF800A043463A4631462046C8470128D3
:101A9000EAD803B0BDE8F08F38B5036983638B796A
:101AA000CA7943EA0223838704460D46FFF7C3FF42
:101AB00010B3EB88BBB1A28F21689342C9790ED9CC
:101AC0007AB192FBF1F301FB1323B3FA83F35B09C1
:101AD00084F844302046BDE83840FFF783BF002338
:101AE000F6E71346F4E71A4619462046FFF789FC45
:101AF000042384F82C3038BD2046BDE83840FFF779
:101B000049BF70B5002600EBC605AC6C2CB10136A0
:101B1000042EF8D14FF0FF3070BD85F84C1085F8D9
:101B20004D20AB642046F7E770B5002500F1300684
:101B30000446056401222946FFF77BFC0823324650
:101B400029462046FFF765FC082804D02046BDE85A
:101B50007040FFF71FBFE38E2BB931462046BDE82A
:101B60007040FFF799BF94F93020002AF5DBA28A74
:101B70009A42EBD32269A2632268A587D2799A425E
:101B800034BF05230623002284F82C30204611465A
:101B9000BDE87040FFF74DBC90F82C30062B10B517
:101BA000044612D0072B27D0052B21D1FFF7FCFECE
:101BB000002809DBA28FE38E9B1A2268D279934218
:101BC00002DC062384F82C3010BDFFF7EDFE002860
:101BD000FADB04F130012046FFF72DFF38B1002376
:101BE0001A4619462046FFF70CFC0423EAE7204674
:101BF000BDE81040FFF7CEBE00231A461946FFF796
:101C000008FC002384F82C30236C1BB104F1300154
:101C10002046984700232364D6E790F82C30032B06
:101C200010B5044607D0042B0ED0022B23D1BDE8FB
:101C30001040FFF7D7BE0723002280F82C30114652
:101C4000BDE81040FFF7F5BB036C13B100F13001A4
:101C5000984794F8303053B994F83130052B06D1B9
:101C6000618ED4F8DC30C9B25B6820469847002307
:101C700084F82C3010BDBDE81040FFF78BBE00008B
:101C800008B540F28760FFF77AFA254A136843F0F7
:101C900040031360234B19461A68002AFCDA1A68BD
:101CA00042F001021A600B68DB07FCD41E4B1F4890
:101CB0001B68B3F5005F1E4B1A682CBF42F4041278
:101CC00042F410221A601B4A136823F002031360C7
:101CD000A2F5FF62136843F0804343F4705313602E
:101CE000154B02221A60154A136843F00303136070
:101CF000134B00221A60134A80231360A0F8E030CF
:101D000052F81C3C43F0010342F81C3C0E4B0F4AB6
:101D10001A600F22C3F804280122C3F8F82708BD6F
:101D20000C000050100000503C000050E406002061
:101D30003800005004080050140000500008005003
:101D4000000E00502400005018000050102804809D
:101D5000D0F8DC30DA6AD2F8003823F4FE6343EAC4
:101D60000111C2F800187047D0F8DCC02DE9F04727
:101D700011F07F06089FDCF82C5003F07F043ED161
:101D80003F2B31D9C5F80069DCF82C20C2F8104986
:101D9000DCF82C10D1F8002942F00842C1F80029E3
:101DA000DCF82C2044F0005444F40024C0F8E8404F
:101DB000C2F8104BDCF82C10D1F8002B42F008428E
:101DC000C1F8002B9908BCF83230DCF82C2043EA2B
:101DD00001439362B0F8E030194489B2A0F8E010F2
:101DE000A0F8E210BDE8F0871F2B03D90122C5F847
:101DF0000029C9E70F2B8CBF02220322F7E709064F
:101E00004FEA46184FEA824229D5B0F8E0904FEAEF
:101E1000930E06F1400149EA0E4A45F821A0DCF88C
:101E20002C5005F51165CE44A0F8E0E045F80840D7
:101E300042F0184108F51068DCF82C4041F40041EC
:101E400058F80450194341EA8651294348F80410D0
:101E5000002FC7D00C2303FB06008766C2E706F1FC
:101E60003A0105F5316544F4002440F8214045F875
:101E7000084008F53061DCF82C4042F014420D595E
:101E800042F400421A432A430A51002FAAD00C23DD
:101E900003FB0600C766A5E7B0F8E230D0F8DC2007
:101EA00010B5A0F8E0304FF43263D16A58580028DA
:101EB000BEBF585840F080405850A3F50070D16A1A
:101EC0004458002CB8BF445803F12003BCBF44F071
:101ED00080444450B3F5386FE7D1D36A4FF486623B
:101EE0001A6110BD10B5D0F8DC0039B9C36AD3F857
:101EF00000498AB144F40014C3F800490C0646BFF7
:101F000001F07F0148315831C36A49013AB1CA58DA
:101F100042F40012CA5010BD24F40014ECE7CA5871
:101F200022F40012CA50C26A8B5843F080538B507F
:101F3000F1E70A06D0F8DC3046BF01F07F014831F6
:101F40005831DB6A4901C858C0F3405070470B064E
:101F50000CD44318583183F8E420D0F8DC30490120
:101F6000DB6A22B1CA5842F00062CA507047CA58B0
:101F700042F08062F9E770B5D0F8DC50E86A01F011
:101F80007F014C0100F511600659360316D443F465
:101F90000026065104F51064EE6AA059013140F0A4
:101FA0000440A0510903D418A01A002801DC1846E7
:101FB00070BDE86A52F8046B0E50F5E70023F6E7AF
:101FC00037B501461046B1F8F8409C4228BF1C4680
:101FD00015191346EA1A032A1CDCA3086FF0030242
:101FE00002FB034200EB83008AB1D1F8DC30DB6AEC
:101FF00003F580531B680193B1F8F830032B94BFAD
:102000000023043BA1F8F83001A900F0FFF82046B6
:1020100003B030BDD1F8DC20D26A02F580521268DC
:1020200043F8042BB1F8F820043AA1F8F820D1E7DE
:102030002DE9F843D0F8DC30DA6A556915F400561A
:10204000044609D05B8E4FF400515161A0F8E03096
:10205000BDE8F843FFF7BCB94FF00C084FF0010999
:10206000D4F8DC30DB6A770103F60813DB59DA07B2
:102070000DD508FB06439B6E13B1F1B2204698477D
:10208000D4F8DC30DB6A03F6081343F80790013616
:10209000042EE5D1EB0648D5D4F8DC00C36A1A6AF1
:1020A00002F4F016B6F5C02F02F00F0102D0B6F51B
:1020B000002F18D101F13A054A0103F5316354F8B4
:1020C00025509D50214402F5306391F8E410C06A18
:1020D00000291A580CBF4FF004414FF008410A4341
:1020E0001A50BDE8F883B6F5802F73D0B6F5402FAF
:1020F000F7D14E0103F51167BF593F0340D40220C9
:1021000001EB410303441A33C2F30A1254F823309B
:10211000A4F8F8200BB120469847B4F8F810002333
:10212000994259DC0023A4F8F8302A0508D5236A1F
:1021300003B19847D4F8DC30DB6A4FF400625A618F
:10214000002D08DA636A03B19847D4F8DC30DB6A03
:102150004FF000425A612B0707D5A36A03B1984795
:10216000D4F8DC30DB6A08225A61D4F8DC30A26A89
:10217000DB6A002A38D09A6942F008029A61B0E717
:1021800006F5106C53F80C7047F0006743F80C70BC
:10219000C76A07F608133344D3F800E01EF0400F77
:1021A000FAD05CF807309B0DD7F810E0BEF1000FB5
:1021B000FADA9B0103F4707343F020033B61C36AB6
:1021C00003F5116300279F51C36A10331868800616
:1021D000FCD494E7012093E7D4F8DC20D26A02F51E
:1021E0008052043312689BE79A6922F00802C5E71F
:1021F000D0F8DC30DB6AD3F8042821B142F00202C7
:10220000C3F80428704722F00202F9E7844641EA45
:10221000000313F003036DD1403A41D351F8043B5E
:1022200040F8043B51F8043B40F8043B51F8043BB0
:1022300040F8043B51F8043B40F8043B51F8043BA0
:1022400040F8043B51F8043B40F8043B51F8043B90
:1022500040F8043B51F8043B40F8043B51F8043B80
:1022600040F8043B51F8043B40F8043B51F8043B70
:1022700040F8043B51F8043B40F8043B51F8043B60
:1022800040F8043B51F8043B40F8043B51F8043B50
:1022900040F8043B51F8043B40F8043B403ABDD2BF
:1022A000303211D351F8043B40F8043B51F8043B61
:1022B00040F8043B51F8043B40F8043B51F8043B20
:1022C00040F8043B103AEDD20C3205D351F8043BF0
:1022D00040F8043B043AF9D2043208D0D2071CBFBC
:1022E00011F8013B00F8013B01D30B8803806046E5
:1022F000704700BF082A13D38B078DD010F003035B
:102300008AD0C3F10403D21ADB071CBF11F8013BCA
:1023100000F8013B80D331F8023B20F8023B7BE719
:10232000043AD9D3013A11F8013B00F8013BF9D244
:102330000B7803704B7843708B78837060467047DE
:1023400090F800F06DE9024520F007016FF0000CF5
:1023500010F0070491F820F040F049804FF000049D
:102360006FF00700D1E9002391F840F000F1080078
:1023700082FA4CF2A4FA8CF283FA4CF3A2FA8CF3B0
:102380004BBBD1E9022382FA4CF200F10800A4FA17
:102390008CF283FA4CF3A2FA8CF3E3B9D1E904236B
:1023A00082FA4CF200F10800A4FA8CF283FA4CF3A2
:1023B000A2FA8CF37BB9D1E9062301F1200182FA5C
:1023C0004CF200F10800A4FA8CF283FA4CF3A2FA62
:1023D0008CF3002BC6D0002A04BF04301A4612BA70
:1023E000B2FA82F2FDE8024500EBD2007047D1E973
:1023F000002304F00305C4F100004FEAC50514F002
:10240000040F91F840F00CFA05F562EA05021CBFD2
:1024100063EA050362464FF00004A9E705000000E7
:1024200000C201000000080902000002010080FA59
:10243000482400081201000202000040AC261600E9
:102440000101010203010000000000000100000082
:10245000000000007D2400080000000001000000D2
:10246000000000006824000809040100020A0000BE
:1024700000A524000800000000000000000904007E
:10248000000102020100C324000892240008130086
:1024900000000524001001052401000104240200AD
:1024A00005240600010705010240000100000000AC
:1024B000000000000705820240000100000000004B
:1024C000000000070583031000FF0000000000006B
:1024D0000000486F6C7962726F00505834204B6175
:1024E0006B75746546370030000000000100000085
:1024F00000800000020000000080000003000000D7
:102500000080000004000000000002000500000040
:1025100000000400060000000000040007000000A6
:102520000000040008000000000004000900000092
:10253000000004000A000000000004000B0000007E
:1025400000000400B00102090700000000050400BB
:10255000010000000000000080F9370300F36F065F
:102560000010410001105A0053544D3332463F3F92
:102570003F3F3F3F0053544D333246375B347C3549
:102580005D780053544D333246375B367C375D7887
:1025900000000000811C0008511D0008691D000892
:1025A000991E0008E51E00084F1F0008331F000891
:1025B000771F0008C11F000831200008F121000822
:0825C000000000500100800042
:1025C800D2240008DA240008E724000800000000EC
:1025D800682500083F000000490400007525000830
:1025E8003F00000051040000832500083F00000060
:1025F8007B0000000000000000000000A8000000B0
:0C2608000024F4000024F4000024F4007E
:0400000508000000EF
:00000001FF
