:020000040800F2
:100000002A17002405030008A9020008A902000815
:10001000A9020008A9020008A9020008A902000814
:10002000A9020008A9020008A9020008A902000804
:10003000A9020008A9020008A9020008A9020008F4
:10004000A9020008A9020008A9020008A9020008E4
:10029000A9020008A90200080000000000000000F8
:1002A000FFECC2925D7D05C5EFF305801EF0040FE3
:1002B00002D0EFF309818D466A4602F16802EFF33E
:1002C00011831EF0100F0CBF2DED108A90B02DE998
:1002D000FC4F6946DFF828D000F044FAB0E8FC4F44
:1002E0001EF0100F0CBFB0EC108A40301EF0040F4F
:1002F0000CBF80F3088880F3098883F31188704766
:100300000003002408B5174A0021174B934221D35C
:10031000164B174A17498B421FD300F009F900F01A
:1003200039FA00F05BF9BFF34F8FBFF36F8F124ABA
:10033000136823F001031360536823F00103536033
:10034000BFF34F8FBFF36F8F00F068FC00F0F4F93C
:1003500000F076FC43F8041BD8E752F8040B43F88E
:10036000040BD8E73C140024000100240000002402
:1003700090A200080001002490EF00E0594B82B0E9
:100380001A6822F4802242F480321A60564A01929E
:10039000019A002A00F39F80019B002B40F3998073
:1003A000524A5349136823F4706323F00F0343F058
:1003B000080313600B6823F4E06343F040030B6011
:1003C0000B6823F4E06343F480630B60136823F04D
:1003D000700343F040031360936823F0700343F00D
:1003E00040039360434B444A283B9A62434A1A6352
:1003F000434A9A6302F500321A64424ADA621A6882
:1004000042F0A8521A601A689201FCD51A681001CD
:10041000FCD5344A13689900FCD53B4A136843F075
:1004200006031360394B1A6842F440421A601A6896
:100430009204FCD536490A689004FCD535490A680F
:1004400042F002020A6034490A6842F001020A607E
:100450001A689204FCD5314B22221A60304B1A687C
:1004600022F0070242F003021A601A6802F0380212
:10047000182AFAD12B482C4A036823F4405343F43A
:1004800000530360136823F4407343F40073136054
:10049000264B196821F4E04141F480511960196834
:1004A00021F4E02141F480311960116821F0E0412C
:1004B00041F080511160016821F4401141F40011B4
:1004C0000160116821F4403111601A6822F0405235
:1004D0001A6002B070471A6891033FF55DAF019A48
:1004E000013A54E70044025848BE2100184402581B
:1004F0001C440258284402581220200077020307A7
:100500002F0201018808BF000C4802581848025801
:1005100004480258F44402582C04005800200052A9
:100520001044025854440258584402585044025847
:1005300008B5204B012100201A6842F001021A6020
:100540001D4A11601D4A10601D4A19680A401D4964
:1005500042F010021A601C4A11601A6822F48022CC
:100560001A60186600F07AF8FFF708FF174A136858
:1005700043F0006343F001031360154B1A681A60DF
:1005800053F8082C43F8082C124A136843F08053A0
:1005900043F09F031360104B1A681A605A685A6040
:1005A0009A689A6053F8042C43F8042CDA68DA60ED
:1005B00008BD00BF00440258088100511044025891
:1005C00067EFFEEA0000FF012C440258D8440258AD
:1005D000DC440258E0440258E84402587047FFECFB
:1005E00030B4EFF3118400238022EFF3108372B64E
:1005F00082F3118883F31088BFF34F8F154B164A8F
:100600001B68118803F4807578B10131118012885C
:1006100075B1BAB10023BFF34F8FE4B284F31188F0
:10062000ABB1042030BC00F04AB849B10139EDE764
:10063000002AEFD043F48073064A13600123EAE7EF
:10064000002DE7D023F48073024A1360E2E730BC48
:10065000704700BF0048025800030024EFF31182E6
:1006600000238021EFF3108372B681F3118883F3A6
:10067000108806490B6823F480730B600021044B3B
:100680001980D3B283F31188FFF7AABF004802583C
:100690000003002430B5EFF3118400238025EFF32D
:1006A000108372B685F3118883F31088036823EAF8
:1006B0000101E3B20A43026083F3118830BD82B0C6
:1006C000002245F26161B0F57A7F0BD8002240F636
:1006D000A201642811D800220A2818D8002200BBE1
:1006E00002B070470192019B8B4202DDA0F57A7047
:1006F000E9E7019B01330193F5E70192019B8B42EE
:1007000001DD6438E5E7019B01330193F6E70192CF
:10071000019BDC2B01DD0A38DEE7019B01330193ED
:10072000F6E70192019B152B01DD0138D7E7019B0C
:1007300001330193F6E7FFECBFF34F8FBFF36F8FE9
:10074000064B00221A60064A136843F40033136014
:10075000BFF34F8FBFF36F8F704700BF50EF00E0C4
:1007600014ED00E037B50A4D0C462B680BB91C465A
:100770002960019000F0F3F82968019800F042FB2D
:1007800014B900232C682B60204603B030BD00BF95
:1007900004030024EFF3148343F0040383F3148869
:1007A000064A1368A2F5D67223F04043C2F8AC3172
:1007B000136843F470031360704700BF34EF00E028
:1007C0000F2810B531DDA0F110041F2C0ADC03F155
:1007D000604303F561430B60012303FA04F41460E2
:1007E00000201CE03F2C08D81C4C30381C440C6006
:1007F000012303FA00F01060F2E75F2C04D8184CD4
:1008000050381C440C60F3E77F2C04D8154C70382A
:100810001C440C60ECE7952C02D94FF0FF3010BD62
:10082000114C90381C440C60E2E7104B04280B601C
:1008300003D14FF480331360D2E7052802D14FF47F
:100840000033F8E7062802D14FF48023F3E70F289E
:10085000E3D1074B0B600123EDE700BF04E100E0AB
:1008600008E100E00CE100E010E100E024ED00E030
:1008700010E000E01D4B4FF0FF301D4910B51B6824
:1008800003F00F035A1C03F1382361339B0041F836
:10089000040B8B42FBD1174B1749184C19604FF0D2
:1008A00080311961216099615301154A03F1604358
:1008B00003F5644342F8041B9342FBD1114B002221
:1008C00011490B201A6000F075FA00220F4903202D
:1008D00000F070FA236823F07F4343F0E043236085
:1008E000F02383F3118862B610BD00BF04E000E07E
:1008F00080E100E008ED00E0000000081CED00E0F1
:1009000000E400E0040300249509000861090008E0
:1009100013B5802301AA69460446FFF751FF20B9A9
:100920000F2CDDE9003102DD196002B010BD1A683C
:1009300022EA01021A60F8E713B5002301AA69460A
:100940000446FFF73DFF20B90F2CDDE9003102DD41
:10095000196002B010BD1A680A431A60F9E77047BF
:1009600008B5094B1B68094B1B68EFF31183002383
:100970008022EFF3108372B682F3118883F310881C
:10098000AD21034800F03CF92CED00E028ED00E03B
:10099000909C0008CA6E012A08B508D0022A0AD025
:1009A0001AB9D422086F00F023F8002008BD0A6F9E
:1009B000034B1A60F9E70A6F11604A6FF8E700BF4E
:1009C00004030024FFECC2925D7D05C5FFECC292DA
:1009D00018DF88DFCD06CD767CD30CD3D982D9122F
:1009E0002C00050A0F14191E232800BFAFF3008046
:1009F00000B501B400F004F801BC00BDAFF3008005
:100A000000B5042A60DB00F0030E61F3830E7A4B1D
:100A1000D3E80EF0AFF30080AFF30080AFF30080B7
:100A200011F8013B00F8013BA2F1010211F8013B72
:100A300000F8013BA2F1010211F8013B00F8013B73
:100A4000A2F101022DE9F01F282A07DBB1E8F81F07
:100A5000A0E8F81FA2F12802282AF7DADFF89CE1C3
:100A60004FEA920BDEE80BF051F8043B40F8043BF0
:100A700026E0B1E81800A0E8180021E0B1E838004D
:100A8000A0E838001CE0B1E87800A0E8780017E0A2
:100A9000B1E8F800A0E8F80012E0B1E8F801A0E839
:100AA000F8010DE0B1E8F803A0E8F80308E0B1E8C8
:100AB000F807A0E8F80703E0B1E8F80FA0E8F80F9E
:100AC000BDE8F01F02F00302002A08BF00BD11F8C4
:100AD000013B00F8013B013A08BF00BD11F8013BA2
:100AE00000F8013B013A08BF00BD11F8013B00F8D6
:100AF000013B00BDAFF30080AFF30080AFF3008097
:100B000011F8013B00F8013BA2F1010211F8013B91
:100B100000F8013BA2F1010211F8013B00F8013B92
:100B2000A2F10102282A35DB2DE9F01FB1E8F81FF8
:100B300020F8023B4FEA134364F31F434FEA144487
:100B400065F31F444FEA154566F31F454FEA164605
:100B500067F31F464FEA174768F31F474FEA1848E5
:100B600069F31F484FEA19496AF31F494FEA1A4AC5
:100B70006BF31F4A4FEA1B4B6CF31F4BA0E8F80FB7
:100B80004FEA1C4C20F802CBA2F12802282ACDDA29
:100B9000BDE8F01F042A97DB51F8043B20F8023B24
:100BA0004FEA134320F8023BA2F10402BAE711F81E
:100BB000013B00F8013BA2F1010211F8013B00F8F2
:100BC000013BA2F1010211F8013B00F8013BA2F147
:100BD0000102042AFFF678AF51F8043B00F8013B0C
:100BE0004FEA132320F8023B4FEA134300F8013B7E
:100BF000A2F10402EDE70000D0090008E0090008B6
:100C000008B501F07DFB012000F004F8012008B5D3
:100C100000F000F808B500F03DFB704700F008B8A0
:100C2000002070470021084601F018BA04F07ABD90
:100C3000014801F065BA00BF080C02007047FFECE4
:100C40003C4C01233C4D8C2204F170062B7083B583
:100C50000021204603F0FEFD0323182237492377A5
:100C60003046374B374FC4E905330623E38303F09F
:100C700040FE354920463E6003F0F9FB334B01A9A5
:100C80006846334E1C6002232B7001F017FADDE931
:100C9000000103F0FBF9042333603368012B45DDC9
:100CA0003068800003F010FA2A4B18603368046043
:100CB0002048A17F00F00AFBA3681E48DB685F6044
:100CC00001F072FC1B4800F0F3FA1A4800F01CFB1C
:100CD000A36805221A7200221F4B1A6003232B708F
:100CE00000F0C0F806F074FD1C4B0BB100F034FBB3
:100CF0001B4B0BB107F08DFB1A4B0BB100F082FFC1
:100D000001F0AAF901F090FB05F043F8042309482B
:100D10002B7000F01CFB05232B7000F039F8062324
:100D20002B7000F0AFF801F03DFCFCE733685B008E
:100D3000B2E700BF10030024AC030024A89C000805
:100D4000410C000808030024BC030024C403002451
:100D5000A8030024B8030024A403002459130008A6
:100D600013840008051C000813B50024FFF75AFF80
:100D7000054B4FF4386264210094044800F0D9F820
:100D8000204602B010BD00BFE1950008F49C0008A9
:100D900013B50024054B4FF40062FE210094044873
:100DA00000F0E0F8204602B010BD00BF690D000859
:100DB000049D0008A52870B505460C461AD8EFF327
:100DC000118600238021EFF3108372B681F311881E
:100DD00083F310881CB9FFF79BFD2246074C084897
:100DE000F6B240F8354000EBC500426086F311884A
:100DF000002070BD6FF01500FBE700BF410E00083A
:100E0000E0030024A52808B50CD8094A52F8303070
:100E10005BB102EBC00252689847064B1A68064B5A
:100E20001A6008BD0022054BF6E71A46FBE700BF33
:100E3000E0030024BC030024C4030024410E000886
:100E400008B5EFF3118300238022EFF3108372B60D
:100E500082F3118883F3108836210148FFF7D0FE12
:100E60000F9D0008054B1B682BB1054A126812B98B
:100E70001A8C01321A840020704700BFBC03002482
:100E800004030024134B10B51A68C2B1124B1B683F
:100E9000ABB9EFF311848021EFF3108372B681F3C5
:100EA000118883F31088B2F92030002B09DC00236D
:100EB00013840A4B1B6853B9E4B284F311880020F1
:100EC00010BD013B9BB21384002BF5D1EFE701F07D
:100ED000C3FAF1E7BC03002404030024B003002498
:100EE00070B586B005468C200E46CDE9043203F07D
:100EF000EBF80446D0B10021C68303910C9902910E
:100F00000B9901910A99DDE904320091294600F01C
:100F100033F8051E05DA204603F0C6F8284606B069
:100F200070BD2046E56800F079F9F7E76FF00B0532
:100F3000F4E71FB5069C00920A46CDE90134002370
:100F40001946FFF7CDFF04B010BD1FB5079C0294F2
:100F5000069CCDE9003413460A460221FFF7C0FF84
:100F600004B010BD13B5049CCDE900341346002233
:100F7000FFF7EBFF02B010BD2DE9F347867F8846EF
:100F80000546914631461F46DDF828A000F09EF93F
:100F9000041E3ADB284606F0030600F0DAF9041EC8
:100FA0000CDB87B152463946284601F0C3FA041ECD
:100FB00005DB284600F07CF9041E13DA57B12846F9
:100FC00000F0A8F921E032465146284601F0EAF93E
:100FD000041EEEDAAB6B002BF1D03146284601F04F
:100FE00055FAECE70B9B49460A4A2846009600F062
:100FF00013F8041EE2DB0C9A4146284600F0A2F8E2
:10100000041EDBDB284600F07FF9204602B0BDE875
:10101000F08700BF411200082DE9F74F04460E4645
:10102000CDE90023EFF3118700238022EFF3108333
:1010300072B682F3118883F31088DFF800A1DFF81D
:101040000081D346DAF800500020D8F800100135AE
:10105000384A136898420DDB1068C00003F034F87A
:10106000344A0546002846D1FFB287F311886FF055
:101070000B003AE0012D1368B8BF0125013B2B405E
:1010800051F8239001EB830EB9F1000F30D1CEF867
:101090000040FFB2E560CBF8005087F31188E28B87
:1010A000F6B29DF830100320009B22F0630201F09D
:1010B0000301267463610A43019B49466674A36178
:1010C000E28304F1440200F083F9204684F81C9086
:1010D00001F06AFAFFF7C6FE1749204603F0C7F988
:1010E00004222277FFF7CEFE484603B0BDE8F08F1A
:1010F00001350130ADE713680E495B001360002233
:101100000B68D8F8000003EBD373B2EB630F04DB7A
:1011100002F0CAFFC8F8005094E750F822000132EC
:101120000B6803F1FF3EC3680EEA030345F8230092
:10113000E6E700BFA80300249C030024A4030024C6
:10114000B8030024344B2DE9F74F002914BF88461B
:10115000984607460024154641461822703003F091
:10116000ECFB404687F8884003F0DFFB461C4DBB94
:101170002C460234384606EB840101F099F9064604
:101180004FEA8409002844D000EB090AA9F10809B4
:10119000B346043DC0F800A0404603F0C6FB044639
:1011A000B14441460134504603F09BFB5444D945B9
:1011B0001BD100204AF8040CBA68D268566003B00C
:1011C000BDE8F08F40F2011955F824000028D0D076
:1011D00003F0ABFB01307B6B06449E4216D2013418
:1011E0004C45F1D16FF00600E9E74BF8044F55F894
:1011F000041F0846019103F098FB804601992046A0
:1012000008F1010803F06DFB4444D0E76FF05A0089
:10121000D5E76FF00B00D2E7279D000810B5EFF37C
:10122000118400238022EFF3108372B682F31188B9
:1012300083F3108801F060F9E4B284F3118810BDE3
:1012400038B5134B1C68E38B03F00303022B02D069
:10125000204600F0ABFBA368012040F20111DB68DF
:101260005A6852F820304BB9E38BA56903F00303A9
:10127000022B08D11146A847FFF7CCFC0130884269
:10128000EFD10120F8E70146284603F009F9F8E715
:10129000BC0300240446002208B5E4B2034B2146F7
:1012A000186800F0ABFB204601F0A2F8BC03002454
:1012B00010B51821044601F0FBF820B1A368DB68E3
:1012C0000360002010BD6FF00B00FBE770B5064611
:1012D0004FF48E7002F0F8FE044690B100F0B3FBBC
:1012E000051E04DA204602F0DFFE284670BD04F138
:1012F0002400B46006F09DFA2046002503F0DEF9D4
:10130000F3E76FF00B05F0E7D0E902321A60012233
:101310005A72704738B58468054634B1637A012B38
:1013200004D9013B63720023AB6038BD204600F056
:101330009BFB204600F032F904F1240006F07DFA10
:10134000204603F0DAF9204602F0AEFEEBE700F0AB
:1013500098BB00F096BBFFEC0023044A044942F816
:1013600033100133A62BFAD1FFF784BAE00300242F
:10137000410E000838B5044618B3C068B0B1EFF3A9
:10138000118200238025EFF3108372B685F3118854
:1013900083F310880C4B00251B68013B03400B486E
:1013A000006840F82350D3B283F31188A36B13B1C4
:1013B000204601F06BF82046FFF7ACFF204602F014
:1013C00073FE002038BD00BFA8030024B80300242A
:1013D000F8B51746194B06460C461D68FFF742FD47
:1013E0000FB16B6C3B60D4B1EFF31183002280210D
:1013F000EFF3108272B681F3118882F31088022E07
:1014000011D0032E14D0012E14D16A6C21680A4326
:1014100000246A64DBB283F3118800F011F8FFF74F
:1014200031FD2046F8BD21686A6C22EA0102EFE72F
:101430002268EDE76FF01504ECE700BFBC03002461
:10144000184B30B51D6885B0FFF70CFD6C6C284655
:1014500000F000FDE4430440039424B9FFF712FDBB
:10146000204605B030BD03A800F070F8431C0146CB
:1014700010D0019003A803F05DF80199284600F010
:1014800013F8044630B1011D284600F09BF82046B1
:1014900000F02EF8039B002BE5D1FFF7F3FC0120B1
:1014A000DFE700BFBC03002438B58368EFF3118584
:1014B00000228020EFF3108272B680F3118882F34D
:1014C000108800209C6974B122798A4206D103F108
:1014D000180130B9084602F0A5FF04E02046246850
:1014E000F1E702F0A9FFEDB285F31188204638BD7F
:1014F00010B5037B83B9EFF311848022EFF31083DF
:1015000072B682F3118883F310880E4902F06AFFE5
:10151000E4B284F3118810BD022B0CD1EFF31184D7
:1015200000238022EFF3108372B682F3118883F3D5
:1015300010880549EAE7012BEDD1BDE8104002F023
:10154000B3BD00BF300900242809002438B5054682
:1015500001242146284602F0FEFF20B90134202C48
:10156000F7D14FF0FF34204638BD38B5044600F1BE
:101570004C05284602F056FF50B904F154052846A0
:1015800002F050FF38B94FF0FF32C4E9112038BDE6
:1015900000F0BAFCEDE700F0B7FCF0E738B5044620
:1015A00000F11005284602F03DFF28B91834204606
:1015B00002F038FF18B938BD00F082FBF2E7FFF700
:1015C00097FFF4E72DE9F0410D460978044629B369
:1015D000443002F0C0FF012807467ED1EFF31186A8
:1015E00000238022EFF3108372B682F3118883F315
:1015F0001088237FF6B2062B12D1297804F1480017
:1016000002F0A9FF60B12B682046E3656B68236692
:101610000023A36400F070FF86F311880026B4E075
:1016200086F31188A4682978EFF3118200238020C3
:10163000EFF3108372B680F3118883F31088A369E7
:1016400013B11879884208D1D2B282F3118833B12C
:101650002A685A606A689A60E0E71B68F0E7564BB0
:101660001B68FBB1554802F0DDFE20B9544802F07A
:10167000D9FE0028D2D02B6843606B688360EFF3FB
:10168000118500238022EFF3108372B682F3118854
:1016900083F3108804F11801EDB202F0A3FE85F384
:1016A0001188BBE7EFF3118600238022EFF310834C
:1016B00072B682F3118883F310884048F6B202F0C4
:1016C000B1FE86F311880028D5D1102002F0F4FC79
:1016D0000028A3D001230373CDE7FFF7C3FB2978CC
:1016E000A06800F0D3FB064600282CD0406848B321
:1016F00000F0DEFB00284BD073684360B268826064
:10170000F3689B0604D4297801238B40134383603C
:101710002B68C3606B680361EFF31186002380229E
:10172000EFF3108372B682F3118883F3108804F10B
:101730004C01F6B202F056FE2249204600F070FF3E
:1017400086F311880026FFF79DFBEFF31188002335
:101750008022EFF3108372B682F3118883F310882E
:10176000237F062B08D12B682046E3656B68236630
:101770000023A36400F0C0FE5FFA88F888F31188A4
:10178000002F08D001DA6FF015063046BDE8F08171
:101790006FF00B06D7E7237F052B03D104212046EA
:1017A00000F012FA237F072BEFD12B78082BECD116
:1017B000204600F0C6F9E8E70403002430090024BD
:1017C00028090024E917000807B5019100F072F913
:1017D00028B1019903B05DF804EBFFF7F3BE6FF099
:1017E000020003B05DF804FB2DE9F04F87B004461A
:1017F00002F0EEFD03684FF0800904F14C0A0193FA
:1018000004F15408B4F922300293EFF31183039FDB
:10181000EFF3108772B689F3118887F31088E28B93
:101820000397DFB212F400720AD087F3118802F036
:10183000CFFD019B0360029B638407B0BDE8F08F7E
:101840005046059202F0EEFD059A06460028ECD0BF
:10185000E18B059241F40071E183414602F0C2FD43
:10186000D4F844B0B5684BEA0505656487F3118880
:10187000736806F10C01059A307B9847EFF31183EA
:10188000049A0593EFF3108272B689F3118882F3FC
:10189000108804924146E28B304622F40072E283C3
:1018A000626C554082EA0B02154085EA0B056564BF
:1018B00002F0A2FD059BDBB283F31188FFF7C0FDA8
:1018C000304600F021FBA0E77047FFEC054B10B558
:1018D0001C68FFF7C7FA204600F012F9BDE8104077
:1018E000FFF7D0BABC03002408B5024B01201B68E7
:1018F000FFF790F9BC03002408B58068203002F09F
:101900002AFE0028D4BF0020012008BD0023084A79
:1019100012F83310814206D102EBC3035878C0435A
:1019200000F00100704701330B2BF1D1012070470B
:10193000309D000838B585685AB100231A4A12F85C
:101940003300814219D102EBC30305F120005C682A
:10195000BCB9EFF3118400238022EFF3108372B639
:1019600082F3118883F3108805F12000E4B202F0BD
:10197000E1FD84F31188002413E001330B2BDED149
:10198000E7E7EFF3118500238022EFF3108372B6AF
:1019900082F3118883F3108802F0BFFDEDB285F366
:1019A0001188204638BD00BF309D00082DE9F04366
:1019B00086680024104D4FF002092036A04685B0FD
:1019C000304602F0C4FD6B6873B12F7801A9002284
:1019D000CDF80C903846CDE90138012300F086F9A6
:1019E0003946304602F099FD013408350B2CEAD116
:1019F000002005B0BDE8F083309D000810B5C38B12
:101A000004461B0515D43AB9806828B1437A012BE6
:101A100002D12C3002F0BCFD204600F00BF820462D
:101A2000FFF778FC2046FFF7A0FDE38B43F400634B
:101A3000E38310BD10B5044600F020F82046BDE851
:101A4000104000F0A8B838B50546382002F03CFB3D
:101A5000044630B10122002102F02DFD0020EC608F
:101A600038BD6FF00B00FBE710B5C468204600F0EE
:101A70007AF82046BDE8104002F016BB243000F092
:101A800071BA002307B5024601900121184606F0FD
:101A90009FFB019A00230621012006F099FB0023F9
:101AA000019A0621022006F093FB002003B05DF8A6
:101AB00004FBFFEC0346EFF3118100228020EFF3DB
:101AC000108272B680F3118882F310880A4A106877
:101AD00060B1002B0EDB094A1268013A1A4050F837
:101AE000220018B1C2689A4218BF0020CBB283F31B
:101AF000118870470020F9E7B8030024A8030024E8
:101B000038B50446EFF3118500238022EFF31083EC
:101B100072B682F3118883F31088037F043B032B92
:101B20000BD800F067FA042307212046638400F0F5
:101B30004DFAEDB285F3118838BD072100F006FC9F
:101B4000F7E710B5EFF3118400238022EFF3108341
:101B500072B682F3118883F3108800F0CDFCE4B2F2
:101B600084F3118810BD30B103881B0401D4012314
:101B70000380002070476FF01500704710B5FFF725
:101B8000F2FF041E05DA644202F022FC04604FF00A
:101B9000FF34204610BDEFF3118200238021EFF3C4
:101BA000108372B681F3118883F31088037F052BAD
:101BB00006D1016C0B8801331BB20B800023036438
:101BC000D3B283F31188704738B5EFF31184002244
:101BD0008025EFF3108272B685F3118882F31088A6
:101BE000027F052A09D1056C2A88013212B22A80A7
:101BF00000224184026400F07FFCE4B284F3118887
:101C000038BDFFECF8B50024284B294E6020C3E90D
:101C10000044284BC3E90044274BC3E90044274B49
:101C2000C6E90044C3E9004402F046FA054648B15B
:101C300000F160072C7528461835314602F0D2FBBA
:101C4000AF42F7D1602002F037FA044658B100F1F4
:101C500060050227174E277520461834314602F0DA
:101C6000C1FBA542F7D1402002F026FA044658B144
:101C700000F140050027104E2773204610343146EE
:101C800002F0B0FBA542F7D1402002F015FA04465D
:101C900058B100F140050227084E27732046103442
:101CA000314602F09FFBA542F7D1F8BD1009002490
:101CB00018090024200900243009002428090024E0
:101CC00010B5EFF3118400238022EFF3108372B676
:101CD00082F3118883F310880349E4B202F082FB97
:101CE00084F3118810BD00BF100900242DE9F04FC6
:101CF0001546564A1F2885B0D2F800B007460E4652
:101D0000DBF808A004D96FF0150005B0BDE8F08F2E
:101D100041B93946504600F0B9F8044665B916BBDA
:101D20000020F2E7002BF4D10B68012BF1D0FFF774
:101D3000EDFD0028EDD1E6E739465846FFF7DCFD1A
:101D400030B100230122C5E900230223AB60E6E79E
:101D50002CB163682B60A3686B60E368F6E7C5E9A4
:101D60000044AC60DBE73568012D11D12A463946C5
:101D70005846FFF7DFFD054685B9002CD0D0204638
:101D80000AF1100102F038FB2046FFF799FFC7E780
:101D9000002239465846FFF7CDFDEDE7ECB9EFF3E9
:101DA000118B80220023EFF3108372B682F3118827
:101DB00083F31088264802F035FB04465FFA8BF364
:101DC00083F311888022DFF888B001925CB10AF1B8
:101DD00010012046277402F005FB65607368A3605C
:101DE000B368E3609CE7502002F066F90446C8B18E
:101DF000EFF31183019AEFF3108972B682F3118821
:101E000089F3108800F15002204659461434CDE978
:101E1000022302F0E7FA029A039B9442F4D1DBB268
:101E200083F31188EFF311830293019BEFF3108882
:101E300072B683F3118888F31088584602F0F2FADC
:101E4000029B0446DBB283F31188BFE7BC03002486
:101E500010090024002337B582680193EFF3118540
:101E60008021EFF3108372B681F3118883F3108819
:101E700094692CB9EDB285F31188019803B030BD97
:101E8000217901A802F049FB2468F2E738B50D4634
:101E9000044640B1FEF7E6FF246914B1237CAB424F
:101EA00003D1FEF7EFFF204638BD2468F5E7FFECCD
:101EB000124B10B51B6843B1114802F0B3FAE0B9F8
:101EC0001048BDE8104002F0ADBAEFF311840023D2
:101ED0008022EFF3108372B682F3118883F31088A7
:101EE0000748E4B202F09EFA84F3118828B918205A
:101EF00002F0E2F808B10123037510BD04030024C9
:101F0000180900242009002410B5037D83B9EFF3DC
:101F100011848022EFF3108372B682F3118883F369
:101F200010880E4902F05EFAE4B284F3118810BD05
:101F3000022B0CD1EFF3118400238022EFF31083E6
:101F400072B682F3118883F310880549EAE7012B02
:101F5000EDD1BDE8104002F0A7B800BF1809002479
:101F60002009002438B50446EFF3118500238022B0
:101F7000EFF3108372B682F3118883F31088F0B107
:101F80004368E3B1104B00201B68DBB1A3420FD1C3
:101F900023681BB19A68A1680A449A6058B10A493B
:101FA00002F04AFA00206060EDB285F3118838BD76
:101FB00018461B68E9E7044802F034FAF2E76FF0CC
:101FC0001500F1E71B68FFDE3809002438B50C4620
:101FD000074B054653F8311003EBC4031B79DB07AD
:101FE00003D500F015F82C7738BD02F035FAFAE782
:101FF000B49C0008054B027F10B553F8321004461C
:1020000002F040FA0023237710BD00BFB49C000803
:1020100010B50B68027CB3B11C7C944206D25A689E
:1020200062B9C0E900325860086013E01B68F2E74B
:10203000C0E900321060486000200CE0C0E90032C6
:1020400010605860F8E74A68002AF1D1C0E900330F
:10205000C1E90000012010BD7047FFEC37B5124DFB
:102060002C682CB1114802F080FA012003B030BD79
:102070000F4802F07AFA40F2011369464FF60C70ED
:10208000ADF800308DF80240019503F049FE011EC5
:1020900004DA4942074802F068FAE6E7064802F027
:1020A00064FA2046E2E700BF40090024889D00084A
:1020B000AB9D0008D69D0008159E0008044B1B68C8
:1020C0000360C3F1105303F500230B60704700BF9A
:1020D0008C9C000802064FEA10130CD403F00F0387
:1020E000064A52F8232032B100F00F00012319B143
:1020F00003FA00F0906170471030F9E7509E000835
:102100002DE9F04705090446C0F3031715F008054B
:1021100040F0D3806A4B53F82760002E00F0CD804A
:1021200000F4402300F00F08B3F5002F00F0B28058
:10213000B3F5402F00F0B080B3F5802F40F0AE80B3
:10214000C0F30021FFF7C6FF0121EFF31182002346
:102150008020EFF3108372B680F3118883F3108828
:10216000022940F09D8014F4704FC4F3033017D05F
:1021700023074FF00F094BBFA8F1080343464FF068
:10218000240C4FF0200C9B005CF806E009FA03F9E0
:1021900000FA03F32EEA090E43EA0E034CF8063068
:1021A0004FEA48090323D6F800E0032903FA09F3AC
:1021B0002EEA030E6FEA030C01FA09F343EA0E0359
:1021C00033606FD004F44033B3F5803F6CD0B3F587
:1021D000003F0CBF02230023D6F80CE003FA09F3FA
:1021E0000CEA0E0E43EA0E03F36080B923074FF0AA
:1021F0000F0A4BBFA8F108034346242020209B0070
:1022000050F806E00AFA03F32EEA0303835101F1C2
:10221000FF3EBEF1010F0DD804F44065B5F5006F27
:1022200044D0B5F5406F43D0A5F5806ADAF10005DA
:1022300045EB0A05B36805FA09F50120BEF1010F67
:102240000CEA030C00FA08F045EA0C05B560736867
:1022500030D8A5052ED503430129736014D0E305BA
:1022600012D504F00C044FEA88030F2004F1B044A7
:1022700003F00C03D4F80814984007FA03F321EA9A
:1022800000010B43C4F80834D2B282F31188002055
:10229000BDE8F087022158E7032156E7294654E7B5
:1022A00000207DE7002397E7012395E70225C1E79A
:1022B0000325BFE723EA0003CEE76FF01500E7E749
:1022C000509E0008C0B2FFF71BBFFFEC02064FEAAA
:1022D000101310D403F00F03084A52F8233053B1FF
:1022E0001A6900F00F00012303FA00F0104214BF36
:1022F0001846002070470020704700BF509E00081D
:1023000008B504F0BDFA04F0BBFA04F0B9FA0D4BBD
:10231000186818B90C4B1B681B6873B9002007F0CC
:1023200035FAEFF3118300238022EFF3108372B6A6
:1023300082F3118883F31088FEE7BDE8084007F0B8
:1023400025BA00BF04030024BC030024F7B50646E9
:10235000114D01912F6806F093F80199044630461B
:10236000FFF734FE0D4B1B681BB106F09DF82043B0
:10237000C4B234B10A4B1A682AB1FA662A68D26E1E
:102380001A6003B0F0BD2B6807F16C00D96E03B082
:10239000BDE8F04000F0A7B8BC030024B00300245F
:1023A0000403002438B5836B0C46054611469BB9DF
:1023B000204601F081FEA863A86BB0B10119E86363
:1023C00021F00701091A696300F0CCF8EB8B0020BB
:1023D00043F48053EB8338BD436BA342ECD000F051
:1023E00055F8AB6B002BE7D1E2E74FF0FF30F2E797
:1023F000094C08B52368EFF3118300238022EFF323
:10240000108372B682F3118883F3108806F0A4F962
:102410002368D86E00F002F8BC03002401460120B6
:1024200000B500DF5DF804FB08B5084A80230849C1
:10243000013B42F8041BFBD1064B0BB1AFF300800C
:1024400000F078FBBDE8084001F0B0BC00010024BA
:10245000EFBEADDE0000000038B50A4C256806F07E
:1024600023F830B1084B1A6822B1EA662268D26EAE
:102470001A6038BD236805F16C00D96EBDE838409C
:1024800000F031B8BC0300240403002410B5044656
:10249000806B20B1E38BDB0401D501F005FEE38BFB
:1024A00023F48053E3830023C4E90E33636310BD38
:1024B00038B50731836B044621F007057BB1436BC8
:1024C000AB420ED9C36B2A460021184602F0C2F96E
:1024D000E26B03462A44E263626B521B6263184656
:1024E00038BD0023FBE703460A460220194600B523
:1024F00000DF5DF804FBFFEC70B505460B4C266869
:10250000FFF778FD284605F097FF30B1084B1A68B1
:1025100022B1F2662268D26E1A6070BD236806F19D
:102520006C00D96EBDE87040FFF7DDBFBC0300242E
:102530000403002470B5836B06460D46144623B190
:10254000817F01F00301FFF7A1FF2C44284624F00E
:102550000704611BC6E90E55716300F003F8002003
:1025600070BDFFEC90B5C41D83B024F0070400AF2C
:10257000224679B9391DB94228BF394621F00703EF
:10258000191A074B21F0030121448A4204D10C3768
:10259000BD4690BD0144F1E742F8043BF5E700BFBA
:1025A000EFBEADDE7047FFEC38B50025C1680446CC
:1025B00045668566C56661B9184B186840F2EE231A
:1025C000A0F2EE206363C4E90E00BDE83840FFF7D7
:1025D000C9BF406BD4222946A0F1D403E06B184454
:1025E000E06602F037F9E36B616BE26E0B44136057
:1025F0006369E26E23F00103C2F884304FF0807209
:10260000E36EC3F888206FF01602E36E9A62F02240
:10261000E36EC3F8CC50E36E5A6038BD8C9C000862
:1026200010B5436E044603BB1B4B1A6882421DD192
:102630001A4C236813B9BDE810400847A3F1D40031
:10264000C2E91913D42219462060FEF7D1F9236894
:1026500003F1D4021A60124A2368C3F8842080224E
:102660005A604FF08072C3F8882010BD4166D422B2
:10267000C16E8166A1F1D400E066FEF7B9F9E36EA0
:1026800003F1D4021A60064AE36EC3F88420802264
:10269000E36E5A60E36EE4E7BC0300240403002405
:1026A000A526000838B50D4B1C68F023A56E83F3F2
:1026B000118862B6636E20469847EFF311830023BA
:1026C0008022EFF3108372B682F3118883F31088AF
:1026D000002328466366FFF7A1FE00BFBC03002469
:1026E00010B5846E01F4D873A0F8501001F0010108
:1026F000226822F4D87213432360826E936823F019
:1027000001031943916010BD10B5EFF3118400234C
:102710008022EFF3108372B682F3118883F310885E
:10272000FFF7DEFFE4B284F3118810BDF0B5C36B90
:10273000EFF3118400228021EFF3108272B681F34F
:10274000118882F31088996E0A6822F0010002F065
:1027500001050860DE6D5F6E710801EB4701B1FB9A
:10276000F6F164293AD9013122F40040490820F0F9
:1027700001009A6E10609A6ED16093F85610234A49
:10278000012902EA000233D142F4C06293F85700F3
:10279000092802D0082830D179B342F48052996ECA
:1027A0000A60986E93F85860416821F440510EB168
:1027B00041F400514160986E93F85960816821F4AA
:1027C00040711EB15E6F0EB141F4807181602A4389
:1027D0009B6EE4B21A6084F31188F0BDC1F342022B
:1027E00021F00F0140F400400904090C1143C0E737
:1027F000022908BF42F48062C8E7B3F85610B1F569
:10280000E06F08BF42F08052C9E700BFFEE9FFEF6A
:10281000C36B9A6E506AB3F8522040EA0242C0B2CB
:102820000A600022A3F85220704710B5C06BEFF386
:10283000118400238022EFF3108372B682F3118893
:1028400083F31088B0F8503039B143F02001E4B27E
:10285000FFF75AFF84F3118810BD23F4907121F023
:102860000101F4E7C36B9B6ED869C0F34010704759
:10287000C36B9B6E9962704710B5C06BEFF3118408
:1028800000238022EFF3108372B682F3118883F362
:102890001088B0F8503041B143EA020189B2E4B285
:1028A000FFF732FF84F3118810BD23F08001090483
:1028B000090CF4E7C36B9B6ED869C0F3C010704776
:1028C00038B583685D6940F201139942EC6B05D01D
:1028D000B1F5817F29D06FF0180038BD002A4CD0A7
:1028E00094F85630FBB1012B4FF480710CBF4FF4BC
:1028F000007300230B4394F858101046002914BFAE
:10290000402100210B4394F85910002914BF4FF0C7
:10291000004100210B4343F030039360E16D02F06E
:102920001FF80020D9E71946E4E732B3936803F0B3
:102930003001302921D1002B01DA616FE9B113F4A4
:10294000807117D013F4007F14BF0123022384F891
:10295000563093681046C3F3801384F85830936858
:10296000DB0F84F8593002F01BF8E0652846FFF7CA
:10297000DDFED6E784F85610EBE76FF01500ACE704
:1029800010B5C46B94F86000FDF7C2FF002294F804
:1029900060001146BDE81040FEF70CBA38B5C56BB3
:1029A00006492A4695F86000FEF704FA044618B96D
:1029B00095F86000FDF7C0FF204638BDE12900080A
:1029C00010B5C36B144693F859302BB1836B9B69D8
:1029D00022B1002198472346184610BD0121F9E78E
:1029E00010B51446926ED3699BB29806A4F8523083
:1029F00013D5B4F8501089060FD5204603F0ECFE2D
:102A0000B4F852301A0606D5B4F850301B0602D579
:102A1000204603F0ABFE002010BD13F00E0FEFD0E8
:102A20000E231362ECE7FFEC38B5C46B00210546BA
:102A3000A36E1960C36B9A6E1E4B9A4204D14FF479
:102A400080221D48FDF726FEE06EFFF759FB206F40
:102A5000FFF756FB606F08B1FFF752FBA26E94F8C8
:102A60005810536823F47D5309B143F40053536065
:102A70002846A26E114B11680B401360A26E94F8A9
:102A80005510936823F4E06323F0010343EA4163A4
:102A90009360FFF74BFEA26E0020136843F00053D3
:102AA00043F00D0313600123A4F8500084F8543060
:102AB00038BD00BF00480040E844025803BEFF3361
:102AC000F8B50026C46B054684F85460EFF311870F
:102AD00080223346EFF3108372B682F3118883F3BA
:102AE000108831462046FFF7FBFDFFB287F31188BF
:102AF000EB6B9A6E0D4B9A4205D132464FF4802112
:102B00000B48FDF7C7FDA26E136823F00D03136099
:102B1000E06EFFF7D7FB206FFFF7D4FB606F18B1B3
:102B2000BDE8F840FFF7CEBBF8BD00BF004800404D
:102B3000E84402587FB50B49684601F0D2FE0023F5
:102B4000094D1C4655F8041B39B15E1C30336846EC
:102B50008DF8093003F020FC33460134082CF1D104
:102B600004B070BD709E00087C9E0008704738B5A8
:102B70000A460169044629B14B69036103B94361FF
:102B800000234B61637E207EC3F3C00520B9E0685B
:102B9000007C60F3C3036376CB6820464A81984784
:102BA000637E65F3C303637638BD37B50446C068FA
:102BB0000A4680B10368B4F85E10009121469D6812
:102BC00004F11D03A847002803DA237C43F0010326
:102BD000237403B030BD6FF00400F6E7F0B5047E57
:102BE00034B313466401144FE5592E0415D4AE03D3
:102BF000124E48BF45F080652E40334343EA81437F
:102C000001F04F0143F0805343F40043E351437E0E
:102C1000C28023F04F0319434176037E0020084908
:102C200003F1100201230C68934023430B60F0BDB5
:102C300021462346D6E700BF000B084000F8F3FF0B
:102C40001C080840E0B590F818C0134E4FEA4C1726
:102C5000BD592B0417D4AB03104B48BF45F080651A
:102C60002B40134343EA814301F04F0143EA8C5365
:102C700043F0805343F40043BB51437EC28023F0B2
:102C80004F0319434176007E0123054A834000200B
:102C900011680B431360E0BD0009084000F833FCE5
:102CA0001C0808404B790A79C97842EA0322437E1E
:102CB00001F00301DB0601D5FFF7C4BFFFF78EBFAC
:102CC000417E027ECB064FEA42124CBF084B094BB5
:102CD000890713441A6822F4001248BF42F0805258
:102CE0001A60437E6FF3C30343760020704700BF32
:102CF00000090840000B084001F07F01F0B5EFF338
:102D0000118400238025EFF3108372B685F31188B8
:102D100083F310888718FE7CC9B1062922D80123C5
:102D200003FA01F13140D1B10125AC460CFA05F3AB
:102D300019429E4610D026EA0E06E4B2FE7484F3D1
:102D400011881C236B4322B160331844F0BD314617
:102D5000E9E703F59273F8E70135072DE6D1E4B210
:102D600084F311880020F1E710B5C0B1B9B1EFF3D9
:102D7000118200238024EFF3108372B684F311884C
:102D800083F310884B7E097EC3F30013184401239C
:102D90008B40C17C0B43C374D3B283F3118810BD45
:102DA000024B1868C0F30D20704700BF08080840A8
:102DB000037C61F34103037400207047EFF311803B
:102DC00000238022EFF3108372B682F3118883F31D
:102DD0001088074A136839B123F002031360C3B2A5
:102DE00083F311880020704743F00203F6E700BF29
:102DF0000408084008B540F02000064B064A186059
:102E00001968890601D5013AFAD10320FDF757FC6C
:102E1000002008BD10000840400D0300102208B536
:102E2000064B1A60064A1968C90601D5013AFAD15B
:102E30000320FDF744FC002008BD00BF100008403F
:102E4000400D030038B5036904460D4643B1437E87
:102E5000DB0606D5007E8001FFF7CCFF23691BB996
:102E600038BDFFF7DBFFF9E729462046FFF77FFE75
:102E7000F4E710B5EFF3118400238022EFF3108301
:102E800072B682F3118883F310886FF06D01E4B29B
:102E9000FFF7D8FF84F31188002010BD084601F029
:102EA00003B910B5182001F007F9044618B118222B
:102EB000002101F0CFFC204610BDFFEC70B5EFF310
:102EC000118500238022EFF3108372B682F31188FC
:102ED00083F31088037CDA060ED50A4B1B68DB07E8
:102EE0000AD5094E0520346844F0010324F001049A
:102EF000336001F0B5F83460EDB285F3118800203D
:102F000070BD00BF0808084004080840064B074A87
:102F10001A6002F16042D2F8E83A02F6E82243F081
:102F200004431360704700BF100B0840180008608E
:102F3000F0B5057E204F6D01EB5903F00043002AE8
:102F400033D0C688541E3444B4FBF6F4467E134393
:102F500006F0030643EAC443012E184E08BF43EAB5
:102F60004473EB51457E047E05F003056401012D99
:102F7000A35907D1124D2D68ED0554BF43F080537E
:102F800043F0005323F08043033243F00443921094
:102F9000A351037E00201B0303F1804303F50123AB
:102FA000824201EB800402DCF0BD0124CEE72468FC
:102FB00001301C60F4E700BF100908400009084018
:102FC00008080840F8B50E6907460C465EB90B7E46
:102FD0002F495B015A5842F000625A50637E66F3F3
:102FE00082036376F8BDF3881BB94B7E43F0400340
:102FF0004B763289F588AA4208D3637E590605D4F8
:1030000020460021BDE8F840FFF7B1BD637EAD1A50
:103010006FF38613002D63760ADDE388AB4207DC8D
:1030200016D13379DB0703D5637E43F04003637623
:10303000217E184B4A01D258EB1C92B2B2EBA30F7F
:1030400008DA154A012310688B4003431360C9E76F
:103050001D46EDE733892A46316820461944FFF7BB
:1030600067FF637E43F004036376237E23B97B7C92
:10307000052262F307137B743289F3881544ADB2DD
:10308000AB423581AED8637E5A06ABD4B8E700BFF9
:1030900000090840180908403408084030B50346C4
:1030A0000B4C1A1D1B1A994200DC30BD2368C3F378
:1030B000072502F8043C02F8035CC3F30745C3F399
:1030C000076302F8025C02F8013C1346E9E700BF1F
:1030D00000100840002882B006DD002303490433B5
:1030E0000A6898420192FADC02B07047001008406A
:1030F00070B505460C4622695AB9237E1A485B0111
:10310000195841F000611950637E62F382036376BF
:1031100070BDD18819B92046FFF729FDEBE7E38898
:10312000124E5A1E1144227EB1FBF3F152014B4361
:10313000905943EAC1430C4900F060400343935166
:10314000237E5B015A5842F004425A50637E43F09A
:1031500004036376237E002BDAD16B7C062262F3B4
:1031600007136B74D4E700BF000B0840100B084036
:103170001A4B024670B5C0688B60EFF311850023CF
:103180008024EFF3108372B684F3118883F31088E0
:10319000537E13F008031DD114694B613CB9537E73
:1031A00013F00406C2E9041109D0204603E0506977
:1031B000416118465161EDB285F3118870BD13F07D
:1031C0001004114603D0FFF7FDFE3046F3E7FFF78A
:1031D0008FFFEAE76FF00F00EDE700BF000089FF07
:1031E000044B1A6842F400721A601A681207FCD580
:1031F000704700BF0408084038B5437E0446DB062C
:103200003AD5037E34495B015B581D0432D5EFF398
:10321000118500238022EFF3108372B682F31188A8
:1032200083F31088027E5201535823F4004343F085
:1032300090435350294A037E590102EB4313186807
:103240008007FCD58B5843F002038B50207E800111
:10325000FFF7D0FD2249207E01220B68824023EA3D
:1032600002030B606FF06D012046FFF7EBFDEDB23E
:1032700085F31188002038BDEFF3118500238022EB
:10328000EFF3108372B682F3118883F31088FFF78F
:10329000A7FF027E13490A205201535823F400432A
:1032A00043F090435350FDF70AFA237E0E4A022161
:1032B0005B010B489950A2F54172136843F4806397
:1032C0001360227E036802F1100101228A4023EA82
:1032D00002030360C6E700BF000908400809084070
:1032E0001C080840000B0840080B0840002210B5DD
:1032F000044611466030FFF71BFE637C042262F334
:1033000007136374BDE81040FFF700BE10B5044614
:10331000FFF766FF027E0A200A495201535843F024
:10332000804343F400135350FDF7C9F9064A0020C7
:10333000136843F480631360637E43F0080363768D
:1033400010BD00BF000B084004080840427E034641
:10335000D20601D4FFF7DABF027E064852011158A7
:1033600041F40011115000205A7E42F008025A76B2
:10337000704700BF0009084010B5EFF31184002327
:103380008022EFF3108372B682F3118883F31088E2
:1033900029B1FFF795FCE4B284F3118810BDFFF763
:1033A000D5FFF8E710B50269044622B9437E62F3FF
:1033B0008203437610BD0021FFF7D9FB637E6FF3D4
:1033C000820363765B07F5D421460248BDE81040CE
:1033D000FFF78EBEC80C0024344A00202DE9F047C8
:1033E0001368334C23F001031360FFF703FDE0681B
:1033F00018B103682146DB689847FE232D4FDFF89C
:10340000C48000264FF0FF0A4FF01C09E3742375B7
:1034100009FB06F53846C8F800A06FF06D01C8F842
:1034200000A20136FFF70EFD05F1780305F59C7546
:1034300007F1C40023446FF06D01254408F1200812
:103440005A781C3722F04C025A70FFF7FBFC6B795C
:10345000072E23F04C036B71DAD1174B4FF0FF327C
:10346000002114481A604FF001125A600B23134ACE
:10347000136042F8043C52F8143C23F4FE6342F813
:10348000143C4022238A23F4706323F00403238234
:1034900002232372FFF7D6FB402200210848FFF7E2
:1034A0009DFBBDE8F047FFF731BD00BF04080840B1
:1034B000C80C0024280D00241808084014080840EF
:1034C000EC0D0024080908402DE9F34700F592753A
:1034D00004466FF046012846FFF7B4FC04F1600093
:1034E0006FF046010190FFF7ADFC94F83D31667D29
:1034F0006FF3C303019816F0600F84F83D3194F820
:1035000079306FF3C30384F87930238A23F0010301
:103510004FEA03534FEA135343F44053238205D039
:1035200004F115012046FFF740FB44E0A37E94F828
:103530001CE094F817C0277E617EE27E4CEA0727E4
:1035400041EA032194F8169042EA0E220FFA87F816
:103550000BB20FFA82FEB9F10C0F28D80FF2040A51
:103560005AF829F09935000869360008AF35000887
:10357000C1360008AF35000863370008A5370008DA
:10358000A5370008AD370008CB3700082135000803
:1035900021350008B735000894F810C01CF0040F5E
:1035A00005D0022A03D116F0800F00D01FB3237C70
:1035B00043F001032374237CDB0716D594F878309D
:1035C000284692495B015A5842F400125A5094F826
:1035D000793043F0080384F87930FFF797FE237CB5
:1035E00043F001032374FFF791FC0023A4F85E303D
:1035F00002B0BDE8F08706F01F06012E31D0022E82
:103600000DD0002ED3D10029D1D1CCF30013CCF3AF
:10361000400CA1774CEA430C84F81DC015E003F080
:103620007F03062BC3D8C3EBC3030A064FF0020285
:103630004FEA83034CBF603303F5927323445B7EF0
:10364000C3F3C00363770023A37704F11D01FFF7E1
:103650006FFC637C042262F307136374FFF756FC6C
:10366000A9E76777A777F0E7207C10F0040F9ED0DA
:10367000002A9CD106F01F06022E16D1002F7FF4DF
:103680004FAF03F07F03062B3FF64AAFC3EBC303F4
:1036900098000B064CBF603000F592702044FFF795
:1036A0000FFB2046FFF722FE85E7002E7FF438AFA0
:1036B000012F7FF435AF034662F304132374F0E760
:1036C000207C10F0040F3FF472AF002A7FF46FAF3C
:1036D00006F01F06022E12D1002F3ED103F07F0309
:1036E000062B3AD8C3EBC3030E064FEA83004CBF48
:1036F000603000F592702044FFF728FED1E766BBEA
:10370000012F03D140F010002074CAE7022F24D10A
:1037100011F0FF0F21D1090AA37C0139042914D823
:10372000DFE801F0030B0D0F1100012262F3030328
:10373000A374237C43F02003C0E70222F6E70322B0
:10374000F4E70422F2E70522F0E76FF30303A37422
:10375000237C43F001032374EBE701077FF527AFD8
:10376000DEE6F2067FF423AF53EA0E037FF41FAFC9
:103770007F2F3FF61CAF637C03F00F03022B3FF457
:1037800016AF234A136823F4FE6343EA0C13136055
:10379000204B228A1340BCF1000F01D043F4827306
:1037A00023827EE7F3067FF402AFB9E6217C4F0760
:1037B0007FF5FDAEF0067FF4FAAE58EA03037FF41E
:1037C000F6AE012A7FF4F3AEAAE6227C51077FF51C
:1037D000EEAEF2067FF4EBAE53EA0E037FF4E7AEF3
:1037E00004F115012046FFF7E0F900287FF4E3AE6D
:1037F000228A18F0FF0F084B03EA020314BF43F4B8
:10380000027343F480732382D5E600BF00090840A9
:1038100000080840FBF0FFFFF7F0FFFF2DE9F74F2E
:103820008B498C4B0C681B688B4A03EA04001C40D4
:1038300002EA00020A6000F0A88025030ED5874B3B
:10384000874A1D68126815402D0C40F0A9801B683E
:10385000FF21844A1B0C002B40F09B8063030FD593
:103860007E4B7F4A1D6812681540ADB2002D40F0B6
:1038700009811B68FF217C4A9BB2002B40F0E2804B
:10388000002C10DA794A0121794D1368284623F07B
:1038900001031360FDF7D2F9E86820B102685269AC
:1038A0000AB12946904721050AD57149C86818B15F
:1038B00003681B6903B1984700216D48FDF7BEF905
:1038C000E2065CD56B4B1D6805F00F08B8F1060FDA
:1038D00055DC05F4F013B3F5002F00F07481B3F557
:1038E000402F00F07D81B3F5802F48D1C5F30A1534
:1038F000002D44D05E4B1C2606FB08369946D6F8B0
:103900003471002F40F04A8196F83CA1BAF1000FC3
:1039100040F04081D6F82C717B7C03F0F003102B33
:1039200040F03881402D2B4607F11D00A8BF4023F1
:103930001FFA83FB00935946FFF7B0FB009BE81A80
:10394000FFF7C8FB96F83D3102226AF3820386F83E
:103950003D317B7CA7F85EB062F307137B7403F004
:10396000F003202B02D13846FFF7AEFD1C2303FBEA
:10397000089898F83D316FF3820388F83D313E4B4B
:103980001C4200F04581FFF727FD002003B0BDE891
:10399000F08FD80701D5106811605B0820325AE714
:1039A0000026DFF8C080DFF8D8A0DFF8C4B0EF074A
:1039B00037D54FEA461959F80870DAF800301F4039
:1039C000F8071BD5012316F0FF0049F808309BF8D3
:1039D00011302BD103F0F003602B0FD12748FFF7F4
:1039E000E1FC9BF83D3113F0040107D1FFF78EFA9B
:1039F0009BF8113061F307138BF81130B90702D52A
:103A0000022349F808303A070BD59BF8113003F030
:103A1000F003202B02D15846FFF756FD082349F842
:103A200008306D0806F10106C1D117E703F00F0356
:103A3000022BE3D11C2303FB00B000F59270FFF7CB
:103A4000B1FCDBE7DF0700D511605B08203214E72B
:103A500014000840180008400AFCB0F81808084094
:103A60001C080840080B08400809084004080840E2
:103A7000C80C00242000084000108000EC0D002439
:103A8000140808404FF0600B4FF00008EE0773D5A4
:103A90006D4A4FEA481A6D4BDFF8C0911B681668F3
:103AA00001225AF8097002FA08F23242009218BF55
:103AB00043F080031F4017F0010301933CD0009BAB
:103AC0005FFA88FC1C2126EA03065F4B1E60012377
:103AD0004AF809305E4B01FB0C3118465A7C6031C4
:103AE000BCF1000F4FD102F0F002502A0ED1FFF7C7
:103AF00069FA574B93F8792012F0040106D1FFF7C9
:103B000005FA534B5A7C61F307125A74197C8806E4
:103B100012D5DFF84CC16FF345119A7CDCF8000038
:103B200002F00F0E6FF3030200F0700040EA0E1077
:103B3000CCF8000019749A743A0702D508234AF8A1
:103B40000930FB0607D5424800EB0B01FFF73AFAB4
:103B500010234AF8093038060ED5019B4BB9009B5B
:103B60003B4826EA0306384B00EB0B011E60FFF7CB
:103B700029FA80234AF809306D0808F101080BF191
:103B80001C0B83D17CE602F00F02022AD4D1FFF78E
:103B900019FAD1E72846FFF79DFAE7E63889FE884B
:103BA0003B68361A1844AE42A8BF2E461FFA86F864
:103BB0004146FFF773FAA81BFFF78CFA398988444E
:103BC000A7F80880DBE6224B5B7C03F0F003102BA8
:103BD0007FF4D5AE1F4A136843F080631360CEE6CE
:103BE0001B4D082105F11500FFF758FA95F915301E
:103BF000002B0ADB2A7FEB7E53EA022305D06B7C85
:103C0000012262F307136B74B9E66B7C0222F8E7BA
:103C1000A3047FF505AE104A1368A2F6F40223F45C
:103C2000FF6323F0070343F04003C2F8F438D2F8EF
:103C3000F83743F48073C2F8F837136823F47053ED
:103C400043F4C0531360EBE5340808401008084003
:103C5000C80C0024000B084000090840080908406F
:103C60000408084038B50B4CE060214603681B6827
:103C70009847054618B10023E360284638BD7520F3
:103C8000FCF75AFE01212046FFF798F80223237221
:103C9000F3E700BFC80C002470B50446EFF31185AC
:103CA00080260023EFF3108372B686F3118883F326
:103CB0001088FFF791FBEDB285F311880E4D204679
:103CC000236829465B689847EFF311840023EFF3DC
:103CD000108372B686F3118883F310887520E4B2DE
:103CE000FCF716FE00212846FFF768F80020E86080
:103CF00084F3118870BD00BFC80C002470B5284D36
:103D0000E86808B1FFF7C8FFEFF3118600238022AF
:103D1000EFF3108372B682F3118883F310880024C6
:103D200000211F48F6B2FFF749F875202C72FCF706
:103D3000EFFD214622467520FDF73CF8FF23194A86
:103D40004FF4806013602032C2F8E0311360C2F893
:103D5000003220321360C2F8003220321360C2F801
:103D6000003220321360C2F8003220321360C2F8F1
:103D7000003220321360C2F800324FF0FF320A4B9B
:103D80001C605C605C62DC609A60FFF733F8FFF7F0
:103D900045F86B7C64F303036B7486F3118870BD84
:103DA000C80C00240809084010080840F8B5944BD6
:103DB0001A6822F0007242F080721A601A6851018B
:103DC000FCD59048FEF79CF98F48FEF799F98F488B
:103DD000FEF796F98E4FFFF791FF8E4B4FF4F4727A
:103DE000002118463E4600F035FD8B490246034649
:103DF0004FF01C0E4FF0400C42F8601B0021426057
:103E0000FE228066C27402750246C0F82C010EFBC9
:103E100001041C325764106504F1780594F8794068
:103E200044F010046C70CCB2013182F85C4064F054
:103E30007F04072982F848406C786FF301046C70A6
:103E4000A2F84AC0E3D100221C274025D1B2C3F812
:103E50002461C3F830011C3383F8201183F80C115E
:103E600007FB0201013291F83D41072A6FF301047B
:103E700081F83D41A3F80E51E8D100226749752031
:103E8000FCF798FF002803DABDE8F840FFF736BFDB
:103E90008022634D634B644F1A602A683E46634C30
:103EA00042F040022A600320FCF709FC3B68002B2B
:103EB00001DB013CF7D1012333605C4B3268D20750
:103EC00001D5013BFAD103200024FCF7F8FB584B45
:103ED0004FF4803214201A6000F0C2F8554A3220A4
:103EE000136843F0C00313602B6823F0005343F0C2
:103EF00080432B6000F0B4F84F4B4FF480601C609F
:103F0000A3F5C0631A68A3F2DC7322F4C052C3F8AD
:103F1000DC27D3F8DC2742F00302C3F8DC2740F2A9
:103F200001221A6002F592025A604932C3F8E02079
:103F30004932C3F8E4204932C3F8E8204932C3F8D3
:103F4000EC204932C3F8F0204932C3F8F420FEF7E0
:103F500051FFFEF763FF394B4FF0FF32FF211C602A
:103F6000F03343F8EC4C43F8CC4C43F8E82C344A9B
:103F700043F8E44C186820330028B4BF4FF00840E1
:103F8000002043F8200C43F8104C43F8181C9342CF
:103F9000F0D12C4B0022FF202B491C682033002C31
:103FA000B4BF4FF00844002443F8204C43F8102CD1
:103FB00043F8180C8B42F0D1244925480A604FF091
:103FC000FF32244B1A600268234B22F07F4222F416
:103FD0007C0222F47C4222F0FF0213438122036020
:103FE0001E4B0C480B6000210E4B1A60FEF7E6FEDC
:103FF000FFF7F2F97520BDE8F840FCF79DBC00BF63
:104000000C4802580BAC08000CAC08000AAE0900C2
:10401000EC9E0008C80C0024D09E00081D38000843
:104020000C0008400800084010000840400D030044
:104030003800084000000840000E08401008084002
:10404000E0090840000B0840E00B08401800084059
:1040500014000840040008400AFCB0F810380C00B6
:1040600082B0002345F261610093009A824201D33D
:1040700002B070470193019A8A4203D9009A013233
:104080000092F2E7019A01320192F4E70A460146F2
:10409000034808B500F052F8024B186008BD00BF95
:1040A000089F0008B00E0024024B0146186800F07B
:1040B000C7B800BFB00E0024024B0146186800F0DC
:1040C0001BB900BFB00E0024024B0146186800F077
:1040D00071B900BFB00E0024F8B50D46044616466F
:1040E00000F05AF805F11F036168AA19082523F0AA
:1040F0000F03012622F00F02A3F11007D01B014489
:104100001038C4E9011743F8105CA1684E60A3F1B0
:10411000080143F8080CA2F108004D60E060204659
:1041200042F8085C53F8083CE2683343536000F0FF
:104130005FF82046BDE8F84000F052B801F10F03E7
:10414000A2F5A27223F00F0311444FF4A272184695
:1041500070B5CC1A00211D4603F5A27600F07AFB5B
:10416000034600F1200200F5A071A2F110009A614F
:1041700010321033D8618A42F7D1284600F007F890
:10418000284622463146FFF7A7FF284670BD012288
:10419000002100F09BB9FFEC104B37B51C680546B9
:1041A0004CB101A900F0ACF901980028D4BF00205F
:1041B000012003B030BD04F0F3FA00280CDB2846E0
:1041C00004F012FA002801DB0120F2E700F000F908
:1041D0000368002BF3DCF7E72046EAE7040300243A
:1041E000024B1B680BB904F04BBA70470403002460
:1041F00038B5054608680C4600F015F8421C05EB7A
:10420000001005EB0212836923B1196811B120680F
:10421000814205D39460C4E9023203B1DC6038BD49
:104220001A469B68F0E7B0F5800F07D2030900201B
:10423000012B00D8704701305B08F9E71220704766
:1042400070B505460C46A9B1FFF7A6FF98B9EFF384
:10425000118300228021EFF3108272B681F311885E
:1042600082F31088D5F84021DBB22260C5F84041C6
:1042700083F3118870BD54F8043CA4F1080123F0C5
:10428000010344F8043C54F8083CCA185068C607B7
:1042900013D4CB58D2E902061344B06008B1D668F3
:1042A000C660126854F8080C104444F8080C5A68A8
:1042B00002F0010202435A601A4654F8043CCB1A39
:1042C0005868C00710D4D3E90210816009B1D868DA
:1042D000C860196854F8080C08441860516801F067
:1042E00001010143516019462846FFF781FF284626
:1042F000BDE87040FFF774BFF8B506460F46EFF310
:10430000118300228021EFF3108272B681F31188AD
:1043100082F310880022D0F84041DBB2C0F840217F
:1043200083F31188002C3AD1002F36D007F11705FE
:1043300025F00F05AF4230D83046FFF72DFFB5F519
:10434000800F33D22846FFF76EFF06EB001084691A
:1043500004B32268A368AA422AD3E2689360A368E0
:104360000BB1E268DA602368581B0F280CD923448C
:10437000611960514D6025605A6802F001020243E4
:1043800030465A60FFF734FF6368083443F0010396
:1043900044F8043C3046FFF723FF2046F8BD25686B
:1043A000214630462C46FFF74BFFBBE71220CCE7F7
:1043B0001C46CDE713B50191FFF79EFF044618B1E7
:1043C000019A002100F046FA204602B010BDFFEC31
:1043D00008B500F0E7FA08B1143008BD0048FCE762
:1043E000B40E0024002303600B6813B90860486012
:1043F00070474B681860FAE70B6802468BB180B1D2
:10440000834208D11A680A604A689A4209D1002397
:104410004B6070472BB118461B689342FAD100F0ED
:104420000BB8704703682BB11A68026002B942608A
:1044300000221A60184670470A68036852B14BB1EF
:104440004A689A424FF0000215BF1968486001603F
:1044500002601A6018467047002303604B6843608F
:104460000A6812B90860486070471860FBE70023CB
:1044700043600B68036013B9C1E9000070475860DE
:1044800008607047D0E9003232B90B6033B94A6036
:104490000023C0E9003370471360F7E75A60F7E77D
:1044A00007B504460191009200F088FADDE900109A
:1044B000A047FCF7AFFB30B1B2F5004F03D212B208
:1044C0000280002070476FF01500704708B530B1CA
:1044D000B2F5004F03D212B20280002008BDFFF7F0
:1044E00077FF162303604FF0FF30F7E728B121B1C3
:1044F000038800201BB20B6070476FF015007047F7
:1045000010B5FFF7F3FF041E05DA6442FFF760FF02
:1045100004604FF0FF34204610BD1F299FBF0123C8
:1045200003FA01F103680B439ABF036000206FF0A8
:10453000150070471F299FBF012303FA01F103688B
:104540008B439ABF036000206FF015007047002373
:104550000360184670471F299DBF036823FA01F1C5
:1045600001F001006FF0150070470FB41FB506ABE6
:1045700053F8041B0191039303F0C2FF039A5030D8
:10458000019900F079F805B05DF804EB04B07047CC
:1045900070B5044630B300F0D8F80121201D002684
:1045A00000F022F8012104F1500000F01DF8012173
:1045B00004F19C0000F018F8D4F8E85025B9204622
:1045C00000F0CBF8304670BDB5F844309B0707D5F6
:1045D0000121284600F008F836EA200628BF0646E2
:1045E0002D68EBE70646EDE7F8B5436805460F464C
:1045F000002B3EDBB0F844309B073AD500F0C0F802
:104600006C69FCB1EE69B44207D1284600F0D7F8D6
:10461000EC696969641A2046F8BD2B6A9C4226D170
:10462000361B32462146686803F0A0FC00280DDAEC
:1046300095F8463043F0020385F84630FFF7C8FE90
:1046400004686442284600F0BAF8E4E70444361AE5
:104650000FB1002EE5DC6B692644EB61B442D4D087
:10466000EB695A1CEA6114F8012B1A70F6E7002472
:10467000E8E76FF00804CEE730B589B004460D4690
:10468000014603A8019200F0CBF8204600F078F82C
:104690002946019A03A800F0B3F90546204600F028
:1046A0008EF8284609B030BD08B5FDF767FA002836
:1046B00003DAFFF78DFE0068404208BD38B50122DD
:1046C000044600212C30FFF701FF4FF0FF35002397
:1046D00004F130006563C4E9453300F040F804F1AB
:1046E0007C00C4F8805000F03AF804F1C800C4F827
:1046F000CC50BDE8384000F032B838B504462C3014
:10470000FDF73CFA0023C4F81831D4F814516DB900
:1047100004F13800FFF7C8FF04F18400FFF7C4FF7D
:1047200004F1D000BDE83840FFF7BEBF284650F87E
:10473000083BC4F81431FDF721FA002801DAFFF72D
:1047400047FE2846FFF7B0FCDFE710B504462046D9
:1047500003F04AFF0028FADB10BD03F091BF08B553
:1047600000214FF0FF330122083001814360FFF741
:10477000ADFE002803DABDE80840FFF729BE08BDFA
:1047800070B5044604F048F80546E368984212D034
:1047900004F10806304603F027FF031E07DAFFF78F
:1047A00017FE0368042BF5D08C2BF3D05B422BB99A
:1047B0000123E56001E0238A0133238270BD10B537
:1047C000044604F029F8238A012B0ED1002304F1BA
:1047D000080023824FF0FF33E36003F051FF00280D
:1047E00005DABDE81040FFF7F3BD013B238210BDA1
:1047F00001210069FFF7F8BE38B504460D4621696E
:10480000284600F01FFE013003D0E3680133E36067
:1048100038BDFFF7DDFD0368042BF0D0F8E7FFECAF
:10482000094B03604B6963B1B1F84430074A13F494
:10483000807F074B18BF134683600023C0E9033114
:104840007047034BF8E700BFF9470008F14700083D
:1048500083540008002A43D010F0010F034639D0DA
:10486000013A03F8011B012A38D9F0B541EA0125C4
:104870009E07ADB22BD0023A23F8025B032A18D967
:104880005C0745EA054616BF141F144643F8046B3F
:10489000224603EB040C072A13D8E2086FF007073F
:1048A00007FB02423C40032A234484BF043A43F8F6
:1048B000046B012A02D9023A23F8025B02B1197093
:1048C000F0BDACEB0207083AC7E90066E3E7032A4C
:1048D000D6D8F0E7012AC8D8197001E0002AFBD128
:1048E0007047421E11F8013B02F8013F002BF9D13D
:1048F000704710B5044692B10A440B46184601337E
:10490000934203D100232370034609E013F8010CFE
:1049100004F8010B0028F1D1581A013810BD0B46DC
:1049200013F8012B002AFBD1F6E703461A460133A0
:1049300011780029FAD1101A704702440139034650
:1049400010B5934207D011F8014F03F8014B002C2A
:10495000F7D1934200D110BD03F8014BF9E7FFEC0A
:104960000E4B002230B5D3E900548C4209D1C56109
:10497000836823F4805323F00F03194381600020E0
:1049800030BDA94202D1C1612146F1E701320833AD
:104990001F2AE8D1C1614FF48051E9E7109F000858
:1049A000C06970471FB5002001A903F0C3FD0028AE
:1049B000ACBF0298002005B05DF804FB2DE9F04182
:1049C0000A4C226842B90A4D0A4E0B4FDFF82C8080
:1049D000B54203D101232360BDE8F08155F8043BC3
:1049E000BB42F5D34345F3D29847F1E7B80E002414
:1049F00088A2000888A200080000000888A2000819
:104A000007B5009200220B46114600F003F803B0F0
:104A10005DF804FB2DE9F04F8FB004460025DDF86A
:104A200060B093F800A0BAF1000F00F00784BAF16B
:104A3000250F08D0013302932368514620460135E3
:104A4000D94698472CE193F801A09A1CBAF1250F9A
:104A50000292F1D000270A223E46B846B8F13F0F35
:104A60004BD8BAF12B0F3DD014D8BAF1200F3BD060
:104A7000BAF1230F3ED0AAF13003DBB2092B4FD895
:104A800018F4807F12BF02FB073748F0800802FB52
:104A9000063607E0BAF12D0F29D0BAF1300FEAD16E
:104AA00048F00108029B13F801AB0293BAF1000F22
:104AB000D4D1AAF14503022B78D80AF1200A48F490
:104AC00000585FFA8AFA18F4807F08BF0627BAF107
:104AD000650FF9B240F08A80013148F48048C9B2CC
:104AE00000228BE048F0020848F00408DAE748F0BA
:104AF0000808D7E748F01008D4E7B8F5007FBAD324
:104B0000BAF17A0F2DD0BAF1740F2AD0BAF16A0F28
:104B100024D128F480681FFA88F848F42068C1E797
:104B2000BAF12A0F10D118F4807F5BF8043B02D051
:104B300023EAE377B6E7002BA7BF48F080081E46BC
:104B40005E4248F08808ADE7BAF12E0FD8D118F4CC
:104B5000807F40F0738348F48078A3E7BAF16C0F4C
:104B60000BD118F4007F18BF48F4006828F480685F
:104B70001FFA88F848F4007894E7BAF1680F0BD16F
:104B800018F4806F18BF48F4006828F400781FFA02
:104B900088F848F4806885E7BAF1700F02BF28F4FE
:104BA00020681FFA88F848F4007882E7AAF16503C4
:104BB000022B88D9BAF1630F00F0AD810AF0DF0350
:104BC000532B40F0D881D9469F4B59F804ABBAF12A
:104BD000000F08BF9A4618F4807F504614BF39462C
:104BE0004FF0FF3100F04FFC07469CE1BAF1660F31
:104BF0007FF476AF0A4648F400480F210BF107090D
:104C00000F2908A829F0070928BF0F21B9EC020BCA
:104C100000F046FB9DF8243003F00902012A42D03F
:104C200018F0020F42D118F0040F0CBF4FF0000A29
:104C30004FF0200A13F00C0F44D0BAF1000F14BF4C
:104C400004230323B3420CDA18F0080FA6EB030683
:104C500008D137462368202120469847013FF9D1E3
:104C600035440026BAF1000F04D02368514620468F
:104C7000013598479DF8243008F40058734F13F01D
:104C8000080F734B18BF1F46A5EB070A0AEB070571
:104C900017F8011B69B93746002F40F0C982354427
:104CA000CB46029BBDE64FF02D0AC3E74FF02B0A1F
:104CB000C0E7B8F1000F01D02039C9B223682046FF
:104CC0009847E3E7C3B2DDF820B00193614B019A46
:104CD00018EA030F1AD1134608A904330B440199AB
:104CE00019B113F80119302929D01BF1040F2BDB5E
:104CF000934529DABBF1000F48F4004802DB019B21
:104D00009B4524DA0BF10107019BDF1B0FFA88F3A7
:104D1000002B0393B6BF2BEAEB7305230133BAF1E3
:104D2000000F00D00133A7B17A1C1344B342B4BFC3
:104D3000F61A002618F0090F1BD1334614E001992A
:104D4000481EC1B20191CAE7019B5F1EDEE7002742
:104D5000DCE718F0100F18BF0133E7E720212046E9
:104D600004939047049B013B2268002BF6D1354405
:104D70001E46BAF1000F04D0236851462046013583
:104D8000984718F0080F0CD1B24604E00AF1FF3A38
:104D90003021204698472368BAF1000FF6D13544F8
:104DA0005646039B002B57DA2BEAEB739A46039384
:104DB0000EAB5B44133B0593ABEB0A03019A7942BC
:104DC00093423CBFCAF10003059A0AF1FF3A2CBF97
:104DD0003023D35C6A1C8A450492226824DA039942
:104DE000FF4303980139B842D8BF0F4618F0100F9F
:104DF00007D0791C05D12E21204601939047049DB0
:104E0000019BBB450AD19DF82520352A1AD805D12A
:104E10009DF8242012F0100F08BF31232268194694
:104E200020460135904736E7194620469047BAF1AB
:104E3000FF3F05D1AB1C2E212046049323689847E1
:104E4000049DB9E73123E9E710A0000808A0000895
:104E50000CA0000800C0FFFF9DF825102046312956
:104E60001EBF9DF8243023F010038DF824302368F2
:104E70009847002F23683DDD02354FF0010A2E21AF
:104E8000204698475745236823DA18F4005F2368C3
:104E9000204614BF452165219847BBF1000F04DB74
:104EA00032D19DF82430DB062ED5CBF1000B2D211D
:104EB0002368204698473021BBF1090F26DC236880
:104EC0002046984723680BF1300120460435984767
:104ED000E1E6019A2046013552458ABF0EAA3021EB
:104EE00052440AF1010A88BF12F8131C5FFA8AFAC9
:104EF0009847C7E718F0100F01D10135C5E72E21FB
:104F0000204602359847C0E72B21D1E70131ABF1AC
:104F10000A0BC9B2D0E7D94601270DF1200A59F88A
:104F2000043B8DF8203018F0080F15D1B04605E08D
:104F300008F1FF3823682021204698474745F7D3DA
:104F4000BE42A6EB070334BF00221A46C3F100039A
:104F500038BF002315441E440AEB0708C24501D19F
:104F60003D4498E6236820461AF8011B9847002E16
:104F7000F4D0013EF2E7BAF1640F08F4206302D0E6
:104F8000BAF1690F77D1B3F5206F61D10BF1070941
:104F900029F00709F9E80201002828F4805B71F183
:104FA00000032BF0100B06DA40424BF4805B61EB00
:104FB00041011FFA8BFB1BF4807F04D01FB950EA1C
:104FC000010300F0C3800DF120080A23424600F0DF
:104FD00039F9A0EB08085FFA88F81BF4807FCDF858
:104FE000048000F0B5802BF0010AB8451FFA8AFA58
:104FF00080F2B18044F21002FBB20BEA0202102AE6
:1050000003D12BF0110A1FFA8AFA1AF0100F00F0E0
:10501000AC800EAA424412F8192C302A40F09D8030
:105020002AF4C04A2AF0100A1FFA8AFA1AF0080F66
:1050300040F0AC801AF0010F05D0B34280F2C58079
:10504000F71AF3B24744A3EB050B5FFA8BFB98E02A
:10505000D94618F4007F59F8043B18464FEAE3712B
:105060009AD118F4806F97D018F4006F0CBF18B263
:1050700058B2C11790E7B3F5206F1AD10BF10709A9
:1050800029F00709F9E8020128F0060BBAF1580FD8
:105090001FFA8BFB46D0AAF16F03DAB2092A49D86E
:1050A000092B47D8DFE803F0502646464646174608
:1050B000463718F4007F0BF10409DBF8000001D03B
:1050C0000021E1E718F4806FFAD018F4006F0CBFEC
:1050D00080B2C0B2F4E728F0160B0A231FFA8BFB4C
:1050E0001BF4807F03D017B950EA01022ED00DF1D6
:1050F00020086BE7029B1B78562B0AD1029B0133D9
:10510000029343681A68079201682046FFF778FC0B
:10511000C6E54BF0100B1BF0100F01D04BF4804B89
:105120001023DDE718F0100F01D04BF4C04B4FF403
:105130000473D5E723682046252102359847236864
:10514000514620469847ABE50823C9E7B84644E7EF
:105150004346DA4659E7434657E71AF4804F01D1F0
:10516000013300E00233DBB260E741F206021AEAE3
:10517000020F3FF45BAFF3E723682021204601359F
:1051800098470BEB0503DBB2B342F5DBB342B4BF88
:10519000F61A00261AF0100F24D02368302120467A
:1051A00098471AF4804F12D10135BA46D0452BDB0F
:1051B000A7EB0800B845C8BF00200544B8F1000FB0
:1051C00029D1019B2B441D4665E547463BE71AF470
:1051D000005F05F10205236814BF5821782120469D
:1051E0009847E2E741F206031AEA030FDDD01AF00E
:1051F000020F05F10105236814BF2B2120211AF4A9
:10520000805F18BF2D21EAE72368302120460AF18C
:10521000FF3A9847CAE708F1FF330EAA204652FA30
:1052200083F25FFA83F8236812F8181C9847C5E7E1
:10523000236820212046013F98472DE528460FB0DE
:10524000BDE8F08F2DE9F84F13F400790746884642
:1052500016461CBF23F400734FF001091C46DD17EE
:105260003846414622462B4603F0F8FE092ABA4644
:10527000C3460746884609DC3032AB4506F8012BA9
:1052800008BFA245ECD23046BDE8F88FB9F1000F57
:1052900001D03732F1E75732EFE7FFECC2925D7D84
:1052A0002DE9F74F10EE904A07460E4614F00044E1
:1052B0001CBFB1EE400B0124B5EE400BF1EE10FA2D
:1052C00016D16FF00401431D44F00204091A302086
:1052D000CA18964209DC0025BB19002230465A71D3
:1052E0003C713D6003B0BDE8F08F03F8010BEFE7C0
:1052F000B4EE400BF1EE10FA02D744F00804EAE7EE
:10530000B0EEC07B9FED446BB4EE467BF1EE10FA3D
:1053100002DD44F00404DEE79FED417BB4EEC70BF1
:10532000F1EE10FA5DD5424908230F2501209FEDCB
:105330003E6B91ED107B20EE077BB4EEC67BF1EE69
:1053400010FA05D500FA03FCB0EE470BA5EB0C05EF
:10535000013B0839B3F1FF3FEBD132B125EAE573E8
:1053600001331A449642A8BF1646324B03EBC603DC
:1053700093ED007B30EE070B9FED2B7BB4EEC70B5C
:10538000F1EE10FA04DBB2EE047B013580EE070B80
:1053900007F10508DFF8A4A0DFF8A4B051EC100B6A
:1053A00003F076FE6FF0040389460090DB1B019347
:1053B000019B43449E428FDD52465B46009849461E
:1053C00003F04CFE00F1300C5946504600929946CD
:1053D0000A22002308F801CB03F040FE82468B46E8
:1053E000E6E7154908230F25012091ED106B20EE0B
:1053F000066BB4EEC76BF1EE10FA04DB00FA03FCA7
:10540000B0EE460B6544013B0839B3F1FF3FECD1E8
:10541000A3E700BFAFF30080FFFFFFFFFFFFEF7FB9
:1054200000003426F56B0C430080E03779C341431C
:10543000E0A0000818A0000898A000080080C6A4FA
:105440007E8D030037B50A468DF8070004460D46E9
:105450000DF10700012100F023F8002804DC4FF0D3
:10546000FF34204603B030BD0A2CFAD195F84630FF
:105470005B07F6D501212846FFF7B6F80028F0DAD9
:10548000EDE7002070470246014410B58A421346FA
:1054900001D1181A10BD1C780132002CF6D1F8E7A2
:1054A0002DE9F84380460F46164642B9FEF790FFB5
:1054B0004FF0FF34092303602046BDE8F883B2F8BB
:1054C00044309B0706D4FEF783FF092303604FF0A7
:1054D000FF3418E053693BB90A460146706802F090
:1054E00045FD041EE8DAF2E71046FFF749F93046B9
:1054F00000F04EF800280DDA4FF0FF343046FFF789
:105500005EF9002CD8DA96F8463043F0020386F8AC
:105510004630D1E7D6E906502D1A202D01D11F2F94
:105520001CD8BD42414628BF3D462A46A7EB050987
:10553000FBF75EFAF369B26908EB05042B4493426A
:10554000F36104D2B9F11F0F14D94F4607E00021CF
:105550003046FFF749F80028F4DACDE744463A46EA
:105560002146706802F002FD0028C5DB0444A4EB6C
:105570000804C3E7B9F1000FF9D021464A46F069A3
:1055800008EB0704FBF734FAF3694B44F361EEE7E9
:1055900010B5044630B9FEF71BFF092303604FF036
:1055A000FF3010BD4369F3B1FFF7EAF8206A626982
:1055B000904213D0E36994F847101B1A2046C4E9BF
:1055C00007220022591A84F84720012200F00DF822
:1055D000002803DA2046FFF7F2F8E0E72046FFF75D
:1055E000EEF80020DDE71846DBE700F000B870B504
:1055F00004460D461646FFF7CBFF002802DA4FF0AF
:10560000FF3070BD204600F010F80028F7DB0023C3
:1056100032462946606884F8473002F088FB013042
:105620004FF0FF3018BF0020EBE7426932B1B0F80D
:1056300044309B0702D50121FEF7D6BF00207047FA
:10564000022901D100F008BB7047FFEC08B5094BF7
:105650001B7813F0FD0F02D04FF0FF3008BDC307D9
:10566000FAD500F02FFB0028F6DB034B02221A705C
:10567000F4E700BFBD0E0024C413002410B5084C8D
:10568000606003F089FEFFF7E1FF002804DB054AB4
:1056900013680133136010BD6368002BF1D1FAE782
:1056A000C8130024C00E002408B5FFF7E7FFA0F1DF
:1056B00020035842584108BD034B1B78022B01D1EF
:1056C00000F026BB704700BFBD0E002410B5124C81
:1056D000236801331ED0114B1A68053B9A4219D931
:1056E0000F4B9B6803F1006303F500339A4211D21C
:1056F00003F0ACFE03F07AFE00F0D8FA03F084FE6B
:1057000003F04CFE204603F0BBFE2046BDE81040EF
:1057100003F060BF10BD00BF0000020804000208D3
:10572000AC0000240C4A002310B5144652F8231094
:1057300021B152F82310013942F823100133042B10
:10574000F4D1064B1B7833B9A36823B9022003F0C8
:105750002FFF3223A36010BDC8130024BC0E002409
:10576000024BD860DA68002AFCD17047C8130024C5
:105770002DE9F04FDFF810838DB00025BA4E0746B3
:10578000DFF808A388F800500495B46803F01AFE07
:10579000CDF80480B0460FB1CAF80070B34B4FF09B
:1057A000FF36CAF8085099461D70012003F0F6FE36
:1057B00027B1DAF80030002B00F02B820020FFF731
:1057C0005DFF0590059B002BF2DB012003F0DCFE62
:1057D000059B213B102BE8D801A252F823F000BF13
:1057E000255800083B580008A3580008AB5700088C
:1057F000AB570008AB57000837590008AB570008F3
:10580000D5590008915A0008DB5A0008375B000898
:10581000855B0008575B0008AB570008EF5B00088A
:10582000FB5800080220FFF73FFF002800F003822A
:10583000049B43F0010304935FE04FF47A70FFF799
:105840001DFF051EC0F2F7810220FFF72DFF002883
:1058500000F0F181681E042800F2ED81DFE800F01D
:10586000030B0E11140004218148FFF725FF049B50
:1058700043F00203DFE704217B48F6E704217D487B
:10588000F3E704217C48F0E71C252846043503F0A3
:1058900017FE0421079007A8FFF70EFF2C2DF4D167
:1058A000E5E70220FFF700FF002800F0C481049B19
:1058B00003F00303032B40F0BE81012300250220E7
:1058C00089F8003003F060FE03F0CBFD284603F0BA
:1058D000DDFD044610BB022089F8000003F05EFEE7
:1058E000D8F80830A3421ED8049B002443F00403D8
:1058F00089F800400493CAF80840019B1B781BB943
:105900005E4B019A1B78137041F21203022107A823
:105910000027ADF81C30FFF7CFFE46E728460135DB
:1059200003F0BAFDD2E7204603F0CAFD013040F093
:1059300055810434D4E73220FFF7A0FE051EC0F2E3
:105940007A8115F0030240F076812B19D8F80810FF
:105950008B4200F27081B5F5807F00F26C81DFF838
:1059600020B15946AA4214D1C820FFF79DFE002855
:1059700000F0618124B9424B4FF0FF321E681A607B
:1059800025F003052544AC4215D1049B43F00803E0
:1059900051E74FF47A70CDE90221FFF76FFE0590D1
:1059A00005980028C0F2478105980399029A01F8EA
:1059B000010B0132D6E7DBF80010204603F07AFD38
:1059C000204603F07DFD5BF8042B904240F00681F9
:1059D0000434D8E70220FFF767FE002800F02B818F
:1059E00000252F462EE0002D39D1711C37D00796A7
:1059F000244A5168C1B994460B46082003F0010EB1
:105A00005B08BEF1000F07D083F06D4383F43803C9
:105A100083F4034383F020030138EFD101314CF8C4
:105A2000043BB1F5807FE7D107A8002110F8013BC6
:105A300001317B400429DBB252F8233083EA172777
:105A4000F4D10435D8F80830AB42CCD8042107A8EB
:105A50000797FFF731FE049B43F01003EBE628465F
:105A600003F02EFD0790C3E7AC000024BC0E002419
:105A700028A10008B0000024B4000024C4130024AE
:105A8000C4120024C40E0024BD0E0024C813002438
:105A900007AB4FF0000B1D4664200293FFF7EEFDAD
:105AA0000028C0F2C8800BF1010B029BBBF1040F70
:105AB00003F8010BF0D1079B02200293FFF7F4FDDE
:105AC000002800F0B880029B184603F003FD5946F9
:105AD00007902846FFF7F0FD0FE707AB4FF0000BEC
:105AE0001D4664200293FFF7C9FD0028C0F2A38081
:105AF0000BF1010B029BBBF1040F03F8010BF0D17A
:105B0000079B02200293FFF7CFFD002800F093804F
:105B1000029B9A0740F08F80082B00F28C80184679
:105B200003F02CFD594607902846FFF7C5FD049B5E
:105B300043F040037FE60220FFF7B6FD00287AD04D
:105B400003F0CAFC0421079007A8FFF7B5FD049BEA
:105B500043F080036FE60220FFF7A6FD00286AD01D
:105B600007A9142003F0BEFC05460421069006A8F0
:105B7000FFF7A2FD294607A8FFF79EFD049B43F40B
:105B8000807358E66420FFF779FD002853DBC5B227
:105B90001E2D50D80220FFF787FD00284BD04FF470
:105BA000D07003F08DFC83464FF4D27003F088FC74
:105BB000264B9B453FD1264B98423CD1DFF894B011
:105BC0004FF4D07045EA0B0B594603F073FC4FF4C9
:105BD000D07003F075FC58453FF48FAE41F21213BC
:105BE000022107A8ADF81C30FFF766FDDDE54FF494
:105BF0007A70FFF759FDF0B1731C0DD141F2120319
:105C000007A80221ADF81C30FFF756FD6420FFF70E
:105C1000A7FD0DB0BDE8F08F049B03F01B031B2B09
:105C200009D13146002003F045FC002003F048FC78
:105C30008642E3D0D2E741F21233022107A8ADF841
:105C40001C30FFF739FD00230493AEE5FFECC29250
:105C50005D7D05C500ECC29238B50F4B0F4C002896
:105C600008BF184603F050F90D49206003F05CF9B5
:105C70000C4B00B118604FF0FF320B4D43211868F8
:105C80002A6002F004F9002805DB28602068BDE8DE
:105C90003840FEF709BA38BD149E0008DC13002412
:105CA0002CA10008D81300247800002410B5044C5F
:105CB000206801F0C4FE4FF0FF33236010BD00BF29
:105CC0007800002413B50F4C2368002B0FDA0E4B1D
:105CD0004321186802F0DBF8002803DA4FF0FF30A8
:105CE00002B010BD094B20601868FEF7DDF90122F3
:105CF0000DF10701206802F004F90128EED19DF8AA
:105D00000700EDE778000024D8130024DC130024FA
:105D1000024B0A460146186802F028B978000024B0
